{
  "contractName": "Task",
  "abi": [
    {
      "inputs": [
        {
          "internalType": "string",
          "name": "name",
          "type": "string"
        },
        {
          "internalType": "string",
          "name": "symbol",
          "type": "string"
        },
        {
          "internalType": "uint256",
          "name": "cap_",
          "type": "uint256"
        }
      ],
      "stateMutability": "nonpayable",
      "type": "constructor"
    },
    {
      "anonymous": false,
      "inputs": [
        {
          "indexed": true,
          "internalType": "address",
          "name": "owner",
          "type": "address"
        },
        {
          "indexed": true,
          "internalType": "address",
          "name": "spender",
          "type": "address"
        },
        {
          "indexed": false,
          "internalType": "uint256",
          "name": "value",
          "type": "uint256"
        }
      ],
      "name": "Approval",
      "type": "event"
    },
    {
      "anonymous": false,
      "inputs": [
        {
          "indexed": false,
          "internalType": "address",
          "name": "account",
          "type": "address"
        }
      ],
      "name": "Paused",
      "type": "event"
    },
    {
      "anonymous": false,
      "inputs": [
        {
          "indexed": true,
          "internalType": "bytes32",
          "name": "role",
          "type": "bytes32"
        },
        {
          "indexed": true,
          "internalType": "bytes32",
          "name": "previousAdminRole",
          "type": "bytes32"
        },
        {
          "indexed": true,
          "internalType": "bytes32",
          "name": "newAdminRole",
          "type": "bytes32"
        }
      ],
      "name": "RoleAdminChanged",
      "type": "event"
    },
    {
      "anonymous": false,
      "inputs": [
        {
          "indexed": true,
          "internalType": "bytes32",
          "name": "role",
          "type": "bytes32"
        },
        {
          "indexed": true,
          "internalType": "address",
          "name": "account",
          "type": "address"
        },
        {
          "indexed": true,
          "internalType": "address",
          "name": "sender",
          "type": "address"
        }
      ],
      "name": "RoleGranted",
      "type": "event"
    },
    {
      "anonymous": false,
      "inputs": [
        {
          "indexed": true,
          "internalType": "bytes32",
          "name": "role",
          "type": "bytes32"
        },
        {
          "indexed": true,
          "internalType": "address",
          "name": "account",
          "type": "address"
        },
        {
          "indexed": true,
          "internalType": "address",
          "name": "sender",
          "type": "address"
        }
      ],
      "name": "RoleRevoked",
      "type": "event"
    },
    {
      "anonymous": false,
      "inputs": [
        {
          "indexed": true,
          "internalType": "address",
          "name": "from",
          "type": "address"
        },
        {
          "indexed": true,
          "internalType": "address",
          "name": "to",
          "type": "address"
        },
        {
          "indexed": false,
          "internalType": "uint256",
          "name": "value",
          "type": "uint256"
        }
      ],
      "name": "Transfer",
      "type": "event"
    },
    {
      "anonymous": false,
      "inputs": [
        {
          "indexed": false,
          "internalType": "address",
          "name": "account",
          "type": "address"
        }
      ],
      "name": "Unpaused",
      "type": "event"
    },
    {
      "inputs": [],
      "name": "CAP_CHANGER_ROLE",
      "outputs": [
        {
          "internalType": "bytes32",
          "name": "",
          "type": "bytes32"
        }
      ],
      "stateMutability": "view",
      "type": "function",
      "constant": true
    },
    {
      "inputs": [],
      "name": "DEFAULT_ADMIN_ROLE",
      "outputs": [
        {
          "internalType": "bytes32",
          "name": "",
          "type": "bytes32"
        }
      ],
      "stateMutability": "view",
      "type": "function",
      "constant": true
    },
    {
      "inputs": [],
      "name": "MINTER_ROLE",
      "outputs": [
        {
          "internalType": "bytes32",
          "name": "",
          "type": "bytes32"
        }
      ],
      "stateMutability": "view",
      "type": "function",
      "constant": true
    },
    {
      "inputs": [],
      "name": "PAUSER_ROLE",
      "outputs": [
        {
          "internalType": "bytes32",
          "name": "",
          "type": "bytes32"
        }
      ],
      "stateMutability": "view",
      "type": "function",
      "constant": true
    },
    {
      "inputs": [
        {
          "internalType": "address",
          "name": "owner",
          "type": "address"
        },
        {
          "internalType": "address",
          "name": "spender",
          "type": "address"
        }
      ],
      "name": "allowance",
      "outputs": [
        {
          "internalType": "uint256",
          "name": "",
          "type": "uint256"
        }
      ],
      "stateMutability": "view",
      "type": "function",
      "constant": true
    },
    {
      "inputs": [
        {
          "internalType": "address",
          "name": "spender",
          "type": "address"
        },
        {
          "internalType": "uint256",
          "name": "amount",
          "type": "uint256"
        }
      ],
      "name": "approve",
      "outputs": [
        {
          "internalType": "bool",
          "name": "",
          "type": "bool"
        }
      ],
      "stateMutability": "nonpayable",
      "type": "function"
    },
    {
      "inputs": [
        {
          "internalType": "address",
          "name": "account",
          "type": "address"
        }
      ],
      "name": "balanceOf",
      "outputs": [
        {
          "internalType": "uint256",
          "name": "",
          "type": "uint256"
        }
      ],
      "stateMutability": "view",
      "type": "function",
      "constant": true
    },
    {
      "inputs": [
        {
          "internalType": "uint256",
          "name": "amount",
          "type": "uint256"
        }
      ],
      "name": "burn",
      "outputs": [],
      "stateMutability": "nonpayable",
      "type": "function"
    },
    {
      "inputs": [
        {
          "internalType": "address",
          "name": "account",
          "type": "address"
        },
        {
          "internalType": "uint256",
          "name": "amount",
          "type": "uint256"
        }
      ],
      "name": "burnFrom",
      "outputs": [],
      "stateMutability": "nonpayable",
      "type": "function"
    },
    {
      "inputs": [],
      "name": "decimals",
      "outputs": [
        {
          "internalType": "uint8",
          "name": "",
          "type": "uint8"
        }
      ],
      "stateMutability": "view",
      "type": "function",
      "constant": true
    },
    {
      "inputs": [
        {
          "internalType": "address",
          "name": "spender",
          "type": "address"
        },
        {
          "internalType": "uint256",
          "name": "subtractedValue",
          "type": "uint256"
        }
      ],
      "name": "decreaseAllowance",
      "outputs": [
        {
          "internalType": "bool",
          "name": "",
          "type": "bool"
        }
      ],
      "stateMutability": "nonpayable",
      "type": "function"
    },
    {
      "inputs": [
        {
          "internalType": "bytes32",
          "name": "role",
          "type": "bytes32"
        }
      ],
      "name": "getRoleAdmin",
      "outputs": [
        {
          "internalType": "bytes32",
          "name": "",
          "type": "bytes32"
        }
      ],
      "stateMutability": "view",
      "type": "function",
      "constant": true
    },
    {
      "inputs": [
        {
          "internalType": "bytes32",
          "name": "role",
          "type": "bytes32"
        },
        {
          "internalType": "uint256",
          "name": "index",
          "type": "uint256"
        }
      ],
      "name": "getRoleMember",
      "outputs": [
        {
          "internalType": "address",
          "name": "",
          "type": "address"
        }
      ],
      "stateMutability": "view",
      "type": "function",
      "constant": true
    },
    {
      "inputs": [
        {
          "internalType": "bytes32",
          "name": "role",
          "type": "bytes32"
        }
      ],
      "name": "getRoleMemberCount",
      "outputs": [
        {
          "internalType": "uint256",
          "name": "",
          "type": "uint256"
        }
      ],
      "stateMutability": "view",
      "type": "function",
      "constant": true
    },
    {
      "inputs": [
        {
          "internalType": "bytes32",
          "name": "role",
          "type": "bytes32"
        },
        {
          "internalType": "address",
          "name": "account",
          "type": "address"
        }
      ],
      "name": "grantRole",
      "outputs": [],
      "stateMutability": "nonpayable",
      "type": "function"
    },
    {
      "inputs": [
        {
          "internalType": "bytes32",
          "name": "role",
          "type": "bytes32"
        },
        {
          "internalType": "address",
          "name": "account",
          "type": "address"
        }
      ],
      "name": "hasRole",
      "outputs": [
        {
          "internalType": "bool",
          "name": "",
          "type": "bool"
        }
      ],
      "stateMutability": "view",
      "type": "function",
      "constant": true
    },
    {
      "inputs": [
        {
          "internalType": "address",
          "name": "spender",
          "type": "address"
        },
        {
          "internalType": "uint256",
          "name": "addedValue",
          "type": "uint256"
        }
      ],
      "name": "increaseAllowance",
      "outputs": [
        {
          "internalType": "bool",
          "name": "",
          "type": "bool"
        }
      ],
      "stateMutability": "nonpayable",
      "type": "function"
    },
    {
      "inputs": [],
      "name": "name",
      "outputs": [
        {
          "internalType": "string",
          "name": "",
          "type": "string"
        }
      ],
      "stateMutability": "view",
      "type": "function",
      "constant": true
    },
    {
      "inputs": [],
      "name": "paused",
      "outputs": [
        {
          "internalType": "bool",
          "name": "",
          "type": "bool"
        }
      ],
      "stateMutability": "view",
      "type": "function",
      "constant": true
    },
    {
      "inputs": [
        {
          "internalType": "bytes32",
          "name": "role",
          "type": "bytes32"
        },
        {
          "internalType": "address",
          "name": "account",
          "type": "address"
        }
      ],
      "name": "renounceRole",
      "outputs": [],
      "stateMutability": "nonpayable",
      "type": "function"
    },
    {
      "inputs": [
        {
          "internalType": "bytes32",
          "name": "role",
          "type": "bytes32"
        },
        {
          "internalType": "address",
          "name": "account",
          "type": "address"
        }
      ],
      "name": "revokeRole",
      "outputs": [],
      "stateMutability": "nonpayable",
      "type": "function"
    },
    {
      "inputs": [
        {
          "internalType": "bytes4",
          "name": "interfaceId",
          "type": "bytes4"
        }
      ],
      "name": "supportsInterface",
      "outputs": [
        {
          "internalType": "bool",
          "name": "",
          "type": "bool"
        }
      ],
      "stateMutability": "view",
      "type": "function",
      "constant": true
    },
    {
      "inputs": [],
      "name": "symbol",
      "outputs": [
        {
          "internalType": "string",
          "name": "",
          "type": "string"
        }
      ],
      "stateMutability": "view",
      "type": "function",
      "constant": true
    },
    {
      "inputs": [],
      "name": "totalSupply",
      "outputs": [
        {
          "internalType": "uint256",
          "name": "",
          "type": "uint256"
        }
      ],
      "stateMutability": "view",
      "type": "function",
      "constant": true
    },
    {
      "inputs": [
        {
          "internalType": "address",
          "name": "to",
          "type": "address"
        },
        {
          "internalType": "uint256",
          "name": "amount",
          "type": "uint256"
        }
      ],
      "name": "transfer",
      "outputs": [
        {
          "internalType": "bool",
          "name": "",
          "type": "bool"
        }
      ],
      "stateMutability": "nonpayable",
      "type": "function"
    },
    {
      "inputs": [
        {
          "internalType": "address",
          "name": "from",
          "type": "address"
        },
        {
          "internalType": "address",
          "name": "to",
          "type": "address"
        },
        {
          "internalType": "uint256",
          "name": "amount",
          "type": "uint256"
        }
      ],
      "name": "transferFrom",
      "outputs": [
        {
          "internalType": "bool",
          "name": "",
          "type": "bool"
        }
      ],
      "stateMutability": "nonpayable",
      "type": "function"
    },
    {
      "inputs": [],
      "name": "cap",
      "outputs": [
        {
          "internalType": "uint256",
          "name": "",
          "type": "uint256"
        }
      ],
      "stateMutability": "view",
      "type": "function",
      "constant": true
    },
    {
      "inputs": [
        {
          "internalType": "uint256",
          "name": "newCap",
          "type": "uint256"
        }
      ],
      "name": "changeCap",
      "outputs": [
        {
          "internalType": "uint256",
          "name": "",
          "type": "uint256"
        }
      ],
      "stateMutability": "nonpayable",
      "type": "function"
    },
    {
      "inputs": [
        {
          "internalType": "address",
          "name": "to",
          "type": "address"
        },
        {
          "internalType": "uint256",
          "name": "amount",
          "type": "uint256"
        }
      ],
      "name": "mint",
      "outputs": [],
      "stateMutability": "nonpayable",
      "type": "function"
    },
    {
      "inputs": [],
      "name": "pause",
      "outputs": [],
      "stateMutability": "nonpayable",
      "type": "function"
    },
    {
      "inputs": [],
      "name": "unpause",
      "outputs": [],
      "stateMutability": "nonpayable",
      "type": "function"
    }
  ],
  "bytecode": "0x60806040523480156200001157600080fd5b5060405162003dd438038062003dd48339818101604052810190620000379190620006e3565b82828160059080519060200190620000519291906200045b565b5080600690805190602001906200006a9291906200045b565b5050506000600760006101000a81548160ff021916908315150217905550620000ac6000801b620000a0620001c560201b60201c565b620001cd60201b60201c565b620000ed7f9f2df0fed2c77648de5860a4cc508cd0818c85b8b8a1ab4ceeef8d981c8956a6620000e1620001c560201b60201c565b620001cd60201b60201c565b6200012e7f65d7a28e3265b37a6474929f336521b332c1681b933f6cb9f3376673440d862a62000122620001c560201b60201c565b620001cd60201b60201c565b6200016f7f40792203061b8561ed66c6ddab569c7cb9979796044f6191fb2990fb1ca4eadf62000163620001c560201b60201c565b620001cd60201b60201c565b60008111620001b5576040517f08c379a0000000000000000000000000000000000000000000000000000000008152600401620001ac90620007de565b60405180910390fd5b8060088190555050505062000865565b600033905090565b620001df8282620001e360201b60201c565b5050565b620001fa82826200022b60201b62000fda1760201c565b6200022681600160008581526020019081526020016000206200031c60201b620010ba1790919060201c565b505050565b6200023d82826200035460201b60201c565b6200031857600160008084815260200190815260200160002060000160008373ffffffffffffffffffffffffffffffffffffffff1673ffffffffffffffffffffffffffffffffffffffff16815260200190815260200160002060006101000a81548160ff021916908315150217905550620002bd620001c560201b60201c565b73ffffffffffffffffffffffffffffffffffffffff168173ffffffffffffffffffffffffffffffffffffffff16837f2f8788117e7eff1d82e926ec794901d17c78024a50270940304540a733656f0d60405160405180910390a45b5050565b60006200034c836000018373ffffffffffffffffffffffffffffffffffffffff1660001b620003be60201b60201c565b905092915050565b600080600084815260200190815260200160002060000160008373ffffffffffffffffffffffffffffffffffffffff1673ffffffffffffffffffffffffffffffffffffffff16815260200190815260200160002060009054906101000a900460ff16905092915050565b6000620003d283836200043860201b60201c565b6200042d57826000018290806001815401808255809150506001900390600052602060002001600090919091909150558260000180549050836001016000848152602001908152602001600020819055506001905062000432565b600090505b92915050565b600080836001016000848152602001908152602001600020541415905092915050565b82805462000469906200082f565b90600052602060002090601f0160209004810192826200048d5760008555620004d9565b82601f10620004a857805160ff1916838001178555620004d9565b82800160010185558215620004d9579182015b82811115620004d8578251825591602001919060010190620004bb565b5b509050620004e89190620004ec565b5090565b5b8082111562000507576000816000905550600101620004ed565b5090565b6000604051905090565b600080fd5b600080fd5b600080fd5b600080fd5b6000601f19601f8301169050919050565b7f4e487b7100000000000000000000000000000000000000000000000000000000600052604160045260246000fd5b620005748262000529565b810181811067ffffffffffffffff821117156200059657620005956200053a565b5b80604052505050565b6000620005ab6200050b565b9050620005b9828262000569565b919050565b600067ffffffffffffffff821115620005dc57620005db6200053a565b5b620005e78262000529565b9050602081019050919050565b60005b8381101562000614578082015181840152602081019050620005f7565b8381111562000624576000848401525b50505050565b6000620006416200063b84620005be565b6200059f565b90508281526020810184848401111562000660576200065f62000524565b5b6200066d848285620005f4565b509392505050565b600082601f8301126200068d576200068c6200051f565b5b81516200069f8482602086016200062a565b91505092915050565b6000819050919050565b620006bd81620006a8565b8114620006c957600080fd5b50565b600081519050620006dd81620006b2565b92915050565b600080600060608486031215620006ff57620006fe62000515565b5b600084015167ffffffffffffffff81111562000720576200071f6200051a565b5b6200072e8682870162000675565b935050602084015167ffffffffffffffff8111156200075257620007516200051a565b5b620007608682870162000675565b92505060406200077386828701620006cc565b9150509250925092565b600082825260208201905092915050565b7f45524332304361707065643a2063617020697320300000000000000000000000600082015250565b6000620007c66015836200077d565b9150620007d3826200078e565b602082019050919050565b60006020820190508181036000830152620007f981620007b7565b9050919050565b7f4e487b7100000000000000000000000000000000000000000000000000000000600052602260045260246000fd5b600060028204905060018216806200084857607f821691505b602082108114156200085f576200085e62000800565b5b50919050565b61355f80620008756000396000f3fe608060405234801561001057600080fd5b50600436106101e55760003560e01c806370a082311161010f578063a217fddf116100a2578063d539139311610071578063d5391393146105ba578063d547741f146105d8578063dd62ed3e146105f4578063e63ab1e914610624576101e5565b8063a217fddf1461050c578063a457c2d71461052a578063a9059cbb1461055a578063ca15c8731461058a576101e5565b80638642f628116100de5780638642f628146104705780639010d07c1461048e57806391d14854146104be57806395d89b41146104ee576101e5565b806370a08231146103ea57806379cc67901461041a578063800edb9d146104365780638456cb5914610466576101e5565b8063313ce567116101875780633f4ba83a116101565780633f4ba83a1461038a57806340c10f191461039457806342966c68146103b05780635c975abb146103cc576101e5565b8063313ce56714610302578063355274ea1461032057806336568abe1461033e578063395093511461035a576101e5565b806318160ddd116101c357806318160ddd1461026857806323b872dd14610286578063248a9ca3146102b65780632f2ff15d146102e6576101e5565b806301ffc9a7146101ea57806306fdde031461021a578063095ea7b314610238575b600080fd5b61020460048036038101906101ff9190612263565b610642565b60405161021191906122ab565b60405180910390f35b6102226106bc565b60405161022f919061235f565b60405180910390f35b610252600480360381019061024d9190612415565b61074e565b60405161025f91906122ab565b60405180910390f35b610270610771565b60405161027d9190612464565b60405180910390f35b6102a0600480360381019061029b919061247f565b61077b565b6040516102ad91906122ab565b60405180910390f35b6102d060048036038101906102cb9190612508565b6107aa565b6040516102dd9190612544565b60405180910390f35b61030060048036038101906102fb919061255f565b6107c9565b005b61030a6107f2565b60405161031791906125bb565b60405180910390f35b6103286107fb565b6040516103359190612464565b60405180910390f35b6103586004803603810190610353919061255f565b610805565b005b610374600480360381019061036f9190612415565b610888565b60405161038191906122ab565b60405180910390f35b610392610932565b005b6103ae60048036038101906103a99190612415565b6109ac565b005b6103ca60048036038101906103c591906125d6565b610a86565b005b6103d4610a9a565b6040516103e191906122ab565b60405180910390f35b61040460048036038101906103ff9190612603565b610ab1565b6040516104119190612464565b60405180910390f35b610434600480360381019061042f9190612415565b610afa565b005b610450600480360381019061044b91906125d6565b610b1a565b60405161045d9190612464565b60405180910390f35b61046e610be1565b005b610478610c5b565b6040516104859190612544565b60405180910390f35b6104a860048036038101906104a39190612630565b610c7f565b6040516104b5919061267f565b60405180910390f35b6104d860048036038101906104d3919061255f565b610cae565b6040516104e591906122ab565b60405180910390f35b6104f6610d18565b604051610503919061235f565b60405180910390f35b610514610daa565b6040516105219190612544565b60405180910390f35b610544600480360381019061053f9190612415565b610db1565b60405161055191906122ab565b60405180910390f35b610574600480360381019061056f9190612415565b610e9b565b60405161058191906122ab565b60405180910390f35b6105a4600480360381019061059f9190612508565b610ebe565b6040516105b19190612464565b60405180910390f35b6105c2610ee2565b6040516105cf9190612544565b60405180910390f35b6105f260048036038101906105ed919061255f565b610f06565b005b61060e6004803603810190610609919061269a565b610f2f565b60405161061b9190612464565b60405180910390f35b61062c610fb6565b6040516106399190612544565b60405180910390f35b60007f5a05180f000000000000000000000000000000000000000000000000000000007bffffffffffffffffffffffffffffffffffffffffffffffffffffffff1916827bffffffffffffffffffffffffffffffffffffffffffffffffffffffff191614806106b557506106b4826110ea565b5b9050919050565b6060600580546106cb90612709565b80601f01602080910402602001604051908101604052809291908181526020018280546106f790612709565b80156107445780601f1061071957610100808354040283529160200191610744565b820191906000526020600020905b81548152906001019060200180831161072757829003601f168201915b5050505050905090565b600080610759611164565b905061076681858561116c565b600191505092915050565b6000600454905090565b600080610786611164565b9050610793858285611337565b61079e8585856113c3565b60019150509392505050565b6000806000838152602001908152602001600020600101549050919050565b6107d2826107aa565b6107e3816107de611164565b611647565b6107ed83836116e4565b505050565b60006012905090565b6000600854905090565b61080d611164565b73ffffffffffffffffffffffffffffffffffffffff168173ffffffffffffffffffffffffffffffffffffffff161461087a576040517f08c379a0000000000000000000000000000000000000000000000000000000008152600401610871906127ad565b60405180910390fd5b6108848282611718565b5050565b600080610893611164565b9050610927818585600360008673ffffffffffffffffffffffffffffffffffffffff1673ffffffffffffffffffffffffffffffffffffffff16815260200190815260200160002060008973ffffffffffffffffffffffffffffffffffffffff1673ffffffffffffffffffffffffffffffffffffffff1681526020019081526020016000205461092291906127fc565b61116c565b600191505092915050565b6109637f65d7a28e3265b37a6474929f336521b332c1681b933f6cb9f3376673440d862a61095e611164565b610cae565b6109a2576040517f08c379a0000000000000000000000000000000000000000000000000000000008152600401610999906128c4565b60405180910390fd5b6109aa61174c565b565b6109dd7f9f2df0fed2c77648de5860a4cc508cd0818c85b8b8a1ab4ceeef8d981c8956a66109d8611164565b610cae565b610a1c576040517f08c379a0000000000000000000000000000000000000000000000000000000008152600401610a1390612956565b60405180910390fd5b610a246107fb565b81610a2d610771565b610a3791906127fc565b1115610a78576040517f08c379a0000000000000000000000000000000000000000000000000000000008152600401610a6f906129c2565b60405180910390fd5b610a8282826117ee565b5050565b610a97610a91611164565b8261194f565b50565b6000600760009054906101000a900460ff16905090565b6000600260008373ffffffffffffffffffffffffffffffffffffffff1673ffffffffffffffffffffffffffffffffffffffff168152602001908152602001600020549050919050565b610b0c82610b06611164565b83611337565b610b16828261194f565b5050565b6000610b4d7f40792203061b8561ed66c6ddab569c7cb9979796044f6191fb2990fb1ca4eadf610b48611164565b610cae565b610b8c576040517f08c379a0000000000000000000000000000000000000000000000000000000008152600401610b8390612a54565b60405180910390fd5b610b946107fb565b8211610bd5576040517f08c379a0000000000000000000000000000000000000000000000000000000008152600401610bcc90612ae6565b60405180910390fd5b81600881905550919050565b610c127f65d7a28e3265b37a6474929f336521b332c1681b933f6cb9f3376673440d862a610c0d611164565b610cae565b610c51576040517f08c379a0000000000000000000000000000000000000000000000000000000008152600401610c4890612b78565b60405180910390fd5b610c59611b28565b565b7f40792203061b8561ed66c6ddab569c7cb9979796044f6191fb2990fb1ca4eadf81565b6000610ca68260016000868152602001908152602001600020611bcb90919063ffffffff16565b905092915050565b600080600084815260200190815260200160002060000160008373ffffffffffffffffffffffffffffffffffffffff1673ffffffffffffffffffffffffffffffffffffffff16815260200190815260200160002060009054906101000a900460ff16905092915050565b606060068054610d2790612709565b80601f0160208091040260200160405190810160405280929190818152602001828054610d5390612709565b8015610da05780601f10610d7557610100808354040283529160200191610da0565b820191906000526020600020905b815481529060010190602001808311610d8357829003601f168201915b5050505050905090565b6000801b81565b600080610dbc611164565b90506000600360008373ffffffffffffffffffffffffffffffffffffffff1673ffffffffffffffffffffffffffffffffffffffff16815260200190815260200160002060008673ffffffffffffffffffffffffffffffffffffffff1673ffffffffffffffffffffffffffffffffffffffff16815260200190815260200160002054905083811015610e82576040517f08c379a0000000000000000000000000000000000000000000000000000000008152600401610e7990612c0a565b60405180910390fd5b610e8f828686840361116c565b60019250505092915050565b600080610ea6611164565b9050610eb38185856113c3565b600191505092915050565b6000610edb60016000848152602001908152602001600020611be5565b9050919050565b7f9f2df0fed2c77648de5860a4cc508cd0818c85b8b8a1ab4ceeef8d981c8956a681565b610f0f826107aa565b610f2081610f1b611164565b611647565b610f2a8383611718565b505050565b6000600360008473ffffffffffffffffffffffffffffffffffffffff1673ffffffffffffffffffffffffffffffffffffffff16815260200190815260200160002060008373ffffffffffffffffffffffffffffffffffffffff1673ffffffffffffffffffffffffffffffffffffffff16815260200190815260200160002054905092915050565b7f65d7a28e3265b37a6474929f336521b332c1681b933f6cb9f3376673440d862a81565b610fe48282610cae565b6110b657600160008084815260200190815260200160002060000160008373ffffffffffffffffffffffffffffffffffffffff1673ffffffffffffffffffffffffffffffffffffffff16815260200190815260200160002060006101000a81548160ff02191690831515021790555061105b611164565b73ffffffffffffffffffffffffffffffffffffffff168173ffffffffffffffffffffffffffffffffffffffff16837f2f8788117e7eff1d82e926ec794901d17c78024a50270940304540a733656f0d60405160405180910390a45b5050565b60006110e2836000018373ffffffffffffffffffffffffffffffffffffffff1660001b611bfa565b905092915050565b60007f7965db0b000000000000000000000000000000000000000000000000000000007bffffffffffffffffffffffffffffffffffffffffffffffffffffffff1916827bffffffffffffffffffffffffffffffffffffffffffffffffffffffff1916148061115d575061115c82611c6a565b5b9050919050565b600033905090565b600073ffffffffffffffffffffffffffffffffffffffff168373ffffffffffffffffffffffffffffffffffffffff1614156111dc576040517f08c379a00000000000000000000000000000000000000000000000000000000081526004016111d390612c9c565b60405180910390fd5b600073ffffffffffffffffffffffffffffffffffffffff168273ffffffffffffffffffffffffffffffffffffffff16141561124c576040517f08c379a000000000000000000000000000000000000000000000000000000000815260040161124390612d2e565b60405180910390fd5b80600360008573ffffffffffffffffffffffffffffffffffffffff1673ffffffffffffffffffffffffffffffffffffffff16815260200190815260200160002060008473ffffffffffffffffffffffffffffffffffffffff1673ffffffffffffffffffffffffffffffffffffffff168152602001908152602001600020819055508173ffffffffffffffffffffffffffffffffffffffff168373ffffffffffffffffffffffffffffffffffffffff167f8c5be1e5ebec7d5bd14f71427d1e84f3dd0314c0f7b2291e5b200ac8c7c3b9258360405161132a9190612464565b60405180910390a3505050565b60006113438484610f2f565b90507fffffffffffffffffffffffffffffffffffffffffffffffffffffffffffffffff81146113bd57818110156113af576040517f08c379a00000000000000000000000000000000000000000000000000000000081526004016113a690612d9a565b60405180910390fd5b6113bc848484840361116c565b5b50505050565b600073ffffffffffffffffffffffffffffffffffffffff168373ffffffffffffffffffffffffffffffffffffffff161415611433576040517f08c379a000000000000000000000000000000000000000000000000000000000815260040161142a90612e2c565b60405180910390fd5b600073ffffffffffffffffffffffffffffffffffffffff168273ffffffffffffffffffffffffffffffffffffffff1614156114a3576040517f08c379a000000000000000000000000000000000000000000000000000000000815260040161149a90612ebe565b60405180910390fd5b6114ae838383611cd4565b6000600260008573ffffffffffffffffffffffffffffffffffffffff1673ffffffffffffffffffffffffffffffffffffffff16815260200190815260200160002054905081811015611535576040517f08c379a000000000000000000000000000000000000000000000000000000000815260040161152c90612f50565b60405180910390fd5b818103600260008673ffffffffffffffffffffffffffffffffffffffff1673ffffffffffffffffffffffffffffffffffffffff1681526020019081526020016000208190555081600260008573ffffffffffffffffffffffffffffffffffffffff1673ffffffffffffffffffffffffffffffffffffffff16815260200190815260200160002060008282546115ca91906127fc565b925050819055508273ffffffffffffffffffffffffffffffffffffffff168473ffffffffffffffffffffffffffffffffffffffff167fddf252ad1be2c89b69c2b068fc378daa952ba7f163c4a11628f55a4df523b3ef8460405161162e9190612464565b60405180910390a3611641848484611ce4565b50505050565b6116518282610cae565b6116e0576116768173ffffffffffffffffffffffffffffffffffffffff166014611ce9565b6116848360001c6020611ce9565b604051602001611695929190613044565b6040516020818303038152906040526040517f08c379a00000000000000000000000000000000000000000000000000000000081526004016116d7919061235f565b60405180910390fd5b5050565b6116ee8282610fda565b61171381600160008581526020019081526020016000206110ba90919063ffffffff16565b505050565b6117228282611f25565b611747816001600085815260200190815260200160002061200690919063ffffffff16565b505050565b611754610a9a565b611793576040517f08c379a000000000000000000000000000000000000000000000000000000000815260040161178a906130ca565b60405180910390fd5b6000600760006101000a81548160ff0219169083151502179055507f5db9ee0a495bf2e6ff9c91a7834c1ba4fdd244a5e8aa4e537bd38aeae4b073aa6117d7611164565b6040516117e4919061267f565b60405180910390a1565b600073ffffffffffffffffffffffffffffffffffffffff168273ffffffffffffffffffffffffffffffffffffffff16141561185e576040517f08c379a000000000000000000000000000000000000000000000000000000000815260040161185590613136565b60405180910390fd5b61186a60008383611cd4565b806004600082825461187c91906127fc565b9250508190555080600260008473ffffffffffffffffffffffffffffffffffffffff1673ffffffffffffffffffffffffffffffffffffffff16815260200190815260200160002060008282546118d291906127fc565b925050819055508173ffffffffffffffffffffffffffffffffffffffff16600073ffffffffffffffffffffffffffffffffffffffff167fddf252ad1be2c89b69c2b068fc378daa952ba7f163c4a11628f55a4df523b3ef836040516119379190612464565b60405180910390a361194b60008383611ce4565b5050565b600073ffffffffffffffffffffffffffffffffffffffff168273ffffffffffffffffffffffffffffffffffffffff1614156119bf576040517f08c379a00000000000000000000000000000000000000000000000000000000081526004016119b6906131c8565b60405180910390fd5b6119cb82600083611cd4565b6000600260008473ffffffffffffffffffffffffffffffffffffffff1673ffffffffffffffffffffffffffffffffffffffff16815260200190815260200160002054905081811015611a52576040517f08c379a0000000000000000000000000000000000000000000000000000000008152600401611a499061325a565b60405180910390fd5b818103600260008573ffffffffffffffffffffffffffffffffffffffff1673ffffffffffffffffffffffffffffffffffffffff168152602001908152602001600020819055508160046000828254611aaa919061327a565b92505081905550600073ffffffffffffffffffffffffffffffffffffffff168373ffffffffffffffffffffffffffffffffffffffff167fddf252ad1be2c89b69c2b068fc378daa952ba7f163c4a11628f55a4df523b3ef84604051611b0f9190612464565b60405180910390a3611b2383600084611ce4565b505050565b611b30610a9a565b15611b70576040517f08c379a0000000000000000000000000000000000000000000000000000000008152600401611b67906132fa565b60405180910390fd5b6001600760006101000a81548160ff0219169083151502179055507f62e78cea01bee320cd4e420270b5ea74000d11b0c9f74754ebdbfc544b05a258611bb4611164565b604051611bc1919061267f565b60405180910390a1565b6000611bda8360000183612036565b60001c905092915050565b6000611bf382600001612061565b9050919050565b6000611c068383612072565b611c5f578260000182908060018154018082558091505060019003906000526020600020016000909190919091505582600001805490508360010160008481526020019081526020016000208190555060019050611c64565b600090505b92915050565b60007f01ffc9a7000000000000000000000000000000000000000000000000000000007bffffffffffffffffffffffffffffffffffffffffffffffffffffffff1916827bffffffffffffffffffffffffffffffffffffffffffffffffffffffff1916149050919050565b611cdf838383612095565b505050565b505050565b606060006002836002611cfc919061331a565b611d0691906127fc565b67ffffffffffffffff811115611d1f57611d1e613374565b5b6040519080825280601f01601f191660200182016040528015611d515781602001600182028036833780820191505090505b5090507f300000000000000000000000000000000000000000000000000000000000000081600081518110611d8957611d886133a3565b5b60200101907effffffffffffffffffffffffffffffffffffffffffffffffffffffffffffff1916908160001a9053507f780000000000000000000000000000000000000000000000000000000000000081600181518110611ded57611dec6133a3565b5b60200101907effffffffffffffffffffffffffffffffffffffffffffffffffffffffffffff1916908160001a90535060006001846002611e2d919061331a565b611e3791906127fc565b90505b6001811115611ed7577f3031323334353637383961626364656600000000000000000000000000000000600f861660108110611e7957611e786133a3565b5b1a60f81b828281518110611e9057611e8f6133a3565b5b60200101907effffffffffffffffffffffffffffffffffffffffffffffffffffffffffffff1916908160001a905350600485901c945080611ed0906133d2565b9050611e3a565b5060008414611f1b576040517f08c379a0000000000000000000000000000000000000000000000000000000008152600401611f1290613448565b60405180910390fd5b8091505092915050565b611f2f8282610cae565b1561200257600080600084815260200190815260200160002060000160008373ffffffffffffffffffffffffffffffffffffffff1673ffffffffffffffffffffffffffffffffffffffff16815260200190815260200160002060006101000a81548160ff021916908315150217905550611fa7611164565b73ffffffffffffffffffffffffffffffffffffffff168173ffffffffffffffffffffffffffffffffffffffff16837ff6391f5c32d9c69d2a47ea670b442974b53935d1edc7fd64eb21e047a839171b60405160405180910390a45b5050565b600061202e836000018373ffffffffffffffffffffffffffffffffffffffff1660001b6120ed565b905092915050565b600082600001828154811061204e5761204d6133a3565b5b9060005260206000200154905092915050565b600081600001805490509050919050565b600080836001016000848152602001908152602001600020541415905092915050565b6120a0838383612201565b6120a8610a9a565b156120e8576040517f08c379a00000000000000000000000000000000000000000000000000000000081526004016120df906134da565b60405180910390fd5b505050565b600080836001016000848152602001908152602001600020549050600081146121f557600060018261211f919061327a565b9050600060018660000180549050612137919061327a565b90508181146121a6576000866000018281548110612158576121576133a3565b5b906000526020600020015490508087600001848154811061217c5761217b6133a3565b5b90600052602060002001819055508387600101600083815260200190815260200160002081905550505b856000018054806121ba576121b96134fa565b5b6001900381819060005260206000200160009055905585600101600086815260200190815260200160002060009055600193505050506121fb565b60009150505b92915050565b505050565b600080fd5b60007fffffffff0000000000000000000000000000000000000000000000000000000082169050919050565b6122408161220b565b811461224b57600080fd5b50565b60008135905061225d81612237565b92915050565b60006020828403121561227957612278612206565b5b60006122878482850161224e565b91505092915050565b60008115159050919050565b6122a581612290565b82525050565b60006020820190506122c0600083018461229c565b92915050565b600081519050919050565b600082825260208201905092915050565b60005b838110156123005780820151818401526020810190506122e5565b8381111561230f576000848401525b50505050565b6000601f19601f8301169050919050565b6000612331826122c6565b61233b81856122d1565b935061234b8185602086016122e2565b61235481612315565b840191505092915050565b600060208201905081810360008301526123798184612326565b905092915050565b600073ffffffffffffffffffffffffffffffffffffffff82169050919050565b60006123ac82612381565b9050919050565b6123bc816123a1565b81146123c757600080fd5b50565b6000813590506123d9816123b3565b92915050565b6000819050919050565b6123f2816123df565b81146123fd57600080fd5b50565b60008135905061240f816123e9565b92915050565b6000806040838503121561242c5761242b612206565b5b600061243a858286016123ca565b925050602061244b85828601612400565b9150509250929050565b61245e816123df565b82525050565b60006020820190506124796000830184612455565b92915050565b60008060006060848603121561249857612497612206565b5b60006124a6868287016123ca565b93505060206124b7868287016123ca565b92505060406124c886828701612400565b9150509250925092565b6000819050919050565b6124e5816124d2565b81146124f057600080fd5b50565b600081359050612502816124dc565b92915050565b60006020828403121561251e5761251d612206565b5b600061252c848285016124f3565b91505092915050565b61253e816124d2565b82525050565b60006020820190506125596000830184612535565b92915050565b6000806040838503121561257657612575612206565b5b6000612584858286016124f3565b9250506020612595858286016123ca565b9150509250929050565b600060ff82169050919050565b6125b58161259f565b82525050565b60006020820190506125d060008301846125ac565b92915050565b6000602082840312156125ec576125eb612206565b5b60006125fa84828501612400565b91505092915050565b60006020828403121561261957612618612206565b5b6000612627848285016123ca565b91505092915050565b6000806040838503121561264757612646612206565b5b6000612655858286016124f3565b925050602061266685828601612400565b9150509250929050565b612679816123a1565b82525050565b60006020820190506126946000830184612670565b92915050565b600080604083850312156126b1576126b0612206565b5b60006126bf858286016123ca565b92505060206126d0858286016123ca565b9150509250929050565b7f4e487b7100000000000000000000000000000000000000000000000000000000600052602260045260246000fd5b6000600282049050600182168061272157607f821691505b60208210811415612735576127346126da565b5b50919050565b7f416363657373436f6e74726f6c3a2063616e206f6e6c792072656e6f756e636560008201527f20726f6c657320666f722073656c660000000000000000000000000000000000602082015250565b6000612797602f836122d1565b91506127a28261273b565b604082019050919050565b600060208201905081810360008301526127c68161278a565b9050919050565b7f4e487b7100000000000000000000000000000000000000000000000000000000600052601160045260246000fd5b6000612807826123df565b9150612812836123df565b9250827fffffffffffffffffffffffffffffffffffffffffffffffffffffffffffffffff03821115612847576128466127cd565b5b828201905092915050565b7f45524332305072657365744d696e7465725061757365723a206d75737420686160008201527f76652070617573657220726f6c6520746f20756e706175736500000000000000602082015250565b60006128ae6039836122d1565b91506128b982612852565b604082019050919050565b600060208201905081810360008301526128dd816128a1565b9050919050565b7f45524332305072657365744d696e7465725061757365723a206d75737420686160008201527f7665206d696e74657220726f6c6520746f206d696e7400000000000000000000602082015250565b60006129406036836122d1565b915061294b826128e4565b604082019050919050565b6000602082019050818103600083015261296f81612933565b9050919050565b7f45524332304361707065643a2063617020657863656564656400000000000000600082015250565b60006129ac6019836122d1565b91506129b782612976565b602082019050919050565b600060208201905081810360008301526129db8161299f565b9050919050565b7f45524332304361707065643a206d7573742068617665204341505f4348414e4760008201527f455220726f6c6520746f206361686e6765207468652063617000000000000000602082015250565b6000612a3e6039836122d1565b9150612a49826129e2565b604082019050919050565b60006020820190508181036000830152612a6d81612a31565b9050919050565b7f45524332304361707065643a206e6577206361702068617320746f206265206d60008201527f6f7265207468616e207468652063757272656e74206361700000000000000000602082015250565b6000612ad06038836122d1565b9150612adb82612a74565b604082019050919050565b60006020820190508181036000830152612aff81612ac3565b9050919050565b7f45524332305072657365744d696e7465725061757365723a206d75737420686160008201527f76652070617573657220726f6c6520746f207061757365000000000000000000602082015250565b6000612b626037836122d1565b9150612b6d82612b06565b604082019050919050565b60006020820190508181036000830152612b9181612b55565b9050919050565b7f45524332303a2064656372656173656420616c6c6f77616e63652062656c6f7760008201527f207a65726f000000000000000000000000000000000000000000000000000000602082015250565b6000612bf46025836122d1565b9150612bff82612b98565b604082019050919050565b60006020820190508181036000830152612c2381612be7565b9050919050565b7f45524332303a20617070726f76652066726f6d20746865207a65726f2061646460008201527f7265737300000000000000000000000000000000000000000000000000000000602082015250565b6000612c866024836122d1565b9150612c9182612c2a565b604082019050919050565b60006020820190508181036000830152612cb581612c79565b9050919050565b7f45524332303a20617070726f766520746f20746865207a65726f20616464726560008201527f7373000000000000000000000000000000000000000000000000000000000000602082015250565b6000612d186022836122d1565b9150612d2382612cbc565b604082019050919050565b60006020820190508181036000830152612d4781612d0b565b9050919050565b7f45524332303a20696e73756666696369656e7420616c6c6f77616e6365000000600082015250565b6000612d84601d836122d1565b9150612d8f82612d4e565b602082019050919050565b60006020820190508181036000830152612db381612d77565b9050919050565b7f45524332303a207472616e736665722066726f6d20746865207a65726f20616460008201527f6472657373000000000000000000000000000000000000000000000000000000602082015250565b6000612e166025836122d1565b9150612e2182612dba565b604082019050919050565b60006020820190508181036000830152612e4581612e09565b9050919050565b7f45524332303a207472616e7366657220746f20746865207a65726f206164647260008201527f6573730000000000000000000000000000000000000000000000000000000000602082015250565b6000612ea86023836122d1565b9150612eb382612e4c565b604082019050919050565b60006020820190508181036000830152612ed781612e9b565b9050919050565b7f45524332303a207472616e7366657220616d6f756e742065786365656473206260008201527f616c616e63650000000000000000000000000000000000000000000000000000602082015250565b6000612f3a6026836122d1565b9150612f4582612ede565b604082019050919050565b60006020820190508181036000830152612f6981612f2d565b9050919050565b600081905092915050565b7f416363657373436f6e74726f6c3a206163636f756e7420000000000000000000600082015250565b6000612fb1601783612f70565b9150612fbc82612f7b565b601782019050919050565b6000612fd2826122c6565b612fdc8185612f70565b9350612fec8185602086016122e2565b80840191505092915050565b7f206973206d697373696e6720726f6c6520000000000000000000000000000000600082015250565b600061302e601183612f70565b915061303982612ff8565b601182019050919050565b600061304f82612fa4565b915061305b8285612fc7565b915061306682613021565b91506130728284612fc7565b91508190509392505050565b7f5061757361626c653a206e6f7420706175736564000000000000000000000000600082015250565b60006130b46014836122d1565b91506130bf8261307e565b602082019050919050565b600060208201905081810360008301526130e3816130a7565b9050919050565b7f45524332303a206d696e7420746f20746865207a65726f206164647265737300600082015250565b6000613120601f836122d1565b915061312b826130ea565b602082019050919050565b6000602082019050818103600083015261314f81613113565b9050919050565b7f45524332303a206275726e2066726f6d20746865207a65726f2061646472657360008201527f7300000000000000000000000000000000000000000000000000000000000000602082015250565b60006131b26021836122d1565b91506131bd82613156565b604082019050919050565b600060208201905081810360008301526131e1816131a5565b9050919050565b7f45524332303a206275726e20616d6f756e7420657863656564732062616c616e60008201527f6365000000000000000000000000000000000000000000000000000000000000602082015250565b60006132446022836122d1565b915061324f826131e8565b604082019050919050565b6000602082019050818103600083015261327381613237565b9050919050565b6000613285826123df565b9150613290836123df565b9250828210156132a3576132a26127cd565b5b828203905092915050565b7f5061757361626c653a2070617573656400000000000000000000000000000000600082015250565b60006132e46010836122d1565b91506132ef826132ae565b602082019050919050565b60006020820190508181036000830152613313816132d7565b9050919050565b6000613325826123df565b9150613330836123df565b9250817fffffffffffffffffffffffffffffffffffffffffffffffffffffffffffffffff0483118215151615613369576133686127cd565b5b828202905092915050565b7f4e487b7100000000000000000000000000000000000000000000000000000000600052604160045260246000fd5b7f4e487b7100000000000000000000000000000000000000000000000000000000600052603260045260246000fd5b60006133dd826123df565b915060008214156133f1576133f06127cd565b5b600182039050919050565b7f537472696e67733a20686578206c656e67746820696e73756666696369656e74600082015250565b60006134326020836122d1565b915061343d826133fc565b602082019050919050565b6000602082019050818103600083015261346181613425565b9050919050565b7f45524332305061757361626c653a20746f6b656e207472616e7366657220776860008201527f696c652070617573656400000000000000000000000000000000000000000000602082015250565b60006134c4602a836122d1565b91506134cf82613468565b604082019050919050565b600060208201905081810360008301526134f3816134b7565b9050919050565b7f4e487b7100000000000000000000000000000000000000000000000000000000600052603160045260246000fdfea264697066735822122005201f37e08de4068cfb2008553f9c45df6132c7b98d9a6fef10ab9a4fa16c2d64736f6c634300080c0033",
  "immutableReferences": {},
  "source": "// SPDX-License-Identifier: MIT\r\n// OpenZeppelin Contracts (last updated v4.5.0) (token/ERC20/presets/ERC20PresetMinterPauser.sol)\r\n\r\npragma solidity ^0.8.0;\r\n\r\nimport \"../node_modules/@openzeppelin/contracts/token/ERC20/ERC20.sol\";\r\nimport \"../node_modules/@openzeppelin/contracts/token/ERC20/extensions/ERC20Burnable.sol\";\r\nimport \"../node_modules/@openzeppelin/contracts/token/ERC20/extensions/ERC20Pausable.sol\";\r\nimport \"../node_modules/@openzeppelin/contracts/access/AccessControlEnumerable.sol\";\r\nimport \"../node_modules/@openzeppelin/contracts/utils/Context.sol\";\r\n\r\n// abstract contract ERC20Capped is ERC20 {\r\n//     uint256 private immutable _cap;\r\n\r\n//     /**\r\n//      * @dev Sets the value of the `cap`. This value is immutable, it can only be\r\n//      * set once during construction.\r\n//      */\r\n//     constructor(uint256 cap_) {\r\n//         require(cap_ > 0, \"ERC20Capped: cap is 0\");\r\n//         _cap = cap_;\r\n//     }\r\n\r\n//     /**\r\n//      * @dev Returns the cap on the token's total supply.\r\n//      */\r\n//     function cap() public view virtual returns (uint256) {\r\n//         return _cap;\r\n//     }\r\n\r\n//     /**\r\n//      * @dev See {ERC20-_mint}.\r\n//      */\r\n//     function _mint(address account, uint256 amount) internal virtual override {\r\n//         require(ERC20.totalSupply() + amount <= cap(), \"ERC20Capped: cap exceeded\");\r\n//         super._mint(account, amount);\r\n//     }\r\n// }\r\n\r\n/**\r\n * @dev {ERC20} token, including:\r\n *\r\n *  - ability for holders to burn (destroy) their tokens\r\n *  - a minter role that allows for token minting (creation)\r\n *  - a pauser role that allows to stop all token transfers\r\n *\r\n * This contract uses {AccessControl} to lock permissioned functions using the\r\n * different roles - head to its documentation for details.\r\n *\r\n * The account that deploys the contract will be granted the minter and pauser\r\n * roles, as well as the default admin role, which will let it grant both minter\r\n * and pauser roles to other accounts.\r\n *\r\n * _Deprecated in favor of https://wizard.openzeppelin.com/[Contracts Wizard]._\r\n */\r\ncontract Task is Context, AccessControlEnumerable, ERC20Burnable, ERC20Pausable {\r\n    bytes32 public constant MINTER_ROLE = keccak256(\"MINTER_ROLE\");\r\n    bytes32 public constant PAUSER_ROLE = keccak256(\"PAUSER_ROLE\");\r\n    bytes32 public constant CAP_CHANGER_ROLE = keccak256(\"CAP_CHANGER_ROLE\");\r\n\r\n    uint256 private _cap;\r\n    /**\r\n     * @dev Grants `DEFAULT_ADMIN_ROLE`, `MINTER_ROLE` and `PAUSER_ROLE` to the\r\n     * account that deploys the contract.\r\n     *\r\n     * See {ERC20-constructor}.\r\n     */\r\n    constructor(string memory name, string memory symbol, uint256 cap_) ERC20(name, symbol) {\r\n        _setupRole(DEFAULT_ADMIN_ROLE, _msgSender());\r\n\r\n        _setupRole(MINTER_ROLE, _msgSender());\r\n        _setupRole(PAUSER_ROLE, _msgSender());\r\n        _setupRole(CAP_CHANGER_ROLE, _msgSender());\r\n\r\n        require(cap_ > 0, \"ERC20Capped: cap is 0\");\r\n        _cap = cap_;        \r\n    }\r\n    \r\n    /**\r\n     * @dev Returns the cap on the token's total supply.\r\n     */\r\n    function cap() public view virtual returns (uint256) {\r\n        return _cap;\r\n    }\r\n    function changeCap(uint256 newCap) public returns (uint256) {\r\n        require(hasRole(CAP_CHANGER_ROLE, _msgSender()), \"ERC20Capped: must have CAP_CHANGER role to cahnge the cap\");\r\n        require(newCap > cap(), \"ERC20Capped: new cap has to be more than the current cap\");\r\n        _cap = newCap;\r\n    }\r\n    /**\r\n     * @dev Creates `amount` new tokens for `to`.\r\n     *\r\n     * See {ERC20-_mint}.\r\n     *\r\n     * Requirements:\r\n     *\r\n     * - the caller must have the `MINTER_ROLE`.\r\n     */\r\n    function mint(address to, uint256 amount) public virtual {\r\n        require(hasRole(MINTER_ROLE, _msgSender()), \"ERC20PresetMinterPauser: must have minter role to mint\");\r\n        require(ERC20.totalSupply() + amount <= cap(), \"ERC20Capped: cap exceeded\");\r\n        _mint(to, amount);\r\n    }    \r\n\r\n    /**\r\n     * @dev Pauses all token transfers.\r\n     *\r\n     * See {ERC20Pausable} and {Pausable-_pause}.\r\n     *\r\n     * Requirements:\r\n     *\r\n     * - the caller must have the `PAUSER_ROLE`.\r\n     */\r\n    function pause() public virtual {\r\n        require(hasRole(PAUSER_ROLE, _msgSender()), \"ERC20PresetMinterPauser: must have pauser role to pause\");\r\n        _pause();\r\n    }\r\n\r\n    /**\r\n     * @dev Unpauses all token transfers.\r\n     *\r\n     * See {ERC20Pausable} and {Pausable-_unpause}.\r\n     *\r\n     * Requirements:\r\n     *\r\n     * - the caller must have the `PAUSER_ROLE`.\r\n     */\r\n    function unpause() public virtual {\r\n        require(hasRole(PAUSER_ROLE, _msgSender()), \"ERC20PresetMinterPauser: must have pauser role to unpause\");\r\n        _unpause();\r\n    }\r\n\r\n    function _beforeTokenTransfer(\r\n        address from,\r\n        address to,\r\n        uint256 amount\r\n    ) internal virtual override(ERC20, ERC20Pausable) {\r\n        super._beforeTokenTransfer(from, to, amount);\r\n    }\r\n}",
  "sourcePath": "C:\\\\eth_sandbox\\token\\contracts\\task.sol",
  "compiler": {
    "name": "solc",
    "version": "0.8.12+commit.f00d7308.Emscripten.clang"
  },
  "schemaVersion": "3.4.5",
  "updatedAt": "2022-03-04T17:58:09.457Z",
  "networkType": "ethereum",
  "devdoc": {
    "details": "{ERC20} token, including:  - ability for holders to burn (destroy) their tokens  - a minter role that allows for token minting (creation)  - a pauser role that allows to stop all token transfers This contract uses {AccessControl} to lock permissioned functions using the different roles - head to its documentation for details. The account that deploys the contract will be granted the minter and pauser roles, as well as the default admin role, which will let it grant both minter and pauser roles to other accounts. _Deprecated in favor of https://wizard.openzeppelin.com/[Contracts Wizard]._",
    "kind": "dev",
    "methods": {
      "allowance(address,address)": {
        "details": "See {IERC20-allowance}."
      },
      "approve(address,uint256)": {
        "details": "See {IERC20-approve}. NOTE: If `amount` is the maximum `uint256`, the allowance is not updated on `transferFrom`. This is semantically equivalent to an infinite approval. Requirements: - `spender` cannot be the zero address."
      },
      "balanceOf(address)": {
        "details": "See {IERC20-balanceOf}."
      },
      "burn(uint256)": {
        "details": "Destroys `amount` tokens from the caller. See {ERC20-_burn}."
      },
      "burnFrom(address,uint256)": {
        "details": "Destroys `amount` tokens from `account`, deducting from the caller's allowance. See {ERC20-_burn} and {ERC20-allowance}. Requirements: - the caller must have allowance for ``accounts``'s tokens of at least `amount`."
      },
      "cap()": {
        "details": "Returns the cap on the token's total supply."
      },
      "constructor": {
        "details": "Grants `DEFAULT_ADMIN_ROLE`, `MINTER_ROLE` and `PAUSER_ROLE` to the account that deploys the contract. See {ERC20-constructor}."
      },
      "decimals()": {
        "details": "Returns the number of decimals used to get its user representation. For example, if `decimals` equals `2`, a balance of `505` tokens should be displayed to a user as `5.05` (`505 / 10 ** 2`). Tokens usually opt for a value of 18, imitating the relationship between Ether and Wei. This is the value {ERC20} uses, unless this function is overridden; NOTE: This information is only used for _display_ purposes: it in no way affects any of the arithmetic of the contract, including {IERC20-balanceOf} and {IERC20-transfer}."
      },
      "decreaseAllowance(address,uint256)": {
        "details": "Atomically decreases the allowance granted to `spender` by the caller. This is an alternative to {approve} that can be used as a mitigation for problems described in {IERC20-approve}. Emits an {Approval} event indicating the updated allowance. Requirements: - `spender` cannot be the zero address. - `spender` must have allowance for the caller of at least `subtractedValue`."
      },
      "getRoleAdmin(bytes32)": {
        "details": "Returns the admin role that controls `role`. See {grantRole} and {revokeRole}. To change a role's admin, use {_setRoleAdmin}."
      },
      "getRoleMember(bytes32,uint256)": {
        "details": "Returns one of the accounts that have `role`. `index` must be a value between 0 and {getRoleMemberCount}, non-inclusive. Role bearers are not sorted in any particular way, and their ordering may change at any point. WARNING: When using {getRoleMember} and {getRoleMemberCount}, make sure you perform all queries on the same block. See the following https://forum.openzeppelin.com/t/iterating-over-elements-on-enumerableset-in-openzeppelin-contracts/2296[forum post] for more information."
      },
      "getRoleMemberCount(bytes32)": {
        "details": "Returns the number of accounts that have `role`. Can be used together with {getRoleMember} to enumerate all bearers of a role."
      },
      "grantRole(bytes32,address)": {
        "details": "Grants `role` to `account`. If `account` had not been already granted `role`, emits a {RoleGranted} event. Requirements: - the caller must have ``role``'s admin role."
      },
      "hasRole(bytes32,address)": {
        "details": "Returns `true` if `account` has been granted `role`."
      },
      "increaseAllowance(address,uint256)": {
        "details": "Atomically increases the allowance granted to `spender` by the caller. This is an alternative to {approve} that can be used as a mitigation for problems described in {IERC20-approve}. Emits an {Approval} event indicating the updated allowance. Requirements: - `spender` cannot be the zero address."
      },
      "mint(address,uint256)": {
        "details": "Creates `amount` new tokens for `to`. See {ERC20-_mint}. Requirements: - the caller must have the `MINTER_ROLE`."
      },
      "name()": {
        "details": "Returns the name of the token."
      },
      "pause()": {
        "details": "Pauses all token transfers. See {ERC20Pausable} and {Pausable-_pause}. Requirements: - the caller must have the `PAUSER_ROLE`."
      },
      "paused()": {
        "details": "Returns true if the contract is paused, and false otherwise."
      },
      "renounceRole(bytes32,address)": {
        "details": "Revokes `role` from the calling account. Roles are often managed via {grantRole} and {revokeRole}: this function's purpose is to provide a mechanism for accounts to lose their privileges if they are compromised (such as when a trusted device is misplaced). If the calling account had been revoked `role`, emits a {RoleRevoked} event. Requirements: - the caller must be `account`."
      },
      "revokeRole(bytes32,address)": {
        "details": "Revokes `role` from `account`. If `account` had been granted `role`, emits a {RoleRevoked} event. Requirements: - the caller must have ``role``'s admin role."
      },
      "supportsInterface(bytes4)": {
        "details": "See {IERC165-supportsInterface}."
      },
      "symbol()": {
        "details": "Returns the symbol of the token, usually a shorter version of the name."
      },
      "totalSupply()": {
        "details": "See {IERC20-totalSupply}."
      },
      "transfer(address,uint256)": {
        "details": "See {IERC20-transfer}. Requirements: - `to` cannot be the zero address. - the caller must have a balance of at least `amount`."
      },
      "transferFrom(address,address,uint256)": {
        "details": "See {IERC20-transferFrom}. Emits an {Approval} event indicating the updated allowance. This is not required by the EIP. See the note at the beginning of {ERC20}. NOTE: Does not update the allowance if the current allowance is the maximum `uint256`. Requirements: - `from` and `to` cannot be the zero address. - `from` must have a balance of at least `amount`. - the caller must have allowance for ``from``'s tokens of at least `amount`."
      },
      "unpause()": {
        "details": "Unpauses all token transfers. See {ERC20Pausable} and {Pausable-_unpause}. Requirements: - the caller must have the `PAUSER_ROLE`."
      }
    },
    "version": 1
  },
  "userdoc": {
    "kind": "user",
    "methods": {},
    "version": 1
  }
}