{
  "contractName": "Overflow",
  "abi": [
    {
      "inputs": [],
      "name": "contribute",
      "outputs": [],
      "stateMutability": "payable",
      "type": "function",
      "payable": true
    },
    {
      "inputs": [],
      "name": "getBalance",
      "outputs": [
        {
          "internalType": "uint256",
          "name": "",
          "type": "uint256"
        }
      ],
      "stateMutability": "view",
      "type": "function",
      "constant": true
    },
    {
      "inputs": [
        {
          "internalType": "address[]",
          "name": "_receivers",
          "type": "address[]"
        },
        {
          "internalType": "uint256",
          "name": "_value",
          "type": "uint256"
        }
      ],
      "name": "batchSend",
      "outputs": [],
      "stateMutability": "nonpayable",
      "type": "function"
    }
  ],
  "bytecode": "0x608060405234801561001057600080fd5b5061039c806100206000396000f3fe6080604052600436106100345760003560e01c806312065fe014610039578063aa2f522014610064578063d7bb99ba14610133575b600080fd5b34801561004557600080fd5b5061004e61013d565b6040518082815260200191505060405180910390f35b34801561007057600080fd5b506101316004803603604081101561008757600080fd5b81019080803590602001906401000000008111156100a457600080fd5b8201836020820111156100b657600080fd5b803590602001918460208302840111640100000000831117156100d857600080fd5b919080806020026020016040519081016040528093929190818152602001838360200280828437600081840152601f19601f82011690508083019250505050505050919291929080359060200190929190505050610183565b005b61013b610321565b005b60008060003373ffffffffffffffffffffffffffffffffffffffff1673ffffffffffffffffffffffffffffffffffffffff16815260200190815260200160002054905090565b6000818351029050806000803373ffffffffffffffffffffffffffffffffffffffff1673ffffffffffffffffffffffffffffffffffffffff1681526020019081526020016000205410156101d657600080fd5b806000803373ffffffffffffffffffffffffffffffffffffffff1673ffffffffffffffffffffffffffffffffffffffff16815260200190815260200160002054036000803373ffffffffffffffffffffffffffffffffffffffff1673ffffffffffffffffffffffffffffffffffffffff1681526020019081526020016000208190555060005b835181101561031b578260008086848151811061027557fe5b602002602001015173ffffffffffffffffffffffffffffffffffffffff1673ffffffffffffffffffffffffffffffffffffffff16815260200190815260200160002054016000808684815181106102c857fe5b602002602001015173ffffffffffffffffffffffffffffffffffffffff1673ffffffffffffffffffffffffffffffffffffffff16815260200190815260200160002081905550808060010191505061025c565b50505050565b346000803373ffffffffffffffffffffffffffffffffffffffff1673ffffffffffffffffffffffffffffffffffffffff1681526020019081526020016000208190555056fea2646970667358221220be5f92c667ddb14b5bf54cf34c79d6ee18d354eb96712955b9a9b2eeb7e06ce164736f6c63430007060033",
  "immutableReferences": {},
  "source": "pragma solidity ^0.7.6;\r\n\r\n// vulnerable to batchOverflow error\r\ncontract Overflow {\r\n  \r\n  mapping (address=>uint) balances;\r\n\r\n  function contribute() payable public{\r\n    // 1 wei = 1 token\r\n    balances[msg.sender] = msg.value;\r\n  }\r\n\r\n  function getBalance() public view returns (uint) {\r\n    return balances[msg.sender];\r\n  }\r\n\r\n  function batchSend(address[] memory _receivers, uint _value) public {\r\n    // this line overflows\r\n    uint total = _receivers.length * _value;\r\n    // this check is worthless if total is owerflown (total == 0)\r\n    require(balances[msg.sender] >= total);\r\n\r\n    balances[msg.sender] = balances[msg.sender] - total;\r\n\r\n    for (uint256 i = 0; i < _receivers.length; i++) {\r\n      balances[_receivers[i]] = balances[_receivers[i]] + _value;\r\n    }\r\n  }\r\n}\r\n\r\n// custom SafeMath\r\nlibrary SafeMath {\r\n\r\n  function mul(uint256 a, uint256 b) internal pure returns (uint256) {\r\n    uint256 c = a * b;\r\n    assert(a == 0 || c / a == b);\r\n    return c;\r\n  }\r\n\r\n  function div(uint256 a, uint256 b) internal pure returns (uint256) {\r\n    // assert(b > 0); // Solidity automatically throws when dividing by 0\r\n    uint256 c = a / b;\r\n    //assert(a == b * c + a % b); // There is no case in which this doesn't hold\r\n    return c;\r\n  }\r\n\r\n  function sub(uint256 a, uint256 b) internal pure returns (uint256) {\r\n    assert(b <= a);\r\n    return a - b;\r\n  }\r\n\r\n  function add(uint256 a, uint256 b) internal pure returns (uint256) {\r\n    uint256 c = a + b;\r\n    assert(c >= a);\r\n    return c;\r\n  }\r\n}\r\n\r\n// not vulnerable to batchOverflow error\r\ncontract Overflowfixed {\r\n  using SafeMath for uint256;\r\n  \r\n  mapping (address=>uint) balances;\r\n\r\n  function contribute() payable public{\r\n    // 1 wei = 1 token\r\n    balances[msg.sender] = msg.value;\r\n  }\r\n\r\n  function getBalance() public view returns (uint) {\r\n    return balances[msg.sender];\r\n  }\r\n\r\n  function batchSend(address[] memory _receivers, uint _value) public {   \r\n    uint total = _receivers.length.mul(_value);\r\n    require(balances[msg.sender] >= total);\r\n\r\n    balances[msg.sender] = balances[msg.sender].sub(total);\r\n\r\n    for (uint256 i = 0; i < _receivers.length; i++) {\r\n      balances[_receivers[i]] = balances[_receivers[i]].add(_value);\r\n    }\r\n  }\r\n}\r\n\r\n",
  "sourcePath": "C:\\Кодинг\\eth_sandbox\\vulnerabilities\\contracts\\overflow.sol",
  "compiler": {
    "name": "solc",
    "version": "0.7.6+commit.7338295f.Emscripten.clang"
  },
  "schemaVersion": "3.4.5",
  "updatedAt": "2022-03-09T14:52:53.560Z",
  "networkType": "ethereum",
  "devdoc": {
    "kind": "dev",
    "methods": {},
    "version": 1
  },
  "userdoc": {
    "kind": "user",
    "methods": {},
    "version": 1
  }
}