{
  "contractName": "Dogs",
  "abi": [
    {
      "constant": true,
      "inputs": [],
      "name": "_initialized",
      "outputs": [
        {
          "name": "",
          "type": "bool"
        }
      ],
      "payable": false,
      "stateMutability": "view",
      "type": "function"
    },
    {
      "constant": true,
      "inputs": [],
      "name": "owner",
      "outputs": [
        {
          "name": "",
          "type": "address"
        }
      ],
      "payable": false,
      "stateMutability": "view",
      "type": "function"
    },
    {
      "inputs": [],
      "payable": false,
      "stateMutability": "nonpayable",
      "type": "constructor"
    },
    {
      "constant": true,
      "inputs": [],
      "name": "getNumberOfDogs",
      "outputs": [
        {
          "name": "",
          "type": "uint256"
        }
      ],
      "payable": false,
      "stateMutability": "view",
      "type": "function"
    },
    {
      "constant": false,
      "inputs": [
        {
          "name": "toSet",
          "type": "uint256"
        }
      ],
      "name": "setNumberOfDogs",
      "outputs": [],
      "payable": false,
      "stateMutability": "nonpayable",
      "type": "function"
    }
  ],
  "bytecode": "0x608060405234801561001057600080fd5b5033600560006101000a81548173ffffffffffffffffffffffffffffffffffffffff021916908373ffffffffffffffffffffffffffffffffffffffff160217905550610216806100616000396000f3fe608060405234801561001057600080fd5b5060043610610069576000357c01000000000000000000000000000000000000000000000000000000009004806314861b221461006e5780631680a5ed1461009c5780633072cf60146100ba5780638da5cb5b146100dc575b600080fd5b61009a6004803603602081101561008457600080fd5b8101908080359060200190929190505050610126565b005b6100a461016c565b6040518082815260200191505060405180910390f35b6100c26101b1565b604051808215151515815260200191505060405180910390f35b6100e46101c4565b604051808273ffffffffffffffffffffffffffffffffffffffff1673ffffffffffffffffffffffffffffffffffffffff16815260200191505060405180910390f35b80600060405180807f446f677300000000000000000000000000000000000000000000000000000000815250600401905090815260200160405180910390208190555050565b60008060405180807f446f6773000000000000000000000000000000000000000000000000000000008152506004019050908152602001604051809103902054905090565b600560149054906101000a900460ff1681565b600560009054906101000a900473ffffffffffffffffffffffffffffffffffffffff168156fea165627a7a72305820a219e2b3195bf0068fa9b3c470cbde361809074dd4ad1372f3e89910d4f11ae60029",
  "source": "pragma solidity ^0.5.1;\r\n\r\nimport \"./Storage.sol\";\r\n\r\ncontract Dogs is Storage {\r\n\r\n    modifier onlyOwner() {\r\n      require(msg.sender == owner);\r\n      _;\r\n    }\r\n\r\n    constructor() public {\r\n      owner = msg.sender;\r\n    }\r\n\r\n    function getNumberOfDogs() public view returns(uint256) {\r\n        return _uintStorage[\"Dogs\"];\r\n    }\r\n\r\n    function setNumberOfDogs(uint256 toSet) public {\r\n        _uintStorage[\"Dogs\"] = toSet;\r\n    }\r\n}",
  "sourcePath": "C:\\Кодинг\\eth_sandbox\\full_proxy\\contracts\\Dogs.sol",
  "compiler": {
    "name": "solc",
    "version": "0.5.2+commit.1df8f40c.Emscripten.clang"
  },
  "schemaVersion": "3.4.5",
  "updatedAt": "2022-03-14T10:44:09.681Z",
  "networkType": "ethereum",
  "devdoc": {
    "methods": {}
  },
  "userdoc": {
    "methods": {}
  }
}