{
  "contractName": "Storage",
  "abi": [
    {
      "constant": true,
      "inputs": [],
      "name": "_initialized",
      "outputs": [
        {
          "name": "",
          "type": "bool"
        }
      ],
      "payable": false,
      "stateMutability": "view",
      "type": "function"
    },
    {
      "constant": true,
      "inputs": [],
      "name": "owner",
      "outputs": [
        {
          "name": "",
          "type": "address"
        }
      ],
      "payable": false,
      "stateMutability": "view",
      "type": "function"
    }
  ],
  "bytecode": "0x608060405234801561001057600080fd5b50610121806100206000396000f3fe6080604052348015600f57600080fd5b5060043610604f576000357c0100000000000000000000000000000000000000000000000000000000900480633072cf601460545780638da5cb5b146074575b600080fd5b605a60bc565b604051808215151515815260200191505060405180910390f35b607a60cf565b604051808273ffffffffffffffffffffffffffffffffffffffff1673ffffffffffffffffffffffffffffffffffffffff16815260200191505060405180910390f35b600560149054906101000a900460ff1681565b600560009054906101000a900473ffffffffffffffffffffffffffffffffffffffff168156fea165627a7a72305820046edc7f622bcc4271e14251b7ad32a36c32d02d97dd939cc66a66e415bfa7120029",
  "source": "pragma solidity ^0.5.1;\r\n\r\ncontract Storage {\r\n    mapping (string=>uint256) _uintStorage;\r\n    mapping (string=>address) _addressStorage;\r\n    mapping (string=>bool) _boolStorage;\r\n    mapping (string=>string) _stringStorage;\r\n    mapping (string=>bytes4) _bytesStorage;\r\n    address public owner;\r\n    bool public _initialized;    \r\n}",
  "sourcePath": "C:\\Кодинг\\eth_sandbox\\full_proxy\\contracts\\Storage.sol",
  "compiler": {
    "name": "solc",
    "version": "0.5.2+commit.1df8f40c.Emscripten.clang"
  },
  "schemaVersion": "3.4.5",
  "updatedAt": "2022-03-14T10:44:07.649Z",
  "devdoc": {
    "methods": {}
  },
  "userdoc": {
    "methods": {}
  }
}