{
  "contractName": "Kittycontract",
  "abi": [
    {
      "anonymous": false,
      "inputs": [
        {
          "indexed": true,
          "internalType": "address",
          "name": "owner",
          "type": "address"
        },
        {
          "indexed": true,
          "internalType": "address",
          "name": "approved",
          "type": "address"
        },
        {
          "indexed": true,
          "internalType": "uint256",
          "name": "tokenId",
          "type": "uint256"
        }
      ],
      "name": "Approval",
      "type": "event"
    },
    {
      "anonymous": false,
      "inputs": [
        {
          "indexed": true,
          "internalType": "address",
          "name": "owner",
          "type": "address"
        },
        {
          "indexed": true,
          "internalType": "address",
          "name": "operator",
          "type": "address"
        },
        {
          "indexed": false,
          "internalType": "bool",
          "name": "approved",
          "type": "bool"
        }
      ],
      "name": "ApprovalForAll",
      "type": "event"
    },
    {
      "anonymous": false,
      "inputs": [
        {
          "indexed": true,
          "internalType": "address",
          "name": "previousOwner",
          "type": "address"
        },
        {
          "indexed": true,
          "internalType": "address",
          "name": "newOwner",
          "type": "address"
        }
      ],
      "name": "OwnershipTransferred",
      "type": "event"
    },
    {
      "anonymous": false,
      "inputs": [
        {
          "indexed": true,
          "internalType": "address",
          "name": "from",
          "type": "address"
        },
        {
          "indexed": true,
          "internalType": "address",
          "name": "to",
          "type": "address"
        },
        {
          "indexed": true,
          "internalType": "uint256",
          "name": "tokenId",
          "type": "uint256"
        }
      ],
      "name": "Transfer",
      "type": "event"
    },
    {
      "inputs": [],
      "name": "CREATION_LIMIT_GEN0",
      "outputs": [
        {
          "internalType": "uint256",
          "name": "",
          "type": "uint256"
        }
      ],
      "stateMutability": "view",
      "type": "function",
      "constant": true
    },
    {
      "inputs": [
        {
          "internalType": "address",
          "name": "to",
          "type": "address"
        },
        {
          "internalType": "uint256",
          "name": "tokenId",
          "type": "uint256"
        }
      ],
      "name": "approve",
      "outputs": [],
      "stateMutability": "nonpayable",
      "type": "function"
    },
    {
      "inputs": [
        {
          "internalType": "address",
          "name": "owner",
          "type": "address"
        }
      ],
      "name": "balanceOf",
      "outputs": [
        {
          "internalType": "uint256",
          "name": "",
          "type": "uint256"
        }
      ],
      "stateMutability": "view",
      "type": "function",
      "constant": true
    },
    {
      "inputs": [],
      "name": "gen0Counter",
      "outputs": [
        {
          "internalType": "uint256",
          "name": "",
          "type": "uint256"
        }
      ],
      "stateMutability": "view",
      "type": "function",
      "constant": true
    },
    {
      "inputs": [
        {
          "internalType": "uint256",
          "name": "tokenId",
          "type": "uint256"
        }
      ],
      "name": "getApproved",
      "outputs": [
        {
          "internalType": "address",
          "name": "",
          "type": "address"
        }
      ],
      "stateMutability": "view",
      "type": "function",
      "constant": true
    },
    {
      "inputs": [
        {
          "internalType": "address",
          "name": "owner",
          "type": "address"
        },
        {
          "internalType": "address",
          "name": "operator",
          "type": "address"
        }
      ],
      "name": "isApprovedForAll",
      "outputs": [
        {
          "internalType": "bool",
          "name": "",
          "type": "bool"
        }
      ],
      "stateMutability": "view",
      "type": "function",
      "constant": true
    },
    {
      "inputs": [],
      "name": "name",
      "outputs": [
        {
          "internalType": "string",
          "name": "",
          "type": "string"
        }
      ],
      "stateMutability": "view",
      "type": "function",
      "constant": true
    },
    {
      "inputs": [],
      "name": "owner",
      "outputs": [
        {
          "internalType": "address",
          "name": "",
          "type": "address"
        }
      ],
      "stateMutability": "view",
      "type": "function",
      "constant": true
    },
    {
      "inputs": [
        {
          "internalType": "uint256",
          "name": "tokenId",
          "type": "uint256"
        }
      ],
      "name": "ownerOf",
      "outputs": [
        {
          "internalType": "address",
          "name": "",
          "type": "address"
        }
      ],
      "stateMutability": "view",
      "type": "function",
      "constant": true
    },
    {
      "inputs": [],
      "name": "renounceOwnership",
      "outputs": [],
      "stateMutability": "nonpayable",
      "type": "function"
    },
    {
      "inputs": [
        {
          "internalType": "address",
          "name": "from",
          "type": "address"
        },
        {
          "internalType": "address",
          "name": "to",
          "type": "address"
        },
        {
          "internalType": "uint256",
          "name": "tokenId",
          "type": "uint256"
        }
      ],
      "name": "safeTransferFrom",
      "outputs": [],
      "stateMutability": "nonpayable",
      "type": "function"
    },
    {
      "inputs": [
        {
          "internalType": "address",
          "name": "from",
          "type": "address"
        },
        {
          "internalType": "address",
          "name": "to",
          "type": "address"
        },
        {
          "internalType": "uint256",
          "name": "tokenId",
          "type": "uint256"
        },
        {
          "internalType": "bytes",
          "name": "_data",
          "type": "bytes"
        }
      ],
      "name": "safeTransferFrom",
      "outputs": [],
      "stateMutability": "nonpayable",
      "type": "function"
    },
    {
      "inputs": [
        {
          "internalType": "address",
          "name": "operator",
          "type": "address"
        },
        {
          "internalType": "bool",
          "name": "approved",
          "type": "bool"
        }
      ],
      "name": "setApprovalForAll",
      "outputs": [],
      "stateMutability": "nonpayable",
      "type": "function"
    },
    {
      "inputs": [
        {
          "internalType": "bytes4",
          "name": "interfaceId",
          "type": "bytes4"
        }
      ],
      "name": "supportsInterface",
      "outputs": [
        {
          "internalType": "bool",
          "name": "",
          "type": "bool"
        }
      ],
      "stateMutability": "view",
      "type": "function",
      "constant": true
    },
    {
      "inputs": [],
      "name": "symbol",
      "outputs": [
        {
          "internalType": "string",
          "name": "",
          "type": "string"
        }
      ],
      "stateMutability": "view",
      "type": "function",
      "constant": true
    },
    {
      "inputs": [
        {
          "internalType": "uint256",
          "name": "tokenId",
          "type": "uint256"
        }
      ],
      "name": "tokenURI",
      "outputs": [
        {
          "internalType": "string",
          "name": "",
          "type": "string"
        }
      ],
      "stateMutability": "view",
      "type": "function",
      "constant": true
    },
    {
      "inputs": [
        {
          "internalType": "address",
          "name": "from",
          "type": "address"
        },
        {
          "internalType": "address",
          "name": "to",
          "type": "address"
        },
        {
          "internalType": "uint256",
          "name": "tokenId",
          "type": "uint256"
        }
      ],
      "name": "transferFrom",
      "outputs": [],
      "stateMutability": "nonpayable",
      "type": "function"
    },
    {
      "inputs": [
        {
          "internalType": "address",
          "name": "newOwner",
          "type": "address"
        }
      ],
      "name": "transferOwnership",
      "outputs": [],
      "stateMutability": "nonpayable",
      "type": "function"
    },
    {
      "inputs": [],
      "name": "totalSupply",
      "outputs": [
        {
          "internalType": "uint256",
          "name": "",
          "type": "uint256"
        }
      ],
      "stateMutability": "view",
      "type": "function",
      "constant": true
    },
    {
      "inputs": [
        {
          "internalType": "uint256",
          "name": "id",
          "type": "uint256"
        }
      ],
      "name": "getKitty",
      "outputs": [
        {
          "components": [
            {
              "internalType": "uint256",
              "name": "genes",
              "type": "uint256"
            },
            {
              "internalType": "uint64",
              "name": "birthTime",
              "type": "uint64"
            },
            {
              "internalType": "uint32",
              "name": "mumId",
              "type": "uint32"
            },
            {
              "internalType": "uint32",
              "name": "dadId",
              "type": "uint32"
            },
            {
              "internalType": "uint16",
              "name": "generation",
              "type": "uint16"
            }
          ],
          "internalType": "struct Kittycontract.Kitty",
          "name": "",
          "type": "tuple"
        }
      ],
      "stateMutability": "view",
      "type": "function",
      "constant": true
    },
    {
      "inputs": [
        {
          "internalType": "uint256",
          "name": "_genes",
          "type": "uint256"
        }
      ],
      "name": "createKittyGen0",
      "outputs": [],
      "stateMutability": "nonpayable",
      "type": "function"
    }
  ],
  "bytecode": "0x60806040523480156200001157600080fd5b506040518060400160405280601281526020017f43727970746f4b697474696573436c6f6e6500000000000000000000000000008152506040518060400160405280600381526020017f434b430000000000000000000000000000000000000000000000000000000000815250816000908051906020019062000096929190620001a6565b508060019080519060200190620000af929190620001a6565b505050620000d2620000c6620000d860201b60201c565b620000e060201b60201c565b620002bb565b600033905090565b6000600660009054906101000a900473ffffffffffffffffffffffffffffffffffffffff16905081600660006101000a81548173ffffffffffffffffffffffffffffffffffffffff021916908373ffffffffffffffffffffffffffffffffffffffff1602179055508173ffffffffffffffffffffffffffffffffffffffff168173ffffffffffffffffffffffffffffffffffffffff167f8be0079c531659141344cd1fd0a4f28419497f9722a3daafe3b4186f6b6457e060405160405180910390a35050565b828054620001b49062000285565b90600052602060002090601f016020900481019282620001d8576000855562000224565b82601f10620001f357805160ff191683800117855562000224565b8280016001018555821562000224579182015b828111156200022357825182559160200191906001019062000206565b5b50905062000233919062000237565b5090565b5b808211156200025257600081600090555060010162000238565b5090565b7f4e487b7100000000000000000000000000000000000000000000000000000000600052602260045260246000fd5b600060028204905060018216806200029e57607f821691505b60208210811415620002b557620002b462000256565b5b50919050565b6130ca80620002cb6000396000f3fe608060405234801561001057600080fd5b50600436106101375760003560e01c80638da5cb5b116100b8578063c87b56dd1161007c578063c87b56dd14610328578063d5a776ca14610358578063e985e9c514610374578063e98b7f4d146103a4578063ef5e94aa146103d4578063f2fde38b146103f257610137565b80638da5cb5b1461029657806395d89b41146102b4578063a22cb465146102d2578063b4834330146102ee578063b88d4fde1461030c57610137565b806323b872dd116100ff57806323b872dd146101f457806342842e0e146102105780636352211e1461022c57806370a082311461025c578063715018a61461028c57610137565b806301ffc9a71461013c57806306fdde031461016c578063081812fc1461018a578063095ea7b3146101ba57806318160ddd146101d6575b600080fd5b61015660048036038101906101519190611dcc565b61040e565b6040516101639190611e14565b60405180910390f35b6101746104f0565b6040516101819190611ec8565b60405180910390f35b6101a4600480360381019061019f9190611f20565b610582565b6040516101b19190611f8e565b60405180910390f35b6101d460048036038101906101cf9190611fd5565b610607565b005b6101de61071f565b6040516101eb9190612024565b60405180910390f35b61020e6004803603810190610209919061203f565b61072c565b005b61022a6004803603810190610225919061203f565b61078c565b005b61024660048036038101906102419190611f20565b6107ac565b6040516102539190611f8e565b60405180910390f35b61027660048036038101906102719190612092565b61085e565b6040516102839190612024565b60405180910390f35b610294610916565b005b61029e61099e565b6040516102ab9190611f8e565b60405180910390f35b6102bc6109c8565b6040516102c99190611ec8565b60405180910390f35b6102ec60048036038101906102e791906120eb565b610a5a565b005b6102f6610a70565b6040516103039190612024565b60405180910390f35b61032660048036038101906103219190612260565b610a75565b005b610342600480360381019061033d9190611f20565b610ad7565b60405161034f9190611ec8565b60405180910390f35b610372600480360381019061036d9190611f20565b610b7e565b005b61038e600480360381019061038991906122e3565b610c6a565b60405161039b9190611e14565b60405180910390f35b6103be60048036038101906103b99190611f20565b610cfe565b6040516103cb91906123f9565b60405180910390f35b6103dc610de2565b6040516103e99190612024565b60405180910390f35b61040c60048036038101906104079190612092565b610de8565b005b60007f80ac58cd000000000000000000000000000000000000000000000000000000007bffffffffffffffffffffffffffffffffffffffffffffffffffffffff1916827bffffffffffffffffffffffffffffffffffffffffffffffffffffffff191614806104d957507f5b5e139f000000000000000000000000000000000000000000000000000000007bffffffffffffffffffffffffffffffffffffffffffffffffffffffff1916827bffffffffffffffffffffffffffffffffffffffffffffffffffffffff1916145b806104e957506104e882610ee0565b5b9050919050565b6060600080546104ff90612443565b80601f016020809104026020016040519081016040528092919081815260200182805461052b90612443565b80156105785780601f1061054d57610100808354040283529160200191610578565b820191906000526020600020905b81548152906001019060200180831161055b57829003601f168201915b5050505050905090565b600061058d82610f4a565b6105cc576040517f08c379a00000000000000000000000000000000000000000000000000000000081526004016105c3906124e7565b60405180910390fd5b6004600083815260200190815260200160002060009054906101000a900473ffffffffffffffffffffffffffffffffffffffff169050919050565b6000610612826107ac565b90508073ffffffffffffffffffffffffffffffffffffffff168373ffffffffffffffffffffffffffffffffffffffff161415610683576040517f08c379a000000000000000000000000000000000000000000000000000000000815260040161067a90612579565b60405180910390fd5b8073ffffffffffffffffffffffffffffffffffffffff166106a2610fb6565b73ffffffffffffffffffffffffffffffffffffffff1614806106d157506106d0816106cb610fb6565b610c6a565b5b610710576040517f08c379a00000000000000000000000000000000000000000000000000000000081526004016107079061260b565b60405180910390fd5b61071a8383610fbe565b505050565b6000600780549050905090565b61073d610737610fb6565b82611077565b61077c576040517f08c379a00000000000000000000000000000000000000000000000000000000081526004016107739061269d565b60405180910390fd5b610787838383611155565b505050565b6107a783838360405180602001604052806000815250610a75565b505050565b6000806002600084815260200190815260200160002060009054906101000a900473ffffffffffffffffffffffffffffffffffffffff169050600073ffffffffffffffffffffffffffffffffffffffff168173ffffffffffffffffffffffffffffffffffffffff161415610855576040517f08c379a000000000000000000000000000000000000000000000000000000000815260040161084c9061272f565b60405180910390fd5b80915050919050565b60008073ffffffffffffffffffffffffffffffffffffffff168273ffffffffffffffffffffffffffffffffffffffff1614156108cf576040517f08c379a00000000000000000000000000000000000000000000000000000000081526004016108c6906127c1565b60405180910390fd5b600360008373ffffffffffffffffffffffffffffffffffffffff1673ffffffffffffffffffffffffffffffffffffffff168152602001908152602001600020549050919050565b61091e610fb6565b73ffffffffffffffffffffffffffffffffffffffff1661093c61099e565b73ffffffffffffffffffffffffffffffffffffffff1614610992576040517f08c379a00000000000000000000000000000000000000000000000000000000081526004016109899061282d565b60405180910390fd5b61099c60006113bc565b565b6000600660009054906101000a900473ffffffffffffffffffffffffffffffffffffffff16905090565b6060600180546109d790612443565b80601f0160208091040260200160405190810160405280929190818152602001828054610a0390612443565b8015610a505780601f10610a2557610100808354040283529160200191610a50565b820191906000526020600020905b815481529060010190602001808311610a3357829003601f168201915b5050505050905090565b610a6c610a65610fb6565b8383611482565b5050565b600a81565b610a86610a80610fb6565b83611077565b610ac5576040517f08c379a0000000000000000000000000000000000000000000000000000000008152600401610abc9061269d565b60405180910390fd5b610ad1848484846115ef565b50505050565b6060610ae282610f4a565b610b21576040517f08c379a0000000000000000000000000000000000000000000000000000000008152600401610b18906128bf565b60405180910390fd5b6000610b2b61164b565b90506000815111610b4b5760405180602001604052806000815250610b76565b80610b5584611662565b604051602001610b6692919061291b565b6040516020818303038152906040525b915050919050565b610b86610fb6565b73ffffffffffffffffffffffffffffffffffffffff16610ba461099e565b73ffffffffffffffffffffffffffffffffffffffff1614610bfa576040517f08c379a0000000000000000000000000000000000000000000000000000000008152600401610bf19061282d565b60405180910390fd5b600a60085410610c3f576040517f08c379a0000000000000000000000000000000000000000000000000000000008152600401610c36906129b1565b60405180910390fd5b60086000815480929190610c5290612a00565b9190505550610c66600080600084336117c3565b5050565b6000600560008473ffffffffffffffffffffffffffffffffffffffff1673ffffffffffffffffffffffffffffffffffffffff16815260200190815260200160002060008373ffffffffffffffffffffffffffffffffffffffff1673ffffffffffffffffffffffffffffffffffffffff16815260200190815260200160002060009054906101000a900460ff16905092915050565b610d06611d17565b60078281548110610d1a57610d19612a49565b5b90600052602060002090600202016040518060a0016040529081600082015481526020016001820160009054906101000a900467ffffffffffffffff1667ffffffffffffffff1667ffffffffffffffff1681526020016001820160089054906101000a900463ffffffff1663ffffffff1663ffffffff16815260200160018201600c9054906101000a900463ffffffff1663ffffffff1663ffffffff1681526020016001820160109054906101000a900461ffff1661ffff1661ffff16815250509050919050565b60085481565b610df0610fb6565b73ffffffffffffffffffffffffffffffffffffffff16610e0e61099e565b73ffffffffffffffffffffffffffffffffffffffff1614610e64576040517f08c379a0000000000000000000000000000000000000000000000000000000008152600401610e5b9061282d565b60405180910390fd5b600073ffffffffffffffffffffffffffffffffffffffff168173ffffffffffffffffffffffffffffffffffffffff161415610ed4576040517f08c379a0000000000000000000000000000000000000000000000000000000008152600401610ecb90612aea565b60405180910390fd5b610edd816113bc565b50565b60007f01ffc9a7000000000000000000000000000000000000000000000000000000007bffffffffffffffffffffffffffffffffffffffffffffffffffffffff1916827bffffffffffffffffffffffffffffffffffffffffffffffffffffffff1916149050919050565b60008073ffffffffffffffffffffffffffffffffffffffff166002600084815260200190815260200160002060009054906101000a900473ffffffffffffffffffffffffffffffffffffffff1673ffffffffffffffffffffffffffffffffffffffff1614159050919050565b600033905090565b816004600083815260200190815260200160002060006101000a81548173ffffffffffffffffffffffffffffffffffffffff021916908373ffffffffffffffffffffffffffffffffffffffff160217905550808273ffffffffffffffffffffffffffffffffffffffff16611031836107ac565b73ffffffffffffffffffffffffffffffffffffffff167f8c5be1e5ebec7d5bd14f71427d1e84f3dd0314c0f7b2291e5b200ac8c7c3b92560405160405180910390a45050565b600061108282610f4a565b6110c1576040517f08c379a00000000000000000000000000000000000000000000000000000000081526004016110b890612b7c565b60405180910390fd5b60006110cc836107ac565b90508073ffffffffffffffffffffffffffffffffffffffff168473ffffffffffffffffffffffffffffffffffffffff16148061113b57508373ffffffffffffffffffffffffffffffffffffffff1661112384610582565b73ffffffffffffffffffffffffffffffffffffffff16145b8061114c575061114b8185610c6a565b5b91505092915050565b8273ffffffffffffffffffffffffffffffffffffffff16611175826107ac565b73ffffffffffffffffffffffffffffffffffffffff16146111cb576040517f08c379a00000000000000000000000000000000000000000000000000000000081526004016111c290612c0e565b60405180910390fd5b600073ffffffffffffffffffffffffffffffffffffffff168273ffffffffffffffffffffffffffffffffffffffff16141561123b576040517f08c379a000000000000000000000000000000000000000000000000000000000815260040161123290612ca0565b60405180910390fd5b61124683838361190f565b611251600082610fbe565b6001600360008573ffffffffffffffffffffffffffffffffffffffff1673ffffffffffffffffffffffffffffffffffffffff16815260200190815260200160002060008282546112a19190612cc0565b925050819055506001600360008473ffffffffffffffffffffffffffffffffffffffff1673ffffffffffffffffffffffffffffffffffffffff16815260200190815260200160002060008282546112f89190612cf4565b92505081905550816002600083815260200190815260200160002060006101000a81548173ffffffffffffffffffffffffffffffffffffffff021916908373ffffffffffffffffffffffffffffffffffffffff160217905550808273ffffffffffffffffffffffffffffffffffffffff168473ffffffffffffffffffffffffffffffffffffffff167fddf252ad1be2c89b69c2b068fc378daa952ba7f163c4a11628f55a4df523b3ef60405160405180910390a46113b7838383611914565b505050565b6000600660009054906101000a900473ffffffffffffffffffffffffffffffffffffffff16905081600660006101000a81548173ffffffffffffffffffffffffffffffffffffffff021916908373ffffffffffffffffffffffffffffffffffffffff1602179055508173ffffffffffffffffffffffffffffffffffffffff168173ffffffffffffffffffffffffffffffffffffffff167f8be0079c531659141344cd1fd0a4f28419497f9722a3daafe3b4186f6b6457e060405160405180910390a35050565b8173ffffffffffffffffffffffffffffffffffffffff168373ffffffffffffffffffffffffffffffffffffffff1614156114f1576040517f08c379a00000000000000000000000000000000000000000000000000000000081526004016114e890612d96565b60405180910390fd5b80600560008573ffffffffffffffffffffffffffffffffffffffff1673ffffffffffffffffffffffffffffffffffffffff16815260200190815260200160002060008473ffffffffffffffffffffffffffffffffffffffff1673ffffffffffffffffffffffffffffffffffffffff16815260200190815260200160002060006101000a81548160ff0219169083151502179055508173ffffffffffffffffffffffffffffffffffffffff168373ffffffffffffffffffffffffffffffffffffffff167f17307eab39ab6107e8899845ad3d59bd9653f200f220920489ca2b5937696c31836040516115e29190611e14565b60405180910390a3505050565b6115fa848484611155565b61160684848484611919565b611645576040517f08c379a000000000000000000000000000000000000000000000000000000000815260040161163c90612e28565b60405180910390fd5b50505050565b606060405180602001604052806000815250905090565b606060008214156116aa576040518060400160405280600181526020017f300000000000000000000000000000000000000000000000000000000000000081525090506117be565b600082905060005b600082146116dc5780806116c590612a00565b915050600a826116d59190612e77565b91506116b2565b60008167ffffffffffffffff8111156116f8576116f7612135565b5b6040519080825280601f01601f19166020018201604052801561172a5781602001600182028036833780820191505090505b5090505b600085146117b7576001826117439190612cc0565b9150600a856117529190612ea8565b603061175e9190612cf4565b60f81b81838151811061177457611773612a49565b5b60200101907effffffffffffffffffffffffffffffffffffffffffffffffffffffffffffff1916908160001a905350600a856117b09190612e77565b945061172e565b8093505050505b919050565b6000806040518060a001604052808581526020014267ffffffffffffffff1681526020018863ffffffff1681526020018763ffffffff1681526020018661ffff16815250905060078190806001815401808255809150506001900390600052602060002090600202016000909190919091506000820151816000015560208201518160010160006101000a81548167ffffffffffffffff021916908367ffffffffffffffff16021790555060408201518160010160086101000a81548163ffffffff021916908363ffffffff160217905550606082015181600101600c6101000a81548163ffffffff021916908363ffffffff16021790555060808201518160010160106101000a81548161ffff021916908361ffff1602179055505050600060016007805490506118f59190612cc0565b90506119018482611aa1565b809250505095945050505050565b505050565b505050565b600061193a8473ffffffffffffffffffffffffffffffffffffffff16611abf565b15611a94578373ffffffffffffffffffffffffffffffffffffffff1663150b7a02611963610fb6565b8786866040518563ffffffff1660e01b81526004016119859493929190612f2e565b6020604051808303816000875af19250505080156119c157506040513d601f19601f820116820180604052508101906119be9190612f8f565b60015b611a44573d80600081146119f1576040519150601f19603f3d011682016040523d82523d6000602084013e6119f6565b606091505b50600081511415611a3c576040517f08c379a0000000000000000000000000000000000000000000000000000000008152600401611a3390612e28565b60405180910390fd5b805181602001fd5b63150b7a0260e01b7bffffffffffffffffffffffffffffffffffffffffffffffffffffffff1916817bffffffffffffffffffffffffffffffffffffffffffffffffffffffff191614915050611a99565b600190505b949350505050565b611abb828260405180602001604052806000815250611ae2565b5050565b6000808273ffffffffffffffffffffffffffffffffffffffff163b119050919050565b611aec8383611b3d565b611af96000848484611919565b611b38576040517f08c379a0000000000000000000000000000000000000000000000000000000008152600401611b2f90612e28565b60405180910390fd5b505050565b600073ffffffffffffffffffffffffffffffffffffffff168273ffffffffffffffffffffffffffffffffffffffff161415611bad576040517f08c379a0000000000000000000000000000000000000000000000000000000008152600401611ba490613008565b60405180910390fd5b611bb681610f4a565b15611bf6576040517f08c379a0000000000000000000000000000000000000000000000000000000008152600401611bed90613074565b60405180910390fd5b611c026000838361190f565b6001600360008473ffffffffffffffffffffffffffffffffffffffff1673ffffffffffffffffffffffffffffffffffffffff1681526020019081526020016000206000828254611c529190612cf4565b92505081905550816002600083815260200190815260200160002060006101000a81548173ffffffffffffffffffffffffffffffffffffffff021916908373ffffffffffffffffffffffffffffffffffffffff160217905550808273ffffffffffffffffffffffffffffffffffffffff16600073ffffffffffffffffffffffffffffffffffffffff167fddf252ad1be2c89b69c2b068fc378daa952ba7f163c4a11628f55a4df523b3ef60405160405180910390a4611d1360008383611914565b5050565b6040518060a0016040528060008152602001600067ffffffffffffffff168152602001600063ffffffff168152602001600063ffffffff168152602001600061ffff1681525090565b6000604051905090565b600080fd5b600080fd5b60007fffffffff0000000000000000000000000000000000000000000000000000000082169050919050565b611da981611d74565b8114611db457600080fd5b50565b600081359050611dc681611da0565b92915050565b600060208284031215611de257611de1611d6a565b5b6000611df084828501611db7565b91505092915050565b60008115159050919050565b611e0e81611df9565b82525050565b6000602082019050611e296000830184611e05565b92915050565b600081519050919050565b600082825260208201905092915050565b60005b83811015611e69578082015181840152602081019050611e4e565b83811115611e78576000848401525b50505050565b6000601f19601f8301169050919050565b6000611e9a82611e2f565b611ea48185611e3a565b9350611eb4818560208601611e4b565b611ebd81611e7e565b840191505092915050565b60006020820190508181036000830152611ee28184611e8f565b905092915050565b6000819050919050565b611efd81611eea565b8114611f0857600080fd5b50565b600081359050611f1a81611ef4565b92915050565b600060208284031215611f3657611f35611d6a565b5b6000611f4484828501611f0b565b91505092915050565b600073ffffffffffffffffffffffffffffffffffffffff82169050919050565b6000611f7882611f4d565b9050919050565b611f8881611f6d565b82525050565b6000602082019050611fa36000830184611f7f565b92915050565b611fb281611f6d565b8114611fbd57600080fd5b50565b600081359050611fcf81611fa9565b92915050565b60008060408385031215611fec57611feb611d6a565b5b6000611ffa85828601611fc0565b925050602061200b85828601611f0b565b9150509250929050565b61201e81611eea565b82525050565b60006020820190506120396000830184612015565b92915050565b60008060006060848603121561205857612057611d6a565b5b600061206686828701611fc0565b935050602061207786828701611fc0565b925050604061208886828701611f0b565b9150509250925092565b6000602082840312156120a8576120a7611d6a565b5b60006120b684828501611fc0565b91505092915050565b6120c881611df9565b81146120d357600080fd5b50565b6000813590506120e5816120bf565b92915050565b6000806040838503121561210257612101611d6a565b5b600061211085828601611fc0565b9250506020612121858286016120d6565b9150509250929050565b600080fd5b600080fd5b7f4e487b7100000000000000000000000000000000000000000000000000000000600052604160045260246000fd5b61216d82611e7e565b810181811067ffffffffffffffff8211171561218c5761218b612135565b5b80604052505050565b600061219f611d60565b90506121ab8282612164565b919050565b600067ffffffffffffffff8211156121cb576121ca612135565b5b6121d482611e7e565b9050602081019050919050565b82818337600083830152505050565b60006122036121fe846121b0565b612195565b90508281526020810184848401111561221f5761221e612130565b5b61222a8482856121e1565b509392505050565b600082601f8301126122475761224661212b565b5b81356122578482602086016121f0565b91505092915050565b6000806000806080858703121561227a57612279611d6a565b5b600061228887828801611fc0565b945050602061229987828801611fc0565b93505060406122aa87828801611f0b565b925050606085013567ffffffffffffffff8111156122cb576122ca611d6f565b5b6122d787828801612232565b91505092959194509250565b600080604083850312156122fa576122f9611d6a565b5b600061230885828601611fc0565b925050602061231985828601611fc0565b9150509250929050565b61232c81611eea565b82525050565b600067ffffffffffffffff82169050919050565b61234f81612332565b82525050565b600063ffffffff82169050919050565b61236e81612355565b82525050565b600061ffff82169050919050565b61238b81612374565b82525050565b60a0820160008201516123a76000850182612323565b5060208201516123ba6020850182612346565b5060408201516123cd6040850182612365565b5060608201516123e06060850182612365565b5060808201516123f36080850182612382565b50505050565b600060a08201905061240e6000830184612391565b92915050565b7f4e487b7100000000000000000000000000000000000000000000000000000000600052602260045260246000fd5b6000600282049050600182168061245b57607f821691505b6020821081141561246f5761246e612414565b5b50919050565b7f4552433732313a20617070726f76656420717565727920666f72206e6f6e657860008201527f697374656e7420746f6b656e0000000000000000000000000000000000000000602082015250565b60006124d1602c83611e3a565b91506124dc82612475565b604082019050919050565b60006020820190508181036000830152612500816124c4565b9050919050565b7f4552433732313a20617070726f76616c20746f2063757272656e74206f776e6560008201527f7200000000000000000000000000000000000000000000000000000000000000602082015250565b6000612563602183611e3a565b915061256e82612507565b604082019050919050565b6000602082019050818103600083015261259281612556565b9050919050565b7f4552433732313a20617070726f76652063616c6c6572206973206e6f74206f7760008201527f6e6572206e6f7220617070726f76656420666f7220616c6c0000000000000000602082015250565b60006125f5603883611e3a565b915061260082612599565b604082019050919050565b60006020820190508181036000830152612624816125e8565b9050919050565b7f4552433732313a207472616e736665722063616c6c6572206973206e6f74206f60008201527f776e6572206e6f7220617070726f766564000000000000000000000000000000602082015250565b6000612687603183611e3a565b91506126928261262b565b604082019050919050565b600060208201905081810360008301526126b68161267a565b9050919050565b7f4552433732313a206f776e657220717565727920666f72206e6f6e657869737460008201527f656e7420746f6b656e0000000000000000000000000000000000000000000000602082015250565b6000612719602983611e3a565b9150612724826126bd565b604082019050919050565b600060208201905081810360008301526127488161270c565b9050919050565b7f4552433732313a2062616c616e636520717565727920666f7220746865207a6560008201527f726f206164647265737300000000000000000000000000000000000000000000602082015250565b60006127ab602a83611e3a565b91506127b68261274f565b604082019050919050565b600060208201905081810360008301526127da8161279e565b9050919050565b7f4f776e61626c653a2063616c6c6572206973206e6f7420746865206f776e6572600082015250565b6000612817602083611e3a565b9150612822826127e1565b602082019050919050565b600060208201905081810360008301526128468161280a565b9050919050565b7f4552433732314d657461646174613a2055524920717565727920666f72206e6f60008201527f6e6578697374656e7420746f6b656e0000000000000000000000000000000000602082015250565b60006128a9602f83611e3a565b91506128b48261284d565b604082019050919050565b600060208201905081810360008301526128d88161289c565b9050919050565b600081905092915050565b60006128f582611e2f565b6128ff81856128df565b935061290f818560208601611e4b565b80840191505092915050565b600061292782856128ea565b915061293382846128ea565b91508190509392505050565b7f416d6f756e74206f662066697273742067656e65726174696f6e206b6974746960008201527f6573206973206578636565646564000000000000000000000000000000000000602082015250565b600061299b602e83611e3a565b91506129a68261293f565b604082019050919050565b600060208201905081810360008301526129ca8161298e565b9050919050565b7f4e487b7100000000000000000000000000000000000000000000000000000000600052601160045260246000fd5b6000612a0b82611eea565b91507fffffffffffffffffffffffffffffffffffffffffffffffffffffffffffffffff821415612a3e57612a3d6129d1565b5b600182019050919050565b7f4e487b7100000000000000000000000000000000000000000000000000000000600052603260045260246000fd5b7f4f776e61626c653a206e6577206f776e657220697320746865207a65726f206160008201527f6464726573730000000000000000000000000000000000000000000000000000602082015250565b6000612ad4602683611e3a565b9150612adf82612a78565b604082019050919050565b60006020820190508181036000830152612b0381612ac7565b9050919050565b7f4552433732313a206f70657261746f7220717565727920666f72206e6f6e657860008201527f697374656e7420746f6b656e0000000000000000000000000000000000000000602082015250565b6000612b66602c83611e3a565b9150612b7182612b0a565b604082019050919050565b60006020820190508181036000830152612b9581612b59565b9050919050565b7f4552433732313a207472616e736665722066726f6d20696e636f72726563742060008201527f6f776e6572000000000000000000000000000000000000000000000000000000602082015250565b6000612bf8602583611e3a565b9150612c0382612b9c565b604082019050919050565b60006020820190508181036000830152612c2781612beb565b9050919050565b7f4552433732313a207472616e7366657220746f20746865207a65726f2061646460008201527f7265737300000000000000000000000000000000000000000000000000000000602082015250565b6000612c8a602483611e3a565b9150612c9582612c2e565b604082019050919050565b60006020820190508181036000830152612cb981612c7d565b9050919050565b6000612ccb82611eea565b9150612cd683611eea565b925082821015612ce957612ce86129d1565b5b828203905092915050565b6000612cff82611eea565b9150612d0a83611eea565b9250827fffffffffffffffffffffffffffffffffffffffffffffffffffffffffffffffff03821115612d3f57612d3e6129d1565b5b828201905092915050565b7f4552433732313a20617070726f766520746f2063616c6c657200000000000000600082015250565b6000612d80601983611e3a565b9150612d8b82612d4a565b602082019050919050565b60006020820190508181036000830152612daf81612d73565b9050919050565b7f4552433732313a207472616e7366657220746f206e6f6e20455243373231526560008201527f63656976657220696d706c656d656e7465720000000000000000000000000000602082015250565b6000612e12603283611e3a565b9150612e1d82612db6565b604082019050919050565b60006020820190508181036000830152612e4181612e05565b9050919050565b7f4e487b7100000000000000000000000000000000000000000000000000000000600052601260045260246000fd5b6000612e8282611eea565b9150612e8d83611eea565b925082612e9d57612e9c612e48565b5b828204905092915050565b6000612eb382611eea565b9150612ebe83611eea565b925082612ece57612ecd612e48565b5b828206905092915050565b600081519050919050565b600082825260208201905092915050565b6000612f0082612ed9565b612f0a8185612ee4565b9350612f1a818560208601611e4b565b612f2381611e7e565b840191505092915050565b6000608082019050612f436000830187611f7f565b612f506020830186611f7f565b612f5d6040830185612015565b8181036060830152612f6f8184612ef5565b905095945050505050565b600081519050612f8981611da0565b92915050565b600060208284031215612fa557612fa4611d6a565b5b6000612fb384828501612f7a565b91505092915050565b7f4552433732313a206d696e7420746f20746865207a65726f2061646472657373600082015250565b6000612ff2602083611e3a565b9150612ffd82612fbc565b602082019050919050565b6000602082019050818103600083015261302181612fe5565b9050919050565b7f4552433732313a20746f6b656e20616c7265616479206d696e74656400000000600082015250565b600061305e601c83611e3a565b915061306982613028565b602082019050919050565b6000602082019050818103600083015261308d81613051565b905091905056fea2646970667358221220f9cfc40e2c2e181b6257d6af117689423d5eaa6d48cfdc0cdbc1f0927a4a759b64736f6c634300080b0033",
  "immutableReferences": {},
  "source": "pragma solidity ^0.8.0;\r\n\r\nimport \"../node_modules/@openzeppelin/contracts/token/ERC721/ERC721.sol\";\r\nimport \"../node_modules/@openzeppelin/contracts/access/Ownable.sol\";\r\n\r\ncontract Kittycontract is ERC721(\"CryptoKittiesClone\", \"CKC\"), Ownable {\r\n  struct Kitty {\r\n    uint256 genes;\r\n    uint64 birthTime;\r\n    uint32 mumId;\r\n    uint32 dadId;\r\n    uint16 generation;\r\n  }\r\n  \r\n  Kitty[] kitties;\r\n\r\n  function totalSupply() view public returns (uint) {\r\n    return kitties.length;\r\n  }  \r\n\r\n  function getKitty(uint id) public view returns (Kitty memory) {\r\n    return kitties[id];\r\n  }\r\n\r\n  uint public constant CREATION_LIMIT_GEN0 = 10;\r\n  uint public gen0Counter;\r\n\r\n  function createKittyGen0(uint256 _genes) public onlyOwner {\r\n    require(gen0Counter < CREATION_LIMIT_GEN0, 'Amount of first generation kitties is exceeded');\r\n\r\n    gen0Counter++;\r\n\r\n    // Gen0 have to be owned by the contract\r\n    _createKitty(0, 0, 0, _genes, msg.sender);\r\n  }\r\n\r\n  function _createKitty(\r\n    uint256 _mumId,\r\n    uint256 _dadId,\r\n    uint256 _generation,\r\n    uint256 _genes,\r\n    address _owner\r\n  ) private returns (uint256) {\r\n    Kitty memory _kitty = Kitty({\r\n      genes: _genes,\r\n      birthTime: uint64(block.timestamp),\r\n      mumId: uint32(_mumId),\r\n      dadId: uint32(_dadId),\r\n      generation: uint16(_generation)\r\n    });\r\n\r\n    kitties.push(_kitty);\r\n    uint256 newKittenId = kitties.length - 1;\r\n\r\n    _safeMint(_owner, newKittenId);\r\n\r\n    return newKittenId;\r\n  }\r\n}",
  "sourcePath": "C:\\\\eth_sandbox\\crypto_kitties_clone\\contracts\\Kittycontract.sol",
  "compiler": {
    "name": "solc",
    "version": "0.8.11+commit.d7f03943.Emscripten.clang"
  },
  "schemaVersion": "3.4.5",
  "updatedAt": "2022-03-16T09:32:35.142Z",
  "networkType": "ethereum",
  "devdoc": {
    "kind": "dev",
    "methods": {
      "approve(address,uint256)": {
        "details": "See {IERC721-approve}."
      },
      "balanceOf(address)": {
        "details": "See {IERC721-balanceOf}."
      },
      "getApproved(uint256)": {
        "details": "See {IERC721-getApproved}."
      },
      "isApprovedForAll(address,address)": {
        "details": "See {IERC721-isApprovedForAll}."
      },
      "name()": {
        "details": "See {IERC721Metadata-name}."
      },
      "owner()": {
        "details": "Returns the address of the current owner."
      },
      "ownerOf(uint256)": {
        "details": "See {IERC721-ownerOf}."
      },
      "renounceOwnership()": {
        "details": "Leaves the contract without owner. It will not be possible to call `onlyOwner` functions anymore. Can only be called by the current owner. NOTE: Renouncing ownership will leave the contract without an owner, thereby removing any functionality that is only available to the owner."
      },
      "safeTransferFrom(address,address,uint256)": {
        "details": "See {IERC721-safeTransferFrom}."
      },
      "safeTransferFrom(address,address,uint256,bytes)": {
        "details": "See {IERC721-safeTransferFrom}."
      },
      "setApprovalForAll(address,bool)": {
        "details": "See {IERC721-setApprovalForAll}."
      },
      "supportsInterface(bytes4)": {
        "details": "See {IERC165-supportsInterface}."
      },
      "symbol()": {
        "details": "See {IERC721Metadata-symbol}."
      },
      "tokenURI(uint256)": {
        "details": "See {IERC721Metadata-tokenURI}."
      },
      "transferFrom(address,address,uint256)": {
        "details": "See {IERC721-transferFrom}."
      },
      "transferOwnership(address)": {
        "details": "Transfers ownership of the contract to a new account (`newOwner`). Can only be called by the current owner."
      }
    },
    "version": 1
  },
  "userdoc": {
    "kind": "user",
    "methods": {},
    "version": 1
  }
}