{
  "contractName": "Kittycontract",
  "abi": [
    {
      "inputs": [],
      "stateMutability": "nonpayable",
      "type": "constructor"
    },
    {
      "anonymous": false,
      "inputs": [
        {
          "indexed": true,
          "internalType": "address",
          "name": "owner",
          "type": "address"
        },
        {
          "indexed": true,
          "internalType": "address",
          "name": "approved",
          "type": "address"
        },
        {
          "indexed": true,
          "internalType": "uint256",
          "name": "tokenId",
          "type": "uint256"
        }
      ],
      "name": "Approval",
      "type": "event"
    },
    {
      "anonymous": false,
      "inputs": [
        {
          "indexed": true,
          "internalType": "address",
          "name": "owner",
          "type": "address"
        },
        {
          "indexed": true,
          "internalType": "address",
          "name": "operator",
          "type": "address"
        },
        {
          "indexed": false,
          "internalType": "bool",
          "name": "approved",
          "type": "bool"
        }
      ],
      "name": "ApprovalForAll",
      "type": "event"
    },
    {
      "anonymous": false,
      "inputs": [
        {
          "indexed": false,
          "internalType": "uint256",
          "name": "_mumId",
          "type": "uint256"
        },
        {
          "indexed": false,
          "internalType": "uint256",
          "name": "_dadId",
          "type": "uint256"
        },
        {
          "indexed": false,
          "internalType": "uint256",
          "name": "_generation",
          "type": "uint256"
        },
        {
          "indexed": false,
          "internalType": "uint256",
          "name": "_genes",
          "type": "uint256"
        },
        {
          "indexed": false,
          "internalType": "address",
          "name": "_owner",
          "type": "address"
        }
      ],
      "name": "Birth",
      "type": "event"
    },
    {
      "anonymous": false,
      "inputs": [
        {
          "indexed": true,
          "internalType": "address",
          "name": "previousOwner",
          "type": "address"
        },
        {
          "indexed": true,
          "internalType": "address",
          "name": "newOwner",
          "type": "address"
        }
      ],
      "name": "OwnershipTransferred",
      "type": "event"
    },
    {
      "anonymous": false,
      "inputs": [
        {
          "indexed": true,
          "internalType": "address",
          "name": "from",
          "type": "address"
        },
        {
          "indexed": true,
          "internalType": "address",
          "name": "to",
          "type": "address"
        },
        {
          "indexed": true,
          "internalType": "uint256",
          "name": "tokenId",
          "type": "uint256"
        }
      ],
      "name": "Transfer",
      "type": "event"
    },
    {
      "inputs": [],
      "name": "CREATION_LIMIT_GEN0",
      "outputs": [
        {
          "internalType": "uint256",
          "name": "",
          "type": "uint256"
        }
      ],
      "stateMutability": "view",
      "type": "function"
    },
    {
      "inputs": [
        {
          "internalType": "address",
          "name": "to",
          "type": "address"
        },
        {
          "internalType": "uint256",
          "name": "tokenId",
          "type": "uint256"
        }
      ],
      "name": "approve",
      "outputs": [],
      "stateMutability": "nonpayable",
      "type": "function"
    },
    {
      "inputs": [
        {
          "internalType": "address",
          "name": "owner",
          "type": "address"
        }
      ],
      "name": "balanceOf",
      "outputs": [
        {
          "internalType": "uint256",
          "name": "",
          "type": "uint256"
        }
      ],
      "stateMutability": "view",
      "type": "function"
    },
    {
      "inputs": [],
      "name": "gen0Counter",
      "outputs": [
        {
          "internalType": "uint256",
          "name": "",
          "type": "uint256"
        }
      ],
      "stateMutability": "view",
      "type": "function"
    },
    {
      "inputs": [
        {
          "internalType": "uint256",
          "name": "tokenId",
          "type": "uint256"
        }
      ],
      "name": "getApproved",
      "outputs": [
        {
          "internalType": "address",
          "name": "",
          "type": "address"
        }
      ],
      "stateMutability": "view",
      "type": "function"
    },
    {
      "inputs": [
        {
          "internalType": "address",
          "name": "owner",
          "type": "address"
        },
        {
          "internalType": "address",
          "name": "operator",
          "type": "address"
        }
      ],
      "name": "isApprovedForAll",
      "outputs": [
        {
          "internalType": "bool",
          "name": "",
          "type": "bool"
        }
      ],
      "stateMutability": "view",
      "type": "function"
    },
    {
      "inputs": [],
      "name": "name",
      "outputs": [
        {
          "internalType": "string",
          "name": "",
          "type": "string"
        }
      ],
      "stateMutability": "view",
      "type": "function"
    },
    {
      "inputs": [],
      "name": "owner",
      "outputs": [
        {
          "internalType": "address",
          "name": "",
          "type": "address"
        }
      ],
      "stateMutability": "view",
      "type": "function"
    },
    {
      "inputs": [
        {
          "internalType": "uint256",
          "name": "tokenId",
          "type": "uint256"
        }
      ],
      "name": "ownerOf",
      "outputs": [
        {
          "internalType": "address",
          "name": "",
          "type": "address"
        }
      ],
      "stateMutability": "view",
      "type": "function"
    },
    {
      "inputs": [],
      "name": "renounceOwnership",
      "outputs": [],
      "stateMutability": "nonpayable",
      "type": "function"
    },
    {
      "inputs": [
        {
          "internalType": "address",
          "name": "from",
          "type": "address"
        },
        {
          "internalType": "address",
          "name": "to",
          "type": "address"
        },
        {
          "internalType": "uint256",
          "name": "tokenId",
          "type": "uint256"
        }
      ],
      "name": "safeTransferFrom",
      "outputs": [],
      "stateMutability": "nonpayable",
      "type": "function"
    },
    {
      "inputs": [
        {
          "internalType": "address",
          "name": "from",
          "type": "address"
        },
        {
          "internalType": "address",
          "name": "to",
          "type": "address"
        },
        {
          "internalType": "uint256",
          "name": "tokenId",
          "type": "uint256"
        },
        {
          "internalType": "bytes",
          "name": "_data",
          "type": "bytes"
        }
      ],
      "name": "safeTransferFrom",
      "outputs": [],
      "stateMutability": "nonpayable",
      "type": "function"
    },
    {
      "inputs": [
        {
          "internalType": "address",
          "name": "operator",
          "type": "address"
        },
        {
          "internalType": "bool",
          "name": "approved",
          "type": "bool"
        }
      ],
      "name": "setApprovalForAll",
      "outputs": [],
      "stateMutability": "nonpayable",
      "type": "function"
    },
    {
      "inputs": [
        {
          "internalType": "bytes4",
          "name": "interfaceId",
          "type": "bytes4"
        }
      ],
      "name": "supportsInterface",
      "outputs": [
        {
          "internalType": "bool",
          "name": "",
          "type": "bool"
        }
      ],
      "stateMutability": "view",
      "type": "function"
    },
    {
      "inputs": [],
      "name": "symbol",
      "outputs": [
        {
          "internalType": "string",
          "name": "",
          "type": "string"
        }
      ],
      "stateMutability": "view",
      "type": "function"
    },
    {
      "inputs": [
        {
          "internalType": "uint256",
          "name": "tokenId",
          "type": "uint256"
        }
      ],
      "name": "tokenURI",
      "outputs": [
        {
          "internalType": "string",
          "name": "",
          "type": "string"
        }
      ],
      "stateMutability": "view",
      "type": "function"
    },
    {
      "inputs": [
        {
          "internalType": "address",
          "name": "from",
          "type": "address"
        },
        {
          "internalType": "address",
          "name": "to",
          "type": "address"
        },
        {
          "internalType": "uint256",
          "name": "tokenId",
          "type": "uint256"
        }
      ],
      "name": "transferFrom",
      "outputs": [],
      "stateMutability": "nonpayable",
      "type": "function"
    },
    {
      "inputs": [
        {
          "internalType": "address",
          "name": "newOwner",
          "type": "address"
        }
      ],
      "name": "transferOwnership",
      "outputs": [],
      "stateMutability": "nonpayable",
      "type": "function"
    },
    {
      "inputs": [],
      "name": "totalSupply",
      "outputs": [
        {
          "internalType": "uint256",
          "name": "",
          "type": "uint256"
        }
      ],
      "stateMutability": "view",
      "type": "function"
    },
    {
      "inputs": [
        {
          "internalType": "uint256",
          "name": "id",
          "type": "uint256"
        }
      ],
      "name": "getKitty",
      "outputs": [
        {
          "components": [
            {
              "internalType": "uint256",
              "name": "genes",
              "type": "uint256"
            },
            {
              "internalType": "uint64",
              "name": "birthTime",
              "type": "uint64"
            },
            {
              "internalType": "uint32",
              "name": "mumId",
              "type": "uint32"
            },
            {
              "internalType": "uint32",
              "name": "dadId",
              "type": "uint32"
            },
            {
              "internalType": "uint16",
              "name": "generation",
              "type": "uint16"
            }
          ],
          "internalType": "struct Kittycontract.Kitty",
          "name": "",
          "type": "tuple"
        }
      ],
      "stateMutability": "view",
      "type": "function"
    },
    {
      "inputs": [
        {
          "internalType": "address",
          "name": "_owner",
          "type": "address"
        }
      ],
      "name": "getKittyByOwner",
      "outputs": [
        {
          "internalType": "uint256[]",
          "name": "",
          "type": "uint256[]"
        }
      ],
      "stateMutability": "view",
      "type": "function"
    },
    {
      "inputs": [
        {
          "internalType": "uint256",
          "name": "_genes",
          "type": "uint256"
        }
      ],
      "name": "createKittyGen0",
      "outputs": [],
      "stateMutability": "nonpayable",
      "type": "function"
    },
    {
      "inputs": [
        {
          "internalType": "uint256",
          "name": "_dadId",
          "type": "uint256"
        },
        {
          "internalType": "uint256",
          "name": "_mumId",
          "type": "uint256"
        }
      ],
      "name": "breed",
      "outputs": [
        {
          "internalType": "uint256",
          "name": "",
          "type": "uint256"
        }
      ],
      "stateMutability": "nonpayable",
      "type": "function"
    }
  ],
  "bytecode": "0x60806040523480156200001157600080fd5b506040518060400160405280601281526020017f43727970746f4b697474696573436c6f6e6500000000000000000000000000008152506040518060400160405280600381526020017f434b43000000000000000000000000000000000000000000000000000000000081525081600090805190602001906200009692919062000827565b508060019080519060200190620000af92919062000827565b505050620000d2620000c6620000f160201b60201c565b620000f960201b60201c565b620000ea6000806000806000620001bf60201b60201c565b5062000dd9565b600033905090565b6000600660009054906101000a900473ffffffffffffffffffffffffffffffffffffffff16905081600660006101000a81548173ffffffffffffffffffffffffffffffffffffffff021916908373ffffffffffffffffffffffffffffffffffffffff1602179055508173ffffffffffffffffffffffffffffffffffffffff168173ffffffffffffffffffffffffffffffffffffffff167f8be0079c531659141344cd1fd0a4f28419497f9722a3daafe3b4186f6b6457e060405160405180910390a35050565b6000806040518060a001604052808581526020014267ffffffffffffffff1681526020018863ffffffff1681526020018763ffffffff1681526020018661ffff16815250905060078190806001815401808255809150506001900390600052602060002090600202016000909190919091506000820151816000015560208201518160010160006101000a81548167ffffffffffffffff021916908367ffffffffffffffff16021790555060408201518160010160086101000a81548163ffffffff021916908363ffffffff160217905550606082015181600101600c6101000a81548163ffffffff021916908363ffffffff16021790555060808201518160010160106101000a81548161ffff021916908361ffff160217905550505060006001600780549050620002f3919062000910565b90506200030784826200035660201b60201c565b7f7199e1688f07d120d7ec20b11115d87d4ce6352a479110dee4b94ec16f0288a6888888888860405162000340959493929190620009a1565b60405180910390a1809250505095945050505050565b620003788282604051806020016040528060008152506200037c60201b60201c565b5050565b6200038e8383620003ea60201b60201c565b620003a36000848484620005e460201b60201c565b620003e5576040517f08c379a0000000000000000000000000000000000000000000000000000000008152600401620003dc9062000a85565b60405180910390fd5b505050565b600073ffffffffffffffffffffffffffffffffffffffff168273ffffffffffffffffffffffffffffffffffffffff1614156200045d576040517f08c379a0000000000000000000000000000000000000000000000000000000008152600401620004549062000af7565b60405180910390fd5b6200046e816200078e60201b60201c565b15620004b1576040517f08c379a0000000000000000000000000000000000000000000000000000000008152600401620004a89062000b69565b60405180910390fd5b620004c560008383620007fa60201b60201c565b6001600360008473ffffffffffffffffffffffffffffffffffffffff1673ffffffffffffffffffffffffffffffffffffffff168152602001908152602001600020600082825462000517919062000b8b565b92505081905550816002600083815260200190815260200160002060006101000a81548173ffffffffffffffffffffffffffffffffffffffff021916908373ffffffffffffffffffffffffffffffffffffffff160217905550808273ffffffffffffffffffffffffffffffffffffffff16600073ffffffffffffffffffffffffffffffffffffffff167fddf252ad1be2c89b69c2b068fc378daa952ba7f163c4a11628f55a4df523b3ef60405160405180910390a4620005e060008383620007ff60201b60201c565b5050565b6000620006128473ffffffffffffffffffffffffffffffffffffffff166200080460201b6200117a1760201c565b1562000781578373ffffffffffffffffffffffffffffffffffffffff1663150b7a0262000644620000f160201b60201c565b8786866040518563ffffffff1660e01b815260040162000668949392919062000c8c565b6020604051808303816000875af1925050508015620006a757506040513d601f19601f82011682018060405250810190620006a4919062000d42565b60015b62000730573d8060008114620006da576040519150601f19603f3d011682016040523d82523d6000602084013e620006df565b606091505b5060008151141562000728576040517f08c379a00000000000000000000000000000000000000000000000000000000081526004016200071f9062000a85565b60405180910390fd5b805181602001fd5b63150b7a0260e01b7bffffffffffffffffffffffffffffffffffffffffffffffffffffffff1916817bffffffffffffffffffffffffffffffffffffffffffffffffffffffff19161491505062000786565b600190505b949350505050565b60008073ffffffffffffffffffffffffffffffffffffffff166002600084815260200190815260200160002060009054906101000a900473ffffffffffffffffffffffffffffffffffffffff1673ffffffffffffffffffffffffffffffffffffffff1614159050919050565b505050565b505050565b6000808273ffffffffffffffffffffffffffffffffffffffff163b119050919050565b828054620008359062000da3565b90600052602060002090601f016020900481019282620008595760008555620008a5565b82601f106200087457805160ff1916838001178555620008a5565b82800160010185558215620008a5579182015b82811115620008a457825182559160200191906001019062000887565b5b509050620008b49190620008b8565b5090565b5b80821115620008d3576000816000905550600101620008b9565b5090565b6000819050919050565b7f4e487b7100000000000000000000000000000000000000000000000000000000600052601160045260246000fd5b60006200091d82620008d7565b91506200092a83620008d7565b92508282101562000940576200093f620008e1565b5b828203905092915050565b6200095681620008d7565b82525050565b600073ffffffffffffffffffffffffffffffffffffffff82169050919050565b600062000989826200095c565b9050919050565b6200099b816200097c565b82525050565b600060a082019050620009b860008301886200094b565b620009c760208301876200094b565b620009d660408301866200094b565b620009e560608301856200094b565b620009f4608083018462000990565b9695505050505050565b600082825260208201905092915050565b7f4552433732313a207472616e7366657220746f206e6f6e20455243373231526560008201527f63656976657220696d706c656d656e7465720000000000000000000000000000602082015250565b600062000a6d603283620009fe565b915062000a7a8262000a0f565b604082019050919050565b6000602082019050818103600083015262000aa08162000a5e565b9050919050565b7f4552433732313a206d696e7420746f20746865207a65726f2061646472657373600082015250565b600062000adf602083620009fe565b915062000aec8262000aa7565b602082019050919050565b6000602082019050818103600083015262000b128162000ad0565b9050919050565b7f4552433732313a20746f6b656e20616c7265616479206d696e74656400000000600082015250565b600062000b51601c83620009fe565b915062000b5e8262000b19565b602082019050919050565b6000602082019050818103600083015262000b848162000b42565b9050919050565b600062000b9882620008d7565b915062000ba583620008d7565b9250827fffffffffffffffffffffffffffffffffffffffffffffffffffffffffffffffff0382111562000bdd5762000bdc620008e1565b5b828201905092915050565b600081519050919050565b600082825260208201905092915050565b60005b8381101562000c2457808201518184015260208101905062000c07565b8381111562000c34576000848401525b50505050565b6000601f19601f8301169050919050565b600062000c588262000be8565b62000c64818562000bf3565b935062000c7681856020860162000c04565b62000c818162000c3a565b840191505092915050565b600060808201905062000ca3600083018762000990565b62000cb2602083018662000990565b62000cc160408301856200094b565b818103606083015262000cd5818462000c4b565b905095945050505050565b600080fd5b60007fffffffff0000000000000000000000000000000000000000000000000000000082169050919050565b62000d1c8162000ce5565b811462000d2857600080fd5b50565b60008151905062000d3c8162000d11565b92915050565b60006020828403121562000d5b5762000d5a62000ce0565b5b600062000d6b8482850162000d2b565b91505092915050565b7f4e487b7100000000000000000000000000000000000000000000000000000000600052602260045260246000fd5b6000600282049050600182168062000dbc57607f821691505b6020821081141562000dd35762000dd262000d74565b5b50919050565b6136938062000de96000396000f3fe608060405234801561001057600080fd5b506004361061014d5760003560e01c806395d89b41116100c3578063d5a776ca1161007c578063d5a776ca1461039e578063d9ecad7b146103ba578063e985e9c5146103ea578063e98b7f4d1461041a578063ef5e94aa1461044a578063f2fde38b146104685761014d565b806395d89b41146102ca57806395e6c62f146102e8578063a22cb46514610318578063b483433014610334578063b88d4fde14610352578063c87b56dd1461036e5761014d565b806323b872dd1161011557806323b872dd1461020a57806342842e0e146102265780636352211e1461024257806370a0823114610272578063715018a6146102a25780638da5cb5b146102ac5761014d565b806301ffc9a71461015257806306fdde0314610182578063081812fc146101a0578063095ea7b3146101d057806318160ddd146101ec575b600080fd5b61016c60048036038101906101679190612145565b610484565b604051610179919061218d565b60405180910390f35b61018a610566565b6040516101979190612241565b60405180910390f35b6101ba60048036038101906101b59190612299565b6105f8565b6040516101c79190612307565b60405180910390f35b6101ea60048036038101906101e5919061234e565b61067d565b005b6101f4610795565b604051610201919061239d565b60405180910390f35b610224600480360381019061021f91906123b8565b6107a2565b005b610240600480360381019061023b91906123b8565b610802565b005b61025c60048036038101906102579190612299565b610822565b6040516102699190612307565b60405180910390f35b61028c6004803603810190610287919061240b565b6108d4565b604051610299919061239d565b60405180910390f35b6102aa61098c565b005b6102b4610a14565b6040516102c19190612307565b60405180910390f35b6102d2610a3e565b6040516102df9190612241565b60405180910390f35b61030260048036038101906102fd919061240b565b610ad0565b60405161030f91906124f6565b60405180910390f35b610332600480360381019061032d9190612544565b610bc1565b005b61033c610bd7565b604051610349919061239d565b60405180910390f35b61036c600480360381019061036791906126b9565b610bdc565b005b61038860048036038101906103839190612299565b610c3e565b6040516103959190612241565b60405180910390f35b6103b860048036038101906103b39190612299565b610ce5565b005b6103d460048036038101906103cf919061273c565b610dd1565b6040516103e1919061239d565b60405180910390f35b61040460048036038101906103ff919061277c565b610f04565b604051610411919061218d565b60405180910390f35b610434600480360381019061042f9190612299565b610f98565b6040516104419190612883565b60405180910390f35b61045261107c565b60405161045f919061239d565b60405180910390f35b610482600480360381019061047d919061240b565b611082565b005b60007f80ac58cd000000000000000000000000000000000000000000000000000000007bffffffffffffffffffffffffffffffffffffffffffffffffffffffff1916827bffffffffffffffffffffffffffffffffffffffffffffffffffffffff1916148061054f57507f5b5e139f000000000000000000000000000000000000000000000000000000007bffffffffffffffffffffffffffffffffffffffffffffffffffffffff1916827bffffffffffffffffffffffffffffffffffffffffffffffffffffffff1916145b8061055f575061055e8261119d565b5b9050919050565b606060008054610575906128cd565b80601f01602080910402602001604051908101604052809291908181526020018280546105a1906128cd565b80156105ee5780601f106105c3576101008083540402835291602001916105ee565b820191906000526020600020905b8154815290600101906020018083116105d157829003601f168201915b5050505050905090565b600061060382611207565b610642576040517f08c379a000000000000000000000000000000000000000000000000000000000815260040161063990612971565b60405180910390fd5b6004600083815260200190815260200160002060009054906101000a900473ffffffffffffffffffffffffffffffffffffffff169050919050565b600061068882610822565b90508073ffffffffffffffffffffffffffffffffffffffff168373ffffffffffffffffffffffffffffffffffffffff1614156106f9576040517f08c379a00000000000000000000000000000000000000000000000000000000081526004016106f090612a03565b60405180910390fd5b8073ffffffffffffffffffffffffffffffffffffffff16610718611273565b73ffffffffffffffffffffffffffffffffffffffff161480610747575061074681610741611273565b610f04565b5b610786576040517f08c379a000000000000000000000000000000000000000000000000000000000815260040161077d90612a95565b60405180910390fd5b610790838361127b565b505050565b6000600780549050905090565b6107b36107ad611273565b82611334565b6107f2576040517f08c379a00000000000000000000000000000000000000000000000000000000081526004016107e990612b27565b60405180910390fd5b6107fd838383611412565b505050565b61081d83838360405180602001604052806000815250610bdc565b505050565b6000806002600084815260200190815260200160002060009054906101000a900473ffffffffffffffffffffffffffffffffffffffff169050600073ffffffffffffffffffffffffffffffffffffffff168173ffffffffffffffffffffffffffffffffffffffff1614156108cb576040517f08c379a00000000000000000000000000000000000000000000000000000000081526004016108c290612bb9565b60405180910390fd5b80915050919050565b60008073ffffffffffffffffffffffffffffffffffffffff168273ffffffffffffffffffffffffffffffffffffffff161415610945576040517f08c379a000000000000000000000000000000000000000000000000000000000815260040161093c90612c4b565b60405180910390fd5b600360008373ffffffffffffffffffffffffffffffffffffffff1673ffffffffffffffffffffffffffffffffffffffff168152602001908152602001600020549050919050565b610994611273565b73ffffffffffffffffffffffffffffffffffffffff166109b2610a14565b73ffffffffffffffffffffffffffffffffffffffff1614610a08576040517f08c379a00000000000000000000000000000000000000000000000000000000081526004016109ff90612cb7565b60405180910390fd5b610a126000611679565b565b6000600660009054906101000a900473ffffffffffffffffffffffffffffffffffffffff16905090565b606060018054610a4d906128cd565b80601f0160208091040260200160405190810160405280929190818152602001828054610a79906128cd565b8015610ac65780601f10610a9b57610100808354040283529160200191610ac6565b820191906000526020600020905b815481529060010190602001808311610aa957829003601f168201915b5050505050905090565b60606000610add836108d4565b67ffffffffffffffff811115610af657610af561258e565b5b604051908082528060200260200182016040528015610b245781602001602082028036833780820191505090505b5090506000805b600780549050811015610bb6578473ffffffffffffffffffffffffffffffffffffffff16610b5882610822565b73ffffffffffffffffffffffffffffffffffffffff161415610ba35780838381518110610b8857610b87612cd7565b5b6020026020010181815250508180610b9f90612d35565b9250505b8080610bae90612d35565b915050610b2b565b508192505050919050565b610bd3610bcc611273565b838361173f565b5050565b600a81565b610bed610be7611273565b83611334565b610c2c576040517f08c379a0000000000000000000000000000000000000000000000000000000008152600401610c2390612b27565b60405180910390fd5b610c38848484846118ac565b50505050565b6060610c4982611207565b610c88576040517f08c379a0000000000000000000000000000000000000000000000000000000008152600401610c7f90612df0565b60405180910390fd5b6000610c92611908565b90506000815111610cb25760405180602001604052806000815250610cdd565b80610cbc8461191f565b604051602001610ccd929190612e4c565b6040516020818303038152906040525b915050919050565b610ced611273565b73ffffffffffffffffffffffffffffffffffffffff16610d0b610a14565b73ffffffffffffffffffffffffffffffffffffffff1614610d61576040517f08c379a0000000000000000000000000000000000000000000000000000000008152600401610d5890612cb7565b60405180910390fd5b600a60085410610da6576040517f08c379a0000000000000000000000000000000000000000000000000000000008152600401610d9d90612ee2565b60405180910390fd5b60086000815480929190610db990612d35565b9190505550610dcd60008060008433611a80565b5050565b6000610ddb611273565b73ffffffffffffffffffffffffffffffffffffffff16610dfa84610822565b73ffffffffffffffffffffffffffffffffffffffff16148015610e575750610e20611273565b73ffffffffffffffffffffffffffffffffffffffff16610e3f83610822565b73ffffffffffffffffffffffffffffffffffffffff16145b610e96576040517f08c379a0000000000000000000000000000000000000000000000000000000008152600401610e8d90612f74565b60405180910390fd5b6000610ea184610f98565b90506000610eae84610f98565b90506000610ec483600001518360000151611c0b565b90506000610ee2846080015161ffff16846080015161ffff16611c5f565b9050610ef886888385610ef3611273565b611a80565b94505050505092915050565b6000600560008473ffffffffffffffffffffffffffffffffffffffff1673ffffffffffffffffffffffffffffffffffffffff16815260200190815260200160002060008373ffffffffffffffffffffffffffffffffffffffff1673ffffffffffffffffffffffffffffffffffffffff16815260200190815260200160002060009054906101000a900460ff16905092915050565b610fa0612090565b60078281548110610fb457610fb3612cd7565b5b90600052602060002090600202016040518060a0016040529081600082015481526020016001820160009054906101000a900467ffffffffffffffff1667ffffffffffffffff1667ffffffffffffffff1681526020016001820160089054906101000a900463ffffffff1663ffffffff1663ffffffff16815260200160018201600c9054906101000a900463ffffffff1663ffffffff1663ffffffff1681526020016001820160109054906101000a900461ffff1661ffff1661ffff16815250509050919050565b60085481565b61108a611273565b73ffffffffffffffffffffffffffffffffffffffff166110a8610a14565b73ffffffffffffffffffffffffffffffffffffffff16146110fe576040517f08c379a00000000000000000000000000000000000000000000000000000000081526004016110f590612cb7565b60405180910390fd5b600073ffffffffffffffffffffffffffffffffffffffff168173ffffffffffffffffffffffffffffffffffffffff16141561116e576040517f08c379a000000000000000000000000000000000000000000000000000000000815260040161116590613006565b60405180910390fd5b61117781611679565b50565b6000808273ffffffffffffffffffffffffffffffffffffffff163b119050919050565b60007f01ffc9a7000000000000000000000000000000000000000000000000000000007bffffffffffffffffffffffffffffffffffffffffffffffffffffffff1916827bffffffffffffffffffffffffffffffffffffffffffffffffffffffff1916149050919050565b60008073ffffffffffffffffffffffffffffffffffffffff166002600084815260200190815260200160002060009054906101000a900473ffffffffffffffffffffffffffffffffffffffff1673ffffffffffffffffffffffffffffffffffffffff1614159050919050565b600033905090565b816004600083815260200190815260200160002060006101000a81548173ffffffffffffffffffffffffffffffffffffffff021916908373ffffffffffffffffffffffffffffffffffffffff160217905550808273ffffffffffffffffffffffffffffffffffffffff166112ee83610822565b73ffffffffffffffffffffffffffffffffffffffff167f8c5be1e5ebec7d5bd14f71427d1e84f3dd0314c0f7b2291e5b200ac8c7c3b92560405160405180910390a45050565b600061133f82611207565b61137e576040517f08c379a000000000000000000000000000000000000000000000000000000000815260040161137590613098565b60405180910390fd5b600061138983610822565b90508073ffffffffffffffffffffffffffffffffffffffff168473ffffffffffffffffffffffffffffffffffffffff1614806113f857508373ffffffffffffffffffffffffffffffffffffffff166113e0846105f8565b73ffffffffffffffffffffffffffffffffffffffff16145b8061140957506114088185610f04565b5b91505092915050565b8273ffffffffffffffffffffffffffffffffffffffff1661143282610822565b73ffffffffffffffffffffffffffffffffffffffff1614611488576040517f08c379a000000000000000000000000000000000000000000000000000000000815260040161147f9061312a565b60405180910390fd5b600073ffffffffffffffffffffffffffffffffffffffff168273ffffffffffffffffffffffffffffffffffffffff1614156114f8576040517f08c379a00000000000000000000000000000000000000000000000000000000081526004016114ef906131bc565b60405180910390fd5b611503838383611cab565b61150e60008261127b565b6001600360008573ffffffffffffffffffffffffffffffffffffffff1673ffffffffffffffffffffffffffffffffffffffff168152602001908152602001600020600082825461155e91906131dc565b925050819055506001600360008473ffffffffffffffffffffffffffffffffffffffff1673ffffffffffffffffffffffffffffffffffffffff16815260200190815260200160002060008282546115b59190613210565b92505081905550816002600083815260200190815260200160002060006101000a81548173ffffffffffffffffffffffffffffffffffffffff021916908373ffffffffffffffffffffffffffffffffffffffff160217905550808273ffffffffffffffffffffffffffffffffffffffff168473ffffffffffffffffffffffffffffffffffffffff167fddf252ad1be2c89b69c2b068fc378daa952ba7f163c4a11628f55a4df523b3ef60405160405180910390a4611674838383611cb0565b505050565b6000600660009054906101000a900473ffffffffffffffffffffffffffffffffffffffff16905081600660006101000a81548173ffffffffffffffffffffffffffffffffffffffff021916908373ffffffffffffffffffffffffffffffffffffffff1602179055508173ffffffffffffffffffffffffffffffffffffffff168173ffffffffffffffffffffffffffffffffffffffff167f8be0079c531659141344cd1fd0a4f28419497f9722a3daafe3b4186f6b6457e060405160405180910390a35050565b8173ffffffffffffffffffffffffffffffffffffffff168373ffffffffffffffffffffffffffffffffffffffff1614156117ae576040517f08c379a00000000000000000000000000000000000000000000000000000000081526004016117a5906132b2565b60405180910390fd5b80600560008573ffffffffffffffffffffffffffffffffffffffff1673ffffffffffffffffffffffffffffffffffffffff16815260200190815260200160002060008473ffffffffffffffffffffffffffffffffffffffff1673ffffffffffffffffffffffffffffffffffffffff16815260200190815260200160002060006101000a81548160ff0219169083151502179055508173ffffffffffffffffffffffffffffffffffffffff168373ffffffffffffffffffffffffffffffffffffffff167f17307eab39ab6107e8899845ad3d59bd9653f200f220920489ca2b5937696c318360405161189f919061218d565b60405180910390a3505050565b6118b7848484611412565b6118c384848484611cb5565b611902576040517f08c379a00000000000000000000000000000000000000000000000000000000081526004016118f990613344565b60405180910390fd5b50505050565b606060405180602001604052806000815250905090565b60606000821415611967576040518060400160405280600181526020017f30000000000000000000000000000000000000000000000000000000000000008152509050611a7b565b600082905060005b6000821461199957808061198290612d35565b915050600a826119929190613393565b915061196f565b60008167ffffffffffffffff8111156119b5576119b461258e565b5b6040519080825280601f01601f1916602001820160405280156119e75781602001600182028036833780820191505090505b5090505b60008514611a7457600182611a0091906131dc565b9150600a85611a0f91906133c4565b6030611a1b9190613210565b60f81b818381518110611a3157611a30612cd7565b5b60200101907effffffffffffffffffffffffffffffffffffffffffffffffffffffffffffff1916908160001a905350600a85611a6d9190613393565b94506119eb565b8093505050505b919050565b6000806040518060a001604052808581526020014267ffffffffffffffff1681526020018863ffffffff1681526020018763ffffffff1681526020018661ffff16815250905060078190806001815401808255809150506001900390600052602060002090600202016000909190919091506000820151816000015560208201518160010160006101000a81548167ffffffffffffffff021916908367ffffffffffffffff16021790555060408201518160010160086101000a81548163ffffffff021916908363ffffffff160217905550606082015181600101600c6101000a81548163ffffffff021916908363ffffffff16021790555060808201518160010160106101000a81548161ffff021916908361ffff160217905550505060006001600780549050611bb291906131dc565b9050611bbe8482611e3d565b7f7199e1688f07d120d7ec20b11115d87d4ce6352a479110dee4b94ec16f0288a68888888888604051611bf59594939291906133f5565b60405180910390a1809250505095945050505050565b6000806305f5e10084611c1e9190613393565b905060006305f5e10084611c3291906133c4565b90506000816305f5e10084611c479190613448565b611c519190613210565b905080935050505092915050565b6000600182611c6e9190613210565b600184611c7b9190613210565b1115611c9557600183611c8e9190613210565b9050611ca5565b600182611ca29190613210565b90505b92915050565b505050565b505050565b6000611cd68473ffffffffffffffffffffffffffffffffffffffff1661117a565b15611e30578373ffffffffffffffffffffffffffffffffffffffff1663150b7a02611cff611273565b8786866040518563ffffffff1660e01b8152600401611d2194939291906134f7565b6020604051808303816000875af1925050508015611d5d57506040513d601f19601f82011682018060405250810190611d5a9190613558565b60015b611de0573d8060008114611d8d576040519150601f19603f3d011682016040523d82523d6000602084013e611d92565b606091505b50600081511415611dd8576040517f08c379a0000000000000000000000000000000000000000000000000000000008152600401611dcf90613344565b60405180910390fd5b805181602001fd5b63150b7a0260e01b7bffffffffffffffffffffffffffffffffffffffffffffffffffffffff1916817bffffffffffffffffffffffffffffffffffffffffffffffffffffffff191614915050611e35565b600190505b949350505050565b611e57828260405180602001604052806000815250611e5b565b5050565b611e658383611eb6565b611e726000848484611cb5565b611eb1576040517f08c379a0000000000000000000000000000000000000000000000000000000008152600401611ea890613344565b60405180910390fd5b505050565b600073ffffffffffffffffffffffffffffffffffffffff168273ffffffffffffffffffffffffffffffffffffffff161415611f26576040517f08c379a0000000000000000000000000000000000000000000000000000000008152600401611f1d906135d1565b60405180910390fd5b611f2f81611207565b15611f6f576040517f08c379a0000000000000000000000000000000000000000000000000000000008152600401611f669061363d565b60405180910390fd5b611f7b60008383611cab565b6001600360008473ffffffffffffffffffffffffffffffffffffffff1673ffffffffffffffffffffffffffffffffffffffff1681526020019081526020016000206000828254611fcb9190613210565b92505081905550816002600083815260200190815260200160002060006101000a81548173ffffffffffffffffffffffffffffffffffffffff021916908373ffffffffffffffffffffffffffffffffffffffff160217905550808273ffffffffffffffffffffffffffffffffffffffff16600073ffffffffffffffffffffffffffffffffffffffff167fddf252ad1be2c89b69c2b068fc378daa952ba7f163c4a11628f55a4df523b3ef60405160405180910390a461208c60008383611cb0565b5050565b6040518060a0016040528060008152602001600067ffffffffffffffff168152602001600063ffffffff168152602001600063ffffffff168152602001600061ffff1681525090565b6000604051905090565b600080fd5b600080fd5b60007fffffffff0000000000000000000000000000000000000000000000000000000082169050919050565b612122816120ed565b811461212d57600080fd5b50565b60008135905061213f81612119565b92915050565b60006020828403121561215b5761215a6120e3565b5b600061216984828501612130565b91505092915050565b60008115159050919050565b61218781612172565b82525050565b60006020820190506121a2600083018461217e565b92915050565b600081519050919050565b600082825260208201905092915050565b60005b838110156121e25780820151818401526020810190506121c7565b838111156121f1576000848401525b50505050565b6000601f19601f8301169050919050565b6000612213826121a8565b61221d81856121b3565b935061222d8185602086016121c4565b612236816121f7565b840191505092915050565b6000602082019050818103600083015261225b8184612208565b905092915050565b6000819050919050565b61227681612263565b811461228157600080fd5b50565b6000813590506122938161226d565b92915050565b6000602082840312156122af576122ae6120e3565b5b60006122bd84828501612284565b91505092915050565b600073ffffffffffffffffffffffffffffffffffffffff82169050919050565b60006122f1826122c6565b9050919050565b612301816122e6565b82525050565b600060208201905061231c60008301846122f8565b92915050565b61232b816122e6565b811461233657600080fd5b50565b60008135905061234881612322565b92915050565b60008060408385031215612365576123646120e3565b5b600061237385828601612339565b925050602061238485828601612284565b9150509250929050565b61239781612263565b82525050565b60006020820190506123b2600083018461238e565b92915050565b6000806000606084860312156123d1576123d06120e3565b5b60006123df86828701612339565b93505060206123f086828701612339565b925050604061240186828701612284565b9150509250925092565b600060208284031215612421576124206120e3565b5b600061242f84828501612339565b91505092915050565b600081519050919050565b600082825260208201905092915050565b6000819050602082019050919050565b61246d81612263565b82525050565b600061247f8383612464565b60208301905092915050565b6000602082019050919050565b60006124a382612438565b6124ad8185612443565b93506124b883612454565b8060005b838110156124e95781516124d08882612473565b97506124db8361248b565b9250506001810190506124bc565b5085935050505092915050565b600060208201905081810360008301526125108184612498565b905092915050565b61252181612172565b811461252c57600080fd5b50565b60008135905061253e81612518565b92915050565b6000806040838503121561255b5761255a6120e3565b5b600061256985828601612339565b925050602061257a8582860161252f565b9150509250929050565b600080fd5b600080fd5b7f4e487b7100000000000000000000000000000000000000000000000000000000600052604160045260246000fd5b6125c6826121f7565b810181811067ffffffffffffffff821117156125e5576125e461258e565b5b80604052505050565b60006125f86120d9565b905061260482826125bd565b919050565b600067ffffffffffffffff8211156126245761262361258e565b5b61262d826121f7565b9050602081019050919050565b82818337600083830152505050565b600061265c61265784612609565b6125ee565b90508281526020810184848401111561267857612677612589565b5b61268384828561263a565b509392505050565b600082601f8301126126a05761269f612584565b5b81356126b0848260208601612649565b91505092915050565b600080600080608085870312156126d3576126d26120e3565b5b60006126e187828801612339565b94505060206126f287828801612339565b935050604061270387828801612284565b925050606085013567ffffffffffffffff811115612724576127236120e8565b5b6127308782880161268b565b91505092959194509250565b60008060408385031215612753576127526120e3565b5b600061276185828601612284565b925050602061277285828601612284565b9150509250929050565b60008060408385031215612793576127926120e3565b5b60006127a185828601612339565b92505060206127b285828601612339565b9150509250929050565b600067ffffffffffffffff82169050919050565b6127d9816127bc565b82525050565b600063ffffffff82169050919050565b6127f8816127df565b82525050565b600061ffff82169050919050565b612815816127fe565b82525050565b60a0820160008201516128316000850182612464565b50602082015161284460208501826127d0565b50604082015161285760408501826127ef565b50606082015161286a60608501826127ef565b50608082015161287d608085018261280c565b50505050565b600060a082019050612898600083018461281b565b92915050565b7f4e487b7100000000000000000000000000000000000000000000000000000000600052602260045260246000fd5b600060028204905060018216806128e557607f821691505b602082108114156128f9576128f861289e565b5b50919050565b7f4552433732313a20617070726f76656420717565727920666f72206e6f6e657860008201527f697374656e7420746f6b656e0000000000000000000000000000000000000000602082015250565b600061295b602c836121b3565b9150612966826128ff565b604082019050919050565b6000602082019050818103600083015261298a8161294e565b9050919050565b7f4552433732313a20617070726f76616c20746f2063757272656e74206f776e6560008201527f7200000000000000000000000000000000000000000000000000000000000000602082015250565b60006129ed6021836121b3565b91506129f882612991565b604082019050919050565b60006020820190508181036000830152612a1c816129e0565b9050919050565b7f4552433732313a20617070726f76652063616c6c6572206973206e6f74206f7760008201527f6e6572206e6f7220617070726f76656420666f7220616c6c0000000000000000602082015250565b6000612a7f6038836121b3565b9150612a8a82612a23565b604082019050919050565b60006020820190508181036000830152612aae81612a72565b9050919050565b7f4552433732313a207472616e736665722063616c6c6572206973206e6f74206f60008201527f776e6572206e6f7220617070726f766564000000000000000000000000000000602082015250565b6000612b116031836121b3565b9150612b1c82612ab5565b604082019050919050565b60006020820190508181036000830152612b4081612b04565b9050919050565b7f4552433732313a206f776e657220717565727920666f72206e6f6e657869737460008201527f656e7420746f6b656e0000000000000000000000000000000000000000000000602082015250565b6000612ba36029836121b3565b9150612bae82612b47565b604082019050919050565b60006020820190508181036000830152612bd281612b96565b9050919050565b7f4552433732313a2062616c616e636520717565727920666f7220746865207a6560008201527f726f206164647265737300000000000000000000000000000000000000000000602082015250565b6000612c35602a836121b3565b9150612c4082612bd9565b604082019050919050565b60006020820190508181036000830152612c6481612c28565b9050919050565b7f4f776e61626c653a2063616c6c6572206973206e6f7420746865206f776e6572600082015250565b6000612ca16020836121b3565b9150612cac82612c6b565b602082019050919050565b60006020820190508181036000830152612cd081612c94565b9050919050565b7f4e487b7100000000000000000000000000000000000000000000000000000000600052603260045260246000fd5b7f4e487b7100000000000000000000000000000000000000000000000000000000600052601160045260246000fd5b6000612d4082612263565b91507fffffffffffffffffffffffffffffffffffffffffffffffffffffffffffffffff821415612d7357612d72612d06565b5b600182019050919050565b7f4552433732314d657461646174613a2055524920717565727920666f72206e6f60008201527f6e6578697374656e7420746f6b656e0000000000000000000000000000000000602082015250565b6000612dda602f836121b3565b9150612de582612d7e565b604082019050919050565b60006020820190508181036000830152612e0981612dcd565b9050919050565b600081905092915050565b6000612e26826121a8565b612e308185612e10565b9350612e408185602086016121c4565b80840191505092915050565b6000612e588285612e1b565b9150612e648284612e1b565b91508190509392505050565b7f416d6f756e74206f662066697273742067656e65726174696f6e206b6974746960008201527f6573206973206578636565646564000000000000000000000000000000000000602082015250565b6000612ecc602e836121b3565b9150612ed782612e70565b604082019050919050565b60006020820190508181036000830152612efb81612ebf565b9050919050565b7f596f7520617265206e6f7420746865206f776e6572206f66207468656573206b60008201527f6974746965730000000000000000000000000000000000000000000000000000602082015250565b6000612f5e6026836121b3565b9150612f6982612f02565b604082019050919050565b60006020820190508181036000830152612f8d81612f51565b9050919050565b7f4f776e61626c653a206e6577206f776e657220697320746865207a65726f206160008201527f6464726573730000000000000000000000000000000000000000000000000000602082015250565b6000612ff06026836121b3565b9150612ffb82612f94565b604082019050919050565b6000602082019050818103600083015261301f81612fe3565b9050919050565b7f4552433732313a206f70657261746f7220717565727920666f72206e6f6e657860008201527f697374656e7420746f6b656e0000000000000000000000000000000000000000602082015250565b6000613082602c836121b3565b915061308d82613026565b604082019050919050565b600060208201905081810360008301526130b181613075565b9050919050565b7f4552433732313a207472616e736665722066726f6d20696e636f72726563742060008201527f6f776e6572000000000000000000000000000000000000000000000000000000602082015250565b60006131146025836121b3565b915061311f826130b8565b604082019050919050565b6000602082019050818103600083015261314381613107565b9050919050565b7f4552433732313a207472616e7366657220746f20746865207a65726f2061646460008201527f7265737300000000000000000000000000000000000000000000000000000000602082015250565b60006131a66024836121b3565b91506131b18261314a565b604082019050919050565b600060208201905081810360008301526131d581613199565b9050919050565b60006131e782612263565b91506131f283612263565b92508282101561320557613204612d06565b5b828203905092915050565b600061321b82612263565b915061322683612263565b9250827fffffffffffffffffffffffffffffffffffffffffffffffffffffffffffffffff0382111561325b5761325a612d06565b5b828201905092915050565b7f4552433732313a20617070726f766520746f2063616c6c657200000000000000600082015250565b600061329c6019836121b3565b91506132a782613266565b602082019050919050565b600060208201905081810360008301526132cb8161328f565b9050919050565b7f4552433732313a207472616e7366657220746f206e6f6e20455243373231526560008201527f63656976657220696d706c656d656e7465720000000000000000000000000000602082015250565b600061332e6032836121b3565b9150613339826132d2565b604082019050919050565b6000602082019050818103600083015261335d81613321565b9050919050565b7f4e487b7100000000000000000000000000000000000000000000000000000000600052601260045260246000fd5b600061339e82612263565b91506133a983612263565b9250826133b9576133b8613364565b5b828204905092915050565b60006133cf82612263565b91506133da83612263565b9250826133ea576133e9613364565b5b828206905092915050565b600060a08201905061340a600083018861238e565b613417602083018761238e565b613424604083018661238e565b613431606083018561238e565b61343e60808301846122f8565b9695505050505050565b600061345382612263565b915061345e83612263565b9250817fffffffffffffffffffffffffffffffffffffffffffffffffffffffffffffffff048311821515161561349757613496612d06565b5b828202905092915050565b600081519050919050565b600082825260208201905092915050565b60006134c9826134a2565b6134d381856134ad565b93506134e38185602086016121c4565b6134ec816121f7565b840191505092915050565b600060808201905061350c60008301876122f8565b61351960208301866122f8565b613526604083018561238e565b818103606083015261353881846134be565b905095945050505050565b60008151905061355281612119565b92915050565b60006020828403121561356e5761356d6120e3565b5b600061357c84828501613543565b91505092915050565b7f4552433732313a206d696e7420746f20746865207a65726f2061646472657373600082015250565b60006135bb6020836121b3565b91506135c682613585565b602082019050919050565b600060208201905081810360008301526135ea816135ae565b9050919050565b7f4552433732313a20746f6b656e20616c7265616479206d696e74656400000000600082015250565b6000613627601c836121b3565b9150613632826135f1565b602082019050919050565b600060208201905081810360008301526136568161361a565b905091905056fea26469706673582212204dce0bb2dbc213429dc7c07f8d2a6e43242e3de839e138c5c9ace5d33ffe8d5a64736f6c634300080b0033",
  "immutableReferences": {},
  "source": "pragma solidity ^0.8.0;\r\n\r\nimport \"../node_modules/@openzeppelin/contracts/token/ERC721/ERC721.sol\";\r\nimport \"../node_modules/@openzeppelin/contracts/access/Ownable.sol\";\r\n\r\ncontract Kittycontract is ERC721(\"CryptoKittiesClone\", \"CKC\"), Ownable {\r\n  struct Kitty {\r\n    uint256 genes;\r\n    uint64 birthTime;\r\n    uint32 mumId;\r\n    uint32 dadId;\r\n    uint16 generation;\r\n  }\r\n  \r\n  Kitty[] kitties;\r\n\r\n  function totalSupply() view public returns (uint) {\r\n    return kitties.length;\r\n  }  \r\n\r\n  function getKitty(uint id) public view returns (Kitty memory) {\r\n    return kitties[id];\r\n  }\r\n\r\n  function getKittyByOwner(address _owner) external view returns(uint[] memory) {\r\n    uint[] memory result = new uint[](balanceOf(_owner));\r\n    uint counter = 0;\r\n    for (uint i = 0; i < kitties.length; i++) {\r\n      if (ownerOf(i) == _owner) {\r\n        result[counter] = i;\r\n        counter++;\r\n      }\r\n    }\r\n    return result;\r\n  }\r\n\r\n  uint public constant CREATION_LIMIT_GEN0 = 10;\r\n  uint public gen0Counter;\r\n\r\n  event Birth(\r\n    uint256 _mumId,\r\n    uint256 _dadId,\r\n    uint256 _generation,\r\n    uint256 _genes,\r\n    address _owner\r\n  );\r\n\r\n  // prefents the error with marketplace getAllTokenOnSale()\r\n  constructor () public {\r\n    _createKitty(0, 0, 0, 0, address(0));\r\n  }\r\n\r\n  function createKittyGen0(uint256 _genes) public onlyOwner {\r\n    require(gen0Counter < CREATION_LIMIT_GEN0, 'Amount of first generation kitties is exceeded');\r\n    gen0Counter++;\r\n    // Gen0 have to be owned by the contract\r\n    _createKitty(0, 0, 0, _genes, msg.sender);\r\n  }\r\n\r\n  function _createKitty(\r\n    uint256 _mumId,\r\n    uint256 _dadId,\r\n    uint256 _generation,\r\n    uint256 _genes,\r\n    address _owner\r\n  ) private returns (uint256) {\r\n    Kitty memory _kitty = Kitty({\r\n      genes: _genes,\r\n      birthTime: uint64(block.timestamp),\r\n      mumId: uint32(_mumId),\r\n      dadId: uint32(_dadId),\r\n      generation: uint16(_generation)\r\n    });\r\n\r\n    kitties.push(_kitty);\r\n    uint256 newKittenId = kitties.length - 1;\r\n\r\n    _safeMint(_owner, newKittenId);\r\n    emit Birth(_mumId, _dadId, _generation, _genes, _owner);\r\n    \r\n    return newKittenId;\r\n  }\r\n\r\n  function breed(uint _dadId, uint _mumId) public returns (uint) {\r\n    //check ownership\r\n    require(ownerOf(_dadId) == _msgSender() && ownerOf(_mumId) == _msgSender(),\r\n     \"You are not the owner of thees kitties\"\r\n     );\r\n    //get parents data\r\n    Kitty memory dad = getKitty(_dadId);\r\n    Kitty memory mum = getKitty(_mumId);\r\n\r\n    uint newDna = _mixDna(dad.genes, mum.genes);\r\n    //figure out the generation\r\n    uint newGen = _newGeneration(dad.generation, mum.generation);\r\n    //create a new cat with the new props, give it to the msg.sender\r\n    return _createKitty(_mumId, _dadId, newGen, newDna, _msgSender());\r\n  }\r\n\r\n  function _mixDna(uint _dadDna, uint _mumDna) pure internal returns (uint) {\r\n    uint firstHalf = _dadDna / 100000000;\r\n    uint secondHalf = _mumDna % 100000000;\r\n    uint mixedDna = firstHalf * 100000000 + secondHalf;\r\n    return mixedDna;     \r\n  }\r\n\r\n  function _newGeneration(uint _dadGen, uint _mumGen) pure internal returns (uint) {\r\n    if (_dadGen + 1 > _mumGen + 1) {\r\n        return _dadGen + 1;\r\n    } \r\n    return _mumGen + 1;    \r\n  }\r\n}\r\n\r\n",
  "sourcePath": "C:\\\\eth_sandbox\\crypto_kitties_clone\\contracts\\Kittycontract.sol",
  "compiler": {
    "name": "solc",
    "version": "0.8.11+commit.d7f03943.Emscripten.clang"
  },
  "schemaVersion": "3.4.5",
  "updatedAt": "2022-03-18T11:03:24.555Z",
  "devdoc": {
    "kind": "dev",
    "methods": {
      "approve(address,uint256)": {
        "details": "See {IERC721-approve}."
      },
      "balanceOf(address)": {
        "details": "See {IERC721-balanceOf}."
      },
      "getApproved(uint256)": {
        "details": "See {IERC721-getApproved}."
      },
      "isApprovedForAll(address,address)": {
        "details": "See {IERC721-isApprovedForAll}."
      },
      "name()": {
        "details": "See {IERC721Metadata-name}."
      },
      "owner()": {
        "details": "Returns the address of the current owner."
      },
      "ownerOf(uint256)": {
        "details": "See {IERC721-ownerOf}."
      },
      "renounceOwnership()": {
        "details": "Leaves the contract without owner. It will not be possible to call `onlyOwner` functions anymore. Can only be called by the current owner. NOTE: Renouncing ownership will leave the contract without an owner, thereby removing any functionality that is only available to the owner."
      },
      "safeTransferFrom(address,address,uint256)": {
        "details": "See {IERC721-safeTransferFrom}."
      },
      "safeTransferFrom(address,address,uint256,bytes)": {
        "details": "See {IERC721-safeTransferFrom}."
      },
      "setApprovalForAll(address,bool)": {
        "details": "See {IERC721-setApprovalForAll}."
      },
      "supportsInterface(bytes4)": {
        "details": "See {IERC165-supportsInterface}."
      },
      "symbol()": {
        "details": "See {IERC721Metadata-symbol}."
      },
      "tokenURI(uint256)": {
        "details": "See {IERC721Metadata-tokenURI}."
      },
      "transferFrom(address,address,uint256)": {
        "details": "See {IERC721-transferFrom}."
      },
      "transferOwnership(address)": {
        "details": "Transfers ownership of the contract to a new account (`newOwner`). Can only be called by the current owner."
      }
    },
    "version": 1
  },
  "userdoc": {
    "kind": "user",
    "methods": {},
    "version": 1
  }
}