{
  "contractName": "Kittycontract",
  "abi": [
    {
      "anonymous": false,
      "inputs": [
        {
          "indexed": true,
          "internalType": "address",
          "name": "owner",
          "type": "address"
        },
        {
          "indexed": true,
          "internalType": "address",
          "name": "approved",
          "type": "address"
        },
        {
          "indexed": true,
          "internalType": "uint256",
          "name": "tokenId",
          "type": "uint256"
        }
      ],
      "name": "Approval",
      "type": "event"
    },
    {
      "anonymous": false,
      "inputs": [
        {
          "indexed": true,
          "internalType": "address",
          "name": "owner",
          "type": "address"
        },
        {
          "indexed": true,
          "internalType": "address",
          "name": "operator",
          "type": "address"
        },
        {
          "indexed": false,
          "internalType": "bool",
          "name": "approved",
          "type": "bool"
        }
      ],
      "name": "ApprovalForAll",
      "type": "event"
    },
    {
      "anonymous": false,
      "inputs": [
        {
          "indexed": false,
          "internalType": "uint256",
          "name": "_mumId",
          "type": "uint256"
        },
        {
          "indexed": false,
          "internalType": "uint256",
          "name": "_dadId",
          "type": "uint256"
        },
        {
          "indexed": false,
          "internalType": "uint256",
          "name": "_generation",
          "type": "uint256"
        },
        {
          "indexed": false,
          "internalType": "uint256",
          "name": "_genes",
          "type": "uint256"
        },
        {
          "indexed": false,
          "internalType": "address",
          "name": "_owner",
          "type": "address"
        }
      ],
      "name": "Birth",
      "type": "event"
    },
    {
      "anonymous": false,
      "inputs": [
        {
          "indexed": true,
          "internalType": "address",
          "name": "previousOwner",
          "type": "address"
        },
        {
          "indexed": true,
          "internalType": "address",
          "name": "newOwner",
          "type": "address"
        }
      ],
      "name": "OwnershipTransferred",
      "type": "event"
    },
    {
      "anonymous": false,
      "inputs": [
        {
          "indexed": true,
          "internalType": "address",
          "name": "from",
          "type": "address"
        },
        {
          "indexed": true,
          "internalType": "address",
          "name": "to",
          "type": "address"
        },
        {
          "indexed": true,
          "internalType": "uint256",
          "name": "tokenId",
          "type": "uint256"
        }
      ],
      "name": "Transfer",
      "type": "event"
    },
    {
      "inputs": [],
      "name": "CREATION_LIMIT_GEN0",
      "outputs": [
        {
          "internalType": "uint256",
          "name": "",
          "type": "uint256"
        }
      ],
      "stateMutability": "view",
      "type": "function",
      "constant": true
    },
    {
      "inputs": [
        {
          "internalType": "address",
          "name": "to",
          "type": "address"
        },
        {
          "internalType": "uint256",
          "name": "tokenId",
          "type": "uint256"
        }
      ],
      "name": "approve",
      "outputs": [],
      "stateMutability": "nonpayable",
      "type": "function"
    },
    {
      "inputs": [
        {
          "internalType": "address",
          "name": "owner",
          "type": "address"
        }
      ],
      "name": "balanceOf",
      "outputs": [
        {
          "internalType": "uint256",
          "name": "",
          "type": "uint256"
        }
      ],
      "stateMutability": "view",
      "type": "function",
      "constant": true
    },
    {
      "inputs": [],
      "name": "gen0Counter",
      "outputs": [
        {
          "internalType": "uint256",
          "name": "",
          "type": "uint256"
        }
      ],
      "stateMutability": "view",
      "type": "function",
      "constant": true
    },
    {
      "inputs": [
        {
          "internalType": "uint256",
          "name": "tokenId",
          "type": "uint256"
        }
      ],
      "name": "getApproved",
      "outputs": [
        {
          "internalType": "address",
          "name": "",
          "type": "address"
        }
      ],
      "stateMutability": "view",
      "type": "function",
      "constant": true
    },
    {
      "inputs": [
        {
          "internalType": "address",
          "name": "owner",
          "type": "address"
        },
        {
          "internalType": "address",
          "name": "operator",
          "type": "address"
        }
      ],
      "name": "isApprovedForAll",
      "outputs": [
        {
          "internalType": "bool",
          "name": "",
          "type": "bool"
        }
      ],
      "stateMutability": "view",
      "type": "function",
      "constant": true
    },
    {
      "inputs": [],
      "name": "name",
      "outputs": [
        {
          "internalType": "string",
          "name": "",
          "type": "string"
        }
      ],
      "stateMutability": "view",
      "type": "function",
      "constant": true
    },
    {
      "inputs": [],
      "name": "owner",
      "outputs": [
        {
          "internalType": "address",
          "name": "",
          "type": "address"
        }
      ],
      "stateMutability": "view",
      "type": "function",
      "constant": true
    },
    {
      "inputs": [
        {
          "internalType": "uint256",
          "name": "tokenId",
          "type": "uint256"
        }
      ],
      "name": "ownerOf",
      "outputs": [
        {
          "internalType": "address",
          "name": "",
          "type": "address"
        }
      ],
      "stateMutability": "view",
      "type": "function",
      "constant": true
    },
    {
      "inputs": [],
      "name": "renounceOwnership",
      "outputs": [],
      "stateMutability": "nonpayable",
      "type": "function"
    },
    {
      "inputs": [
        {
          "internalType": "address",
          "name": "from",
          "type": "address"
        },
        {
          "internalType": "address",
          "name": "to",
          "type": "address"
        },
        {
          "internalType": "uint256",
          "name": "tokenId",
          "type": "uint256"
        }
      ],
      "name": "safeTransferFrom",
      "outputs": [],
      "stateMutability": "nonpayable",
      "type": "function"
    },
    {
      "inputs": [
        {
          "internalType": "address",
          "name": "from",
          "type": "address"
        },
        {
          "internalType": "address",
          "name": "to",
          "type": "address"
        },
        {
          "internalType": "uint256",
          "name": "tokenId",
          "type": "uint256"
        },
        {
          "internalType": "bytes",
          "name": "_data",
          "type": "bytes"
        }
      ],
      "name": "safeTransferFrom",
      "outputs": [],
      "stateMutability": "nonpayable",
      "type": "function"
    },
    {
      "inputs": [
        {
          "internalType": "address",
          "name": "operator",
          "type": "address"
        },
        {
          "internalType": "bool",
          "name": "approved",
          "type": "bool"
        }
      ],
      "name": "setApprovalForAll",
      "outputs": [],
      "stateMutability": "nonpayable",
      "type": "function"
    },
    {
      "inputs": [
        {
          "internalType": "bytes4",
          "name": "interfaceId",
          "type": "bytes4"
        }
      ],
      "name": "supportsInterface",
      "outputs": [
        {
          "internalType": "bool",
          "name": "",
          "type": "bool"
        }
      ],
      "stateMutability": "view",
      "type": "function",
      "constant": true
    },
    {
      "inputs": [],
      "name": "symbol",
      "outputs": [
        {
          "internalType": "string",
          "name": "",
          "type": "string"
        }
      ],
      "stateMutability": "view",
      "type": "function",
      "constant": true
    },
    {
      "inputs": [
        {
          "internalType": "uint256",
          "name": "tokenId",
          "type": "uint256"
        }
      ],
      "name": "tokenURI",
      "outputs": [
        {
          "internalType": "string",
          "name": "",
          "type": "string"
        }
      ],
      "stateMutability": "view",
      "type": "function",
      "constant": true
    },
    {
      "inputs": [
        {
          "internalType": "address",
          "name": "from",
          "type": "address"
        },
        {
          "internalType": "address",
          "name": "to",
          "type": "address"
        },
        {
          "internalType": "uint256",
          "name": "tokenId",
          "type": "uint256"
        }
      ],
      "name": "transferFrom",
      "outputs": [],
      "stateMutability": "nonpayable",
      "type": "function"
    },
    {
      "inputs": [
        {
          "internalType": "address",
          "name": "newOwner",
          "type": "address"
        }
      ],
      "name": "transferOwnership",
      "outputs": [],
      "stateMutability": "nonpayable",
      "type": "function"
    },
    {
      "inputs": [],
      "name": "totalSupply",
      "outputs": [
        {
          "internalType": "uint256",
          "name": "",
          "type": "uint256"
        }
      ],
      "stateMutability": "view",
      "type": "function",
      "constant": true
    },
    {
      "inputs": [
        {
          "internalType": "uint256",
          "name": "id",
          "type": "uint256"
        }
      ],
      "name": "getKitty",
      "outputs": [
        {
          "components": [
            {
              "internalType": "uint256",
              "name": "genes",
              "type": "uint256"
            },
            {
              "internalType": "uint64",
              "name": "birthTime",
              "type": "uint64"
            },
            {
              "internalType": "uint32",
              "name": "mumId",
              "type": "uint32"
            },
            {
              "internalType": "uint32",
              "name": "dadId",
              "type": "uint32"
            },
            {
              "internalType": "uint16",
              "name": "generation",
              "type": "uint16"
            }
          ],
          "internalType": "struct Kittycontract.Kitty",
          "name": "",
          "type": "tuple"
        }
      ],
      "stateMutability": "view",
      "type": "function",
      "constant": true
    },
    {
      "inputs": [
        {
          "internalType": "uint256",
          "name": "_genes",
          "type": "uint256"
        }
      ],
      "name": "createKittyGen0",
      "outputs": [],
      "stateMutability": "nonpayable",
      "type": "function"
    },
    {
      "inputs": [
        {
          "internalType": "uint256",
          "name": "_dadId",
          "type": "uint256"
        },
        {
          "internalType": "uint256",
          "name": "_mumId",
          "type": "uint256"
        }
      ],
      "name": "breed",
      "outputs": [
        {
          "internalType": "uint256",
          "name": "",
          "type": "uint256"
        }
      ],
      "stateMutability": "nonpayable",
      "type": "function"
    }
  ],
  "bytecode": "0x60806040523480156200001157600080fd5b506040518060400160405280601281526020017f43727970746f4b697474696573436c6f6e6500000000000000000000000000008152506040518060400160405280600381526020017f434b430000000000000000000000000000000000000000000000000000000000815250816000908051906020019062000096929190620001a6565b508060019080519060200190620000af929190620001a6565b505050620000d2620000c6620000d860201b60201c565b620000e060201b60201c565b620002bb565b600033905090565b6000600660009054906101000a900473ffffffffffffffffffffffffffffffffffffffff16905081600660006101000a81548173ffffffffffffffffffffffffffffffffffffffff021916908373ffffffffffffffffffffffffffffffffffffffff1602179055508173ffffffffffffffffffffffffffffffffffffffff168173ffffffffffffffffffffffffffffffffffffffff167f8be0079c531659141344cd1fd0a4f28419497f9722a3daafe3b4186f6b6457e060405160405180910390a35050565b828054620001b49062000285565b90600052602060002090601f016020900481019282620001d8576000855562000224565b82601f10620001f357805160ff191683800117855562000224565b8280016001018555821562000224579182015b828111156200022357825182559160200191906001019062000206565b5b50905062000233919062000237565b5090565b5b808211156200025257600081600090555060010162000238565b5090565b7f4e487b7100000000000000000000000000000000000000000000000000000000600052602260045260246000fd5b600060028204905060018216806200029e57607f821691505b60208210811415620002b557620002b462000256565b5b50919050565b6133ce80620002cb6000396000f3fe608060405234801561001057600080fd5b50600436106101425760003560e01c806395d89b41116100b8578063d5a776ca1161007c578063d5a776ca14610363578063d9ecad7b1461037f578063e985e9c5146103af578063e98b7f4d146103df578063ef5e94aa1461040f578063f2fde38b1461042d57610142565b806395d89b41146102bf578063a22cb465146102dd578063b4834330146102f9578063b88d4fde14610317578063c87b56dd1461033357610142565b806323b872dd1161010a57806323b872dd146101ff57806342842e0e1461021b5780636352211e1461023757806370a0823114610267578063715018a6146102975780638da5cb5b146102a157610142565b806301ffc9a71461014757806306fdde0314610177578063081812fc14610195578063095ea7b3146101c557806318160ddd146101e1575b600080fd5b610161600480360381019061015c9190611fe3565b610449565b60405161016e919061202b565b60405180910390f35b61017f61052b565b60405161018c91906120df565b60405180910390f35b6101af60048036038101906101aa9190612137565b6105bd565b6040516101bc91906121a5565b60405180910390f35b6101df60048036038101906101da91906121ec565b610642565b005b6101e961075a565b6040516101f6919061223b565b60405180910390f35b61021960048036038101906102149190612256565b610767565b005b61023560048036038101906102309190612256565b6107c7565b005b610251600480360381019061024c9190612137565b6107e7565b60405161025e91906121a5565b60405180910390f35b610281600480360381019061027c91906122a9565b610899565b60405161028e919061223b565b60405180910390f35b61029f610951565b005b6102a96109d9565b6040516102b691906121a5565b60405180910390f35b6102c7610a03565b6040516102d491906120df565b60405180910390f35b6102f760048036038101906102f29190612302565b610a95565b005b610301610aab565b60405161030e919061223b565b60405180910390f35b610331600480360381019061032c9190612477565b610ab0565b005b61034d60048036038101906103489190612137565b610b12565b60405161035a91906120df565b60405180910390f35b61037d60048036038101906103789190612137565b610bb9565b005b610399600480360381019061039491906124fa565b610ca5565b6040516103a6919061223b565b60405180910390f35b6103c960048036038101906103c4919061253a565b610da2565b6040516103d6919061202b565b60405180910390f35b6103f960048036038101906103f49190612137565b610e36565b6040516104069190612650565b60405180910390f35b610417610f1a565b604051610424919061223b565b60405180910390f35b610447600480360381019061044291906122a9565b610f20565b005b60007f80ac58cd000000000000000000000000000000000000000000000000000000007bffffffffffffffffffffffffffffffffffffffffffffffffffffffff1916827bffffffffffffffffffffffffffffffffffffffffffffffffffffffff1916148061051457507f5b5e139f000000000000000000000000000000000000000000000000000000007bffffffffffffffffffffffffffffffffffffffffffffffffffffffff1916827bffffffffffffffffffffffffffffffffffffffffffffffffffffffff1916145b80610524575061052382611018565b5b9050919050565b60606000805461053a9061269a565b80601f01602080910402602001604051908101604052809291908181526020018280546105669061269a565b80156105b35780601f10610588576101008083540402835291602001916105b3565b820191906000526020600020905b81548152906001019060200180831161059657829003601f168201915b5050505050905090565b60006105c882611082565b610607576040517f08c379a00000000000000000000000000000000000000000000000000000000081526004016105fe9061273e565b60405180910390fd5b6004600083815260200190815260200160002060009054906101000a900473ffffffffffffffffffffffffffffffffffffffff169050919050565b600061064d826107e7565b90508073ffffffffffffffffffffffffffffffffffffffff168373ffffffffffffffffffffffffffffffffffffffff1614156106be576040517f08c379a00000000000000000000000000000000000000000000000000000000081526004016106b5906127d0565b60405180910390fd5b8073ffffffffffffffffffffffffffffffffffffffff166106dd6110ee565b73ffffffffffffffffffffffffffffffffffffffff16148061070c575061070b816107066110ee565b610da2565b5b61074b576040517f08c379a000000000000000000000000000000000000000000000000000000000815260040161074290612862565b60405180910390fd5b61075583836110f6565b505050565b6000600780549050905090565b6107786107726110ee565b826111af565b6107b7576040517f08c379a00000000000000000000000000000000000000000000000000000000081526004016107ae906128f4565b60405180910390fd5b6107c283838361128d565b505050565b6107e283838360405180602001604052806000815250610ab0565b505050565b6000806002600084815260200190815260200160002060009054906101000a900473ffffffffffffffffffffffffffffffffffffffff169050600073ffffffffffffffffffffffffffffffffffffffff168173ffffffffffffffffffffffffffffffffffffffff161415610890576040517f08c379a000000000000000000000000000000000000000000000000000000000815260040161088790612986565b60405180910390fd5b80915050919050565b60008073ffffffffffffffffffffffffffffffffffffffff168273ffffffffffffffffffffffffffffffffffffffff16141561090a576040517f08c379a000000000000000000000000000000000000000000000000000000000815260040161090190612a18565b60405180910390fd5b600360008373ffffffffffffffffffffffffffffffffffffffff1673ffffffffffffffffffffffffffffffffffffffff168152602001908152602001600020549050919050565b6109596110ee565b73ffffffffffffffffffffffffffffffffffffffff166109776109d9565b73ffffffffffffffffffffffffffffffffffffffff16146109cd576040517f08c379a00000000000000000000000000000000000000000000000000000000081526004016109c490612a84565b60405180910390fd5b6109d760006114f4565b565b6000600660009054906101000a900473ffffffffffffffffffffffffffffffffffffffff16905090565b606060018054610a129061269a565b80601f0160208091040260200160405190810160405280929190818152602001828054610a3e9061269a565b8015610a8b5780601f10610a6057610100808354040283529160200191610a8b565b820191906000526020600020905b815481529060010190602001808311610a6e57829003601f168201915b5050505050905090565b610aa7610aa06110ee565b83836115ba565b5050565b600a81565b610ac1610abb6110ee565b836111af565b610b00576040517f08c379a0000000000000000000000000000000000000000000000000000000008152600401610af7906128f4565b60405180910390fd5b610b0c84848484611727565b50505050565b6060610b1d82611082565b610b5c576040517f08c379a0000000000000000000000000000000000000000000000000000000008152600401610b5390612b16565b60405180910390fd5b6000610b66611783565b90506000815111610b865760405180602001604052806000815250610bb1565b80610b908461179a565b604051602001610ba1929190612b72565b6040516020818303038152906040525b915050919050565b610bc16110ee565b73ffffffffffffffffffffffffffffffffffffffff16610bdf6109d9565b73ffffffffffffffffffffffffffffffffffffffff1614610c35576040517f08c379a0000000000000000000000000000000000000000000000000000000008152600401610c2c90612a84565b60405180910390fd5b600a60085410610c7a576040517f08c379a0000000000000000000000000000000000000000000000000000000008152600401610c7190612c08565b60405180910390fd5b60086000815480929190610c8d90612c57565b9190505550610ca1600080600084336118fb565b5050565b6000610caf6110ee565b73ffffffffffffffffffffffffffffffffffffffff16610cce846107e7565b73ffffffffffffffffffffffffffffffffffffffff16148015610d2b5750610cf46110ee565b73ffffffffffffffffffffffffffffffffffffffff16610d13836107e7565b73ffffffffffffffffffffffffffffffffffffffff16145b610d3457600080fd5b6000610d3f84610e36565b90506000610d4c84610e36565b90506000610d6283600001518360000151611a86565b90506000610d80846080015161ffff16846080015161ffff16611ada565b9050610d9686888385610d916110ee565b6118fb565b94505050505092915050565b6000600560008473ffffffffffffffffffffffffffffffffffffffff1673ffffffffffffffffffffffffffffffffffffffff16815260200190815260200160002060008373ffffffffffffffffffffffffffffffffffffffff1673ffffffffffffffffffffffffffffffffffffffff16815260200190815260200160002060009054906101000a900460ff16905092915050565b610e3e611f2e565b60078281548110610e5257610e51612ca0565b5b90600052602060002090600202016040518060a0016040529081600082015481526020016001820160009054906101000a900467ffffffffffffffff1667ffffffffffffffff1667ffffffffffffffff1681526020016001820160089054906101000a900463ffffffff1663ffffffff1663ffffffff16815260200160018201600c9054906101000a900463ffffffff1663ffffffff1663ffffffff1681526020016001820160109054906101000a900461ffff1661ffff1661ffff16815250509050919050565b60085481565b610f286110ee565b73ffffffffffffffffffffffffffffffffffffffff16610f466109d9565b73ffffffffffffffffffffffffffffffffffffffff1614610f9c576040517f08c379a0000000000000000000000000000000000000000000000000000000008152600401610f9390612a84565b60405180910390fd5b600073ffffffffffffffffffffffffffffffffffffffff168173ffffffffffffffffffffffffffffffffffffffff16141561100c576040517f08c379a000000000000000000000000000000000000000000000000000000000815260040161100390612d41565b60405180910390fd5b611015816114f4565b50565b60007f01ffc9a7000000000000000000000000000000000000000000000000000000007bffffffffffffffffffffffffffffffffffffffffffffffffffffffff1916827bffffffffffffffffffffffffffffffffffffffffffffffffffffffff1916149050919050565b60008073ffffffffffffffffffffffffffffffffffffffff166002600084815260200190815260200160002060009054906101000a900473ffffffffffffffffffffffffffffffffffffffff1673ffffffffffffffffffffffffffffffffffffffff1614159050919050565b600033905090565b816004600083815260200190815260200160002060006101000a81548173ffffffffffffffffffffffffffffffffffffffff021916908373ffffffffffffffffffffffffffffffffffffffff160217905550808273ffffffffffffffffffffffffffffffffffffffff16611169836107e7565b73ffffffffffffffffffffffffffffffffffffffff167f8c5be1e5ebec7d5bd14f71427d1e84f3dd0314c0f7b2291e5b200ac8c7c3b92560405160405180910390a45050565b60006111ba82611082565b6111f9576040517f08c379a00000000000000000000000000000000000000000000000000000000081526004016111f090612dd3565b60405180910390fd5b6000611204836107e7565b90508073ffffffffffffffffffffffffffffffffffffffff168473ffffffffffffffffffffffffffffffffffffffff16148061127357508373ffffffffffffffffffffffffffffffffffffffff1661125b846105bd565b73ffffffffffffffffffffffffffffffffffffffff16145b8061128457506112838185610da2565b5b91505092915050565b8273ffffffffffffffffffffffffffffffffffffffff166112ad826107e7565b73ffffffffffffffffffffffffffffffffffffffff1614611303576040517f08c379a00000000000000000000000000000000000000000000000000000000081526004016112fa90612e65565b60405180910390fd5b600073ffffffffffffffffffffffffffffffffffffffff168273ffffffffffffffffffffffffffffffffffffffff161415611373576040517f08c379a000000000000000000000000000000000000000000000000000000000815260040161136a90612ef7565b60405180910390fd5b61137e838383611b26565b6113896000826110f6565b6001600360008573ffffffffffffffffffffffffffffffffffffffff1673ffffffffffffffffffffffffffffffffffffffff16815260200190815260200160002060008282546113d99190612f17565b925050819055506001600360008473ffffffffffffffffffffffffffffffffffffffff1673ffffffffffffffffffffffffffffffffffffffff16815260200190815260200160002060008282546114309190612f4b565b92505081905550816002600083815260200190815260200160002060006101000a81548173ffffffffffffffffffffffffffffffffffffffff021916908373ffffffffffffffffffffffffffffffffffffffff160217905550808273ffffffffffffffffffffffffffffffffffffffff168473ffffffffffffffffffffffffffffffffffffffff167fddf252ad1be2c89b69c2b068fc378daa952ba7f163c4a11628f55a4df523b3ef60405160405180910390a46114ef838383611b2b565b505050565b6000600660009054906101000a900473ffffffffffffffffffffffffffffffffffffffff16905081600660006101000a81548173ffffffffffffffffffffffffffffffffffffffff021916908373ffffffffffffffffffffffffffffffffffffffff1602179055508173ffffffffffffffffffffffffffffffffffffffff168173ffffffffffffffffffffffffffffffffffffffff167f8be0079c531659141344cd1fd0a4f28419497f9722a3daafe3b4186f6b6457e060405160405180910390a35050565b8173ffffffffffffffffffffffffffffffffffffffff168373ffffffffffffffffffffffffffffffffffffffff161415611629576040517f08c379a000000000000000000000000000000000000000000000000000000000815260040161162090612fed565b60405180910390fd5b80600560008573ffffffffffffffffffffffffffffffffffffffff1673ffffffffffffffffffffffffffffffffffffffff16815260200190815260200160002060008473ffffffffffffffffffffffffffffffffffffffff1673ffffffffffffffffffffffffffffffffffffffff16815260200190815260200160002060006101000a81548160ff0219169083151502179055508173ffffffffffffffffffffffffffffffffffffffff168373ffffffffffffffffffffffffffffffffffffffff167f17307eab39ab6107e8899845ad3d59bd9653f200f220920489ca2b5937696c318360405161171a919061202b565b60405180910390a3505050565b61173284848461128d565b61173e84848484611b30565b61177d576040517f08c379a00000000000000000000000000000000000000000000000000000000081526004016117749061307f565b60405180910390fd5b50505050565b606060405180602001604052806000815250905090565b606060008214156117e2576040518060400160405280600181526020017f300000000000000000000000000000000000000000000000000000000000000081525090506118f6565b600082905060005b600082146118145780806117fd90612c57565b915050600a8261180d91906130ce565b91506117ea565b60008167ffffffffffffffff8111156118305761182f61234c565b5b6040519080825280601f01601f1916602001820160405280156118625781602001600182028036833780820191505090505b5090505b600085146118ef5760018261187b9190612f17565b9150600a8561188a91906130ff565b60306118969190612f4b565b60f81b8183815181106118ac576118ab612ca0565b5b60200101907effffffffffffffffffffffffffffffffffffffffffffffffffffffffffffff1916908160001a905350600a856118e891906130ce565b9450611866565b8093505050505b919050565b6000806040518060a001604052808581526020014267ffffffffffffffff1681526020018863ffffffff1681526020018763ffffffff1681526020018661ffff16815250905060078190806001815401808255809150506001900390600052602060002090600202016000909190919091506000820151816000015560208201518160010160006101000a81548167ffffffffffffffff021916908367ffffffffffffffff16021790555060408201518160010160086101000a81548163ffffffff021916908363ffffffff160217905550606082015181600101600c6101000a81548163ffffffff021916908363ffffffff16021790555060808201518160010160106101000a81548161ffff021916908361ffff160217905550505060006001600780549050611a2d9190612f17565b9050611a398482611cb8565b7f7199e1688f07d120d7ec20b11115d87d4ce6352a479110dee4b94ec16f0288a68888888888604051611a70959493929190613130565b60405180910390a1809250505095945050505050565b6000806305f5e10084611a9991906130ce565b905060006305f5e10084611aad91906130ff565b90506000816305f5e10084611ac29190613183565b611acc9190612f4b565b905080935050505092915050565b6000600182611ae99190612f4b565b600184611af69190612f4b565b1115611b1057600183611b099190612f4b565b9050611b20565b600182611b1d9190612f4b565b90505b92915050565b505050565b505050565b6000611b518473ffffffffffffffffffffffffffffffffffffffff16611cd6565b15611cab578373ffffffffffffffffffffffffffffffffffffffff1663150b7a02611b7a6110ee565b8786866040518563ffffffff1660e01b8152600401611b9c9493929190613232565b6020604051808303816000875af1925050508015611bd857506040513d601f19601f82011682018060405250810190611bd59190613293565b60015b611c5b573d8060008114611c08576040519150601f19603f3d011682016040523d82523d6000602084013e611c0d565b606091505b50600081511415611c53576040517f08c379a0000000000000000000000000000000000000000000000000000000008152600401611c4a9061307f565b60405180910390fd5b805181602001fd5b63150b7a0260e01b7bffffffffffffffffffffffffffffffffffffffffffffffffffffffff1916817bffffffffffffffffffffffffffffffffffffffffffffffffffffffff191614915050611cb0565b600190505b949350505050565b611cd2828260405180602001604052806000815250611cf9565b5050565b6000808273ffffffffffffffffffffffffffffffffffffffff163b119050919050565b611d038383611d54565b611d106000848484611b30565b611d4f576040517f08c379a0000000000000000000000000000000000000000000000000000000008152600401611d469061307f565b60405180910390fd5b505050565b600073ffffffffffffffffffffffffffffffffffffffff168273ffffffffffffffffffffffffffffffffffffffff161415611dc4576040517f08c379a0000000000000000000000000000000000000000000000000000000008152600401611dbb9061330c565b60405180910390fd5b611dcd81611082565b15611e0d576040517f08c379a0000000000000000000000000000000000000000000000000000000008152600401611e0490613378565b60405180910390fd5b611e1960008383611b26565b6001600360008473ffffffffffffffffffffffffffffffffffffffff1673ffffffffffffffffffffffffffffffffffffffff1681526020019081526020016000206000828254611e699190612f4b565b92505081905550816002600083815260200190815260200160002060006101000a81548173ffffffffffffffffffffffffffffffffffffffff021916908373ffffffffffffffffffffffffffffffffffffffff160217905550808273ffffffffffffffffffffffffffffffffffffffff16600073ffffffffffffffffffffffffffffffffffffffff167fddf252ad1be2c89b69c2b068fc378daa952ba7f163c4a11628f55a4df523b3ef60405160405180910390a4611f2a60008383611b2b565b5050565b6040518060a0016040528060008152602001600067ffffffffffffffff168152602001600063ffffffff168152602001600063ffffffff168152602001600061ffff1681525090565b6000604051905090565b600080fd5b600080fd5b60007fffffffff0000000000000000000000000000000000000000000000000000000082169050919050565b611fc081611f8b565b8114611fcb57600080fd5b50565b600081359050611fdd81611fb7565b92915050565b600060208284031215611ff957611ff8611f81565b5b600061200784828501611fce565b91505092915050565b60008115159050919050565b61202581612010565b82525050565b6000602082019050612040600083018461201c565b92915050565b600081519050919050565b600082825260208201905092915050565b60005b83811015612080578082015181840152602081019050612065565b8381111561208f576000848401525b50505050565b6000601f19601f8301169050919050565b60006120b182612046565b6120bb8185612051565b93506120cb818560208601612062565b6120d481612095565b840191505092915050565b600060208201905081810360008301526120f981846120a6565b905092915050565b6000819050919050565b61211481612101565b811461211f57600080fd5b50565b6000813590506121318161210b565b92915050565b60006020828403121561214d5761214c611f81565b5b600061215b84828501612122565b91505092915050565b600073ffffffffffffffffffffffffffffffffffffffff82169050919050565b600061218f82612164565b9050919050565b61219f81612184565b82525050565b60006020820190506121ba6000830184612196565b92915050565b6121c981612184565b81146121d457600080fd5b50565b6000813590506121e6816121c0565b92915050565b6000806040838503121561220357612202611f81565b5b6000612211858286016121d7565b925050602061222285828601612122565b9150509250929050565b61223581612101565b82525050565b6000602082019050612250600083018461222c565b92915050565b60008060006060848603121561226f5761226e611f81565b5b600061227d868287016121d7565b935050602061228e868287016121d7565b925050604061229f86828701612122565b9150509250925092565b6000602082840312156122bf576122be611f81565b5b60006122cd848285016121d7565b91505092915050565b6122df81612010565b81146122ea57600080fd5b50565b6000813590506122fc816122d6565b92915050565b6000806040838503121561231957612318611f81565b5b6000612327858286016121d7565b9250506020612338858286016122ed565b9150509250929050565b600080fd5b600080fd5b7f4e487b7100000000000000000000000000000000000000000000000000000000600052604160045260246000fd5b61238482612095565b810181811067ffffffffffffffff821117156123a3576123a261234c565b5b80604052505050565b60006123b6611f77565b90506123c2828261237b565b919050565b600067ffffffffffffffff8211156123e2576123e161234c565b5b6123eb82612095565b9050602081019050919050565b82818337600083830152505050565b600061241a612415846123c7565b6123ac565b90508281526020810184848401111561243657612435612347565b5b6124418482856123f8565b509392505050565b600082601f83011261245e5761245d612342565b5b813561246e848260208601612407565b91505092915050565b6000806000806080858703121561249157612490611f81565b5b600061249f878288016121d7565b94505060206124b0878288016121d7565b93505060406124c187828801612122565b925050606085013567ffffffffffffffff8111156124e2576124e1611f86565b5b6124ee87828801612449565b91505092959194509250565b6000806040838503121561251157612510611f81565b5b600061251f85828601612122565b925050602061253085828601612122565b9150509250929050565b6000806040838503121561255157612550611f81565b5b600061255f858286016121d7565b9250506020612570858286016121d7565b9150509250929050565b61258381612101565b82525050565b600067ffffffffffffffff82169050919050565b6125a681612589565b82525050565b600063ffffffff82169050919050565b6125c5816125ac565b82525050565b600061ffff82169050919050565b6125e2816125cb565b82525050565b60a0820160008201516125fe600085018261257a565b506020820151612611602085018261259d565b50604082015161262460408501826125bc565b50606082015161263760608501826125bc565b50608082015161264a60808501826125d9565b50505050565b600060a08201905061266560008301846125e8565b92915050565b7f4e487b7100000000000000000000000000000000000000000000000000000000600052602260045260246000fd5b600060028204905060018216806126b257607f821691505b602082108114156126c6576126c561266b565b5b50919050565b7f4552433732313a20617070726f76656420717565727920666f72206e6f6e657860008201527f697374656e7420746f6b656e0000000000000000000000000000000000000000602082015250565b6000612728602c83612051565b9150612733826126cc565b604082019050919050565b600060208201905081810360008301526127578161271b565b9050919050565b7f4552433732313a20617070726f76616c20746f2063757272656e74206f776e6560008201527f7200000000000000000000000000000000000000000000000000000000000000602082015250565b60006127ba602183612051565b91506127c58261275e565b604082019050919050565b600060208201905081810360008301526127e9816127ad565b9050919050565b7f4552433732313a20617070726f76652063616c6c6572206973206e6f74206f7760008201527f6e6572206e6f7220617070726f76656420666f7220616c6c0000000000000000602082015250565b600061284c603883612051565b9150612857826127f0565b604082019050919050565b6000602082019050818103600083015261287b8161283f565b9050919050565b7f4552433732313a207472616e736665722063616c6c6572206973206e6f74206f60008201527f776e6572206e6f7220617070726f766564000000000000000000000000000000602082015250565b60006128de603183612051565b91506128e982612882565b604082019050919050565b6000602082019050818103600083015261290d816128d1565b9050919050565b7f4552433732313a206f776e657220717565727920666f72206e6f6e657869737460008201527f656e7420746f6b656e0000000000000000000000000000000000000000000000602082015250565b6000612970602983612051565b915061297b82612914565b604082019050919050565b6000602082019050818103600083015261299f81612963565b9050919050565b7f4552433732313a2062616c616e636520717565727920666f7220746865207a6560008201527f726f206164647265737300000000000000000000000000000000000000000000602082015250565b6000612a02602a83612051565b9150612a0d826129a6565b604082019050919050565b60006020820190508181036000830152612a31816129f5565b9050919050565b7f4f776e61626c653a2063616c6c6572206973206e6f7420746865206f776e6572600082015250565b6000612a6e602083612051565b9150612a7982612a38565b602082019050919050565b60006020820190508181036000830152612a9d81612a61565b9050919050565b7f4552433732314d657461646174613a2055524920717565727920666f72206e6f60008201527f6e6578697374656e7420746f6b656e0000000000000000000000000000000000602082015250565b6000612b00602f83612051565b9150612b0b82612aa4565b604082019050919050565b60006020820190508181036000830152612b2f81612af3565b9050919050565b600081905092915050565b6000612b4c82612046565b612b568185612b36565b9350612b66818560208601612062565b80840191505092915050565b6000612b7e8285612b41565b9150612b8a8284612b41565b91508190509392505050565b7f416d6f756e74206f662066697273742067656e65726174696f6e206b6974746960008201527f6573206973206578636565646564000000000000000000000000000000000000602082015250565b6000612bf2602e83612051565b9150612bfd82612b96565b604082019050919050565b60006020820190508181036000830152612c2181612be5565b9050919050565b7f4e487b7100000000000000000000000000000000000000000000000000000000600052601160045260246000fd5b6000612c6282612101565b91507fffffffffffffffffffffffffffffffffffffffffffffffffffffffffffffffff821415612c9557612c94612c28565b5b600182019050919050565b7f4e487b7100000000000000000000000000000000000000000000000000000000600052603260045260246000fd5b7f4f776e61626c653a206e6577206f776e657220697320746865207a65726f206160008201527f6464726573730000000000000000000000000000000000000000000000000000602082015250565b6000612d2b602683612051565b9150612d3682612ccf565b604082019050919050565b60006020820190508181036000830152612d5a81612d1e565b9050919050565b7f4552433732313a206f70657261746f7220717565727920666f72206e6f6e657860008201527f697374656e7420746f6b656e0000000000000000000000000000000000000000602082015250565b6000612dbd602c83612051565b9150612dc882612d61565b604082019050919050565b60006020820190508181036000830152612dec81612db0565b9050919050565b7f4552433732313a207472616e736665722066726f6d20696e636f72726563742060008201527f6f776e6572000000000000000000000000000000000000000000000000000000602082015250565b6000612e4f602583612051565b9150612e5a82612df3565b604082019050919050565b60006020820190508181036000830152612e7e81612e42565b9050919050565b7f4552433732313a207472616e7366657220746f20746865207a65726f2061646460008201527f7265737300000000000000000000000000000000000000000000000000000000602082015250565b6000612ee1602483612051565b9150612eec82612e85565b604082019050919050565b60006020820190508181036000830152612f1081612ed4565b9050919050565b6000612f2282612101565b9150612f2d83612101565b925082821015612f4057612f3f612c28565b5b828203905092915050565b6000612f5682612101565b9150612f6183612101565b9250827fffffffffffffffffffffffffffffffffffffffffffffffffffffffffffffffff03821115612f9657612f95612c28565b5b828201905092915050565b7f4552433732313a20617070726f766520746f2063616c6c657200000000000000600082015250565b6000612fd7601983612051565b9150612fe282612fa1565b602082019050919050565b6000602082019050818103600083015261300681612fca565b9050919050565b7f4552433732313a207472616e7366657220746f206e6f6e20455243373231526560008201527f63656976657220696d706c656d656e7465720000000000000000000000000000602082015250565b6000613069603283612051565b91506130748261300d565b604082019050919050565b600060208201905081810360008301526130988161305c565b9050919050565b7f4e487b7100000000000000000000000000000000000000000000000000000000600052601260045260246000fd5b60006130d982612101565b91506130e483612101565b9250826130f4576130f361309f565b5b828204905092915050565b600061310a82612101565b915061311583612101565b9250826131255761312461309f565b5b828206905092915050565b600060a082019050613145600083018861222c565b613152602083018761222c565b61315f604083018661222c565b61316c606083018561222c565b6131796080830184612196565b9695505050505050565b600061318e82612101565b915061319983612101565b9250817fffffffffffffffffffffffffffffffffffffffffffffffffffffffffffffffff04831182151516156131d2576131d1612c28565b5b828202905092915050565b600081519050919050565b600082825260208201905092915050565b6000613204826131dd565b61320e81856131e8565b935061321e818560208601612062565b61322781612095565b840191505092915050565b60006080820190506132476000830187612196565b6132546020830186612196565b613261604083018561222c565b818103606083015261327381846131f9565b905095945050505050565b60008151905061328d81611fb7565b92915050565b6000602082840312156132a9576132a8611f81565b5b60006132b78482850161327e565b91505092915050565b7f4552433732313a206d696e7420746f20746865207a65726f2061646472657373600082015250565b60006132f6602083612051565b9150613301826132c0565b602082019050919050565b60006020820190508181036000830152613325816132e9565b9050919050565b7f4552433732313a20746f6b656e20616c7265616479206d696e74656400000000600082015250565b6000613362601c83612051565b915061336d8261332c565b602082019050919050565b6000602082019050818103600083015261339181613355565b905091905056fea2646970667358221220a42b699db6e27f176cf35842262795246ee5a635a0c499d6e707fc6d200da65f64736f6c634300080b0033",
  "immutableReferences": {},
  "source": "pragma solidity ^0.8.0;\r\n\r\nimport \"../node_modules/@openzeppelin/contracts/token/ERC721/ERC721.sol\";\r\nimport \"../node_modules/@openzeppelin/contracts/access/Ownable.sol\";\r\n\r\ncontract Kittycontract is ERC721(\"CryptoKittiesClone\", \"CKC\"), Ownable {\r\n  struct Kitty {\r\n    uint256 genes;\r\n    uint64 birthTime;\r\n    uint32 mumId;\r\n    uint32 dadId;\r\n    uint16 generation;\r\n  }\r\n  \r\n  Kitty[] kitties;\r\n\r\n  function totalSupply() view public returns (uint) {\r\n    return kitties.length;\r\n  }  \r\n\r\n  function getKitty(uint id) public view returns (Kitty memory) {\r\n    return kitties[id];\r\n  }\r\n\r\n  uint public constant CREATION_LIMIT_GEN0 = 10;\r\n  uint public gen0Counter;\r\n\r\n  event Birth(\r\n    uint256 _mumId,\r\n    uint256 _dadId,\r\n    uint256 _generation,\r\n    uint256 _genes,\r\n    address _owner\r\n  );\r\n\r\n  function createKittyGen0(uint256 _genes) public onlyOwner {\r\n    require(gen0Counter < CREATION_LIMIT_GEN0, 'Amount of first generation kitties is exceeded');\r\n    gen0Counter++;\r\n    // Gen0 have to be owned by the contract\r\n    _createKitty(0, 0, 0, _genes, msg.sender);\r\n  }\r\n\r\n  function _createKitty(\r\n    uint256 _mumId,\r\n    uint256 _dadId,\r\n    uint256 _generation,\r\n    uint256 _genes,\r\n    address _owner\r\n  ) private returns (uint256) {\r\n    Kitty memory _kitty = Kitty({\r\n      genes: _genes,\r\n      birthTime: uint64(block.timestamp),\r\n      mumId: uint32(_mumId),\r\n      dadId: uint32(_dadId),\r\n      generation: uint16(_generation)\r\n    });\r\n\r\n    kitties.push(_kitty);\r\n    uint256 newKittenId = kitties.length - 1;\r\n\r\n    _safeMint(_owner, newKittenId);\r\n    emit Birth(_mumId, _dadId, _generation, _genes, _owner);\r\n    \r\n    return newKittenId;\r\n  }\r\n\r\n  function breed(uint _dadId, uint _mumId) public returns (uint) {\r\n    //check ownership\r\n    require(ownerOf(_dadId) == _msgSender() && ownerOf(_mumId) == _msgSender());\r\n    //get the dna and mix it\r\n    Kitty memory dad = getKitty(_dadId);\r\n    Kitty memory mum = getKitty(_mumId);\r\n    // uint dadDna = getKitty(_dadId).genes;\r\n    // uint mumDna = getKitty(_mumId).genes;\r\n    uint newDna = _mixDna(dad.genes, mum.genes);\r\n    //figure out the generation\r\n    uint newGen = _newGeneration(dad.generation, mum.generation);\r\n    //create a new cat with the new props, give it to the msg.sender\r\n    return _createKitty(_mumId, _dadId, newGen, newDna, _msgSender());\r\n  }\r\n\r\n  function _mixDna(uint _dadDna, uint _mumDna) pure internal returns (uint) {\r\n    uint firstHalf = _dadDna / 100000000;\r\n    uint secondHalf = _mumDna % 100000000;\r\n    uint mixedDna = firstHalf * 100000000 + secondHalf;\r\n    return mixedDna;  \r\n  }\r\n\r\n  function _newGeneration(uint _dadGen, uint _mumGen) pure internal returns (uint) {\r\n    if (_dadGen + 1 > _mumGen + 1) {\r\n        return _dadGen + 1;\r\n    } \r\n    return _mumGen + 1;    \r\n  }\r\n}\r\n\r\n",
  "sourcePath": "C:\\\\eth_sandbox\\crypto_kitties_clone\\contracts\\Kittycontract.sol",
  "compiler": {
    "name": "solc",
    "version": "0.8.11+commit.d7f03943.Emscripten.clang"
  },
  "schemaVersion": "3.4.5",
  "updatedAt": "2022-03-17T08:52:18.295Z",
  "networkType": "ethereum",
  "devdoc": {
    "kind": "dev",
    "methods": {
      "approve(address,uint256)": {
        "details": "See {IERC721-approve}."
      },
      "balanceOf(address)": {
        "details": "See {IERC721-balanceOf}."
      },
      "getApproved(uint256)": {
        "details": "See {IERC721-getApproved}."
      },
      "isApprovedForAll(address,address)": {
        "details": "See {IERC721-isApprovedForAll}."
      },
      "name()": {
        "details": "See {IERC721Metadata-name}."
      },
      "owner()": {
        "details": "Returns the address of the current owner."
      },
      "ownerOf(uint256)": {
        "details": "See {IERC721-ownerOf}."
      },
      "renounceOwnership()": {
        "details": "Leaves the contract without owner. It will not be possible to call `onlyOwner` functions anymore. Can only be called by the current owner. NOTE: Renouncing ownership will leave the contract without an owner, thereby removing any functionality that is only available to the owner."
      },
      "safeTransferFrom(address,address,uint256)": {
        "details": "See {IERC721-safeTransferFrom}."
      },
      "safeTransferFrom(address,address,uint256,bytes)": {
        "details": "See {IERC721-safeTransferFrom}."
      },
      "setApprovalForAll(address,bool)": {
        "details": "See {IERC721-setApprovalForAll}."
      },
      "supportsInterface(bytes4)": {
        "details": "See {IERC165-supportsInterface}."
      },
      "symbol()": {
        "details": "See {IERC721Metadata-symbol}."
      },
      "tokenURI(uint256)": {
        "details": "See {IERC721Metadata-tokenURI}."
      },
      "transferFrom(address,address,uint256)": {
        "details": "See {IERC721-transferFrom}."
      },
      "transferOwnership(address)": {
        "details": "Transfers ownership of the contract to a new account (`newOwner`). Can only be called by the current owner."
      }
    },
    "version": 1
  },
  "userdoc": {
    "kind": "user",
    "methods": {},
    "version": 1
  }
}