{
  "contractName": "DeFiAIFarmV2",
  "abi": [
    {
      "inputs": [
        {
          "internalType": "uint256",
          "name": "_withdrawalFee",
          "type": "uint256"
        }
      ],
      "stateMutability": "nonpayable",
      "type": "constructor"
    },
    {
      "anonymous": false,
      "inputs": [
        {
          "indexed": true,
          "internalType": "address",
          "name": "user",
          "type": "address"
        },
        {
          "indexed": false,
          "internalType": "uint256",
          "name": "amount",
          "type": "uint256"
        },
        {
          "indexed": false,
          "internalType": "address",
          "name": "wantAddress",
          "type": "address"
        }
      ],
      "name": "Deposit",
      "type": "event"
    },
    {
      "anonymous": false,
      "inputs": [
        {
          "indexed": true,
          "internalType": "address",
          "name": "previousOwner",
          "type": "address"
        },
        {
          "indexed": true,
          "internalType": "address",
          "name": "newOwner",
          "type": "address"
        }
      ],
      "name": "OwnershipTransferred",
      "type": "event"
    },
    {
      "anonymous": false,
      "inputs": [
        {
          "indexed": true,
          "internalType": "address",
          "name": "user",
          "type": "address"
        },
        {
          "indexed": false,
          "internalType": "uint256",
          "name": "amount",
          "type": "uint256"
        },
        {
          "indexed": false,
          "internalType": "address",
          "name": "wantAddress",
          "type": "address"
        }
      ],
      "name": "Withdraw",
      "type": "event"
    },
    {
      "inputs": [],
      "name": "FEE_DENOM",
      "outputs": [
        {
          "internalType": "uint256",
          "name": "",
          "type": "uint256"
        }
      ],
      "stateMutability": "view",
      "type": "function"
    },
    {
      "inputs": [],
      "name": "isInit",
      "outputs": [
        {
          "internalType": "bool",
          "name": "",
          "type": "bool"
        }
      ],
      "stateMutability": "view",
      "type": "function"
    },
    {
      "inputs": [],
      "name": "owner",
      "outputs": [
        {
          "internalType": "address",
          "name": "",
          "type": "address"
        }
      ],
      "stateMutability": "view",
      "type": "function"
    },
    {
      "inputs": [
        {
          "internalType": "uint256",
          "name": "",
          "type": "uint256"
        }
      ],
      "name": "poolInfo",
      "outputs": [
        {
          "internalType": "contract IERC20",
          "name": "want",
          "type": "address"
        },
        {
          "internalType": "uint256",
          "name": "minFee",
          "type": "uint256"
        },
        {
          "internalType": "address",
          "name": "strat",
          "type": "address"
        }
      ],
      "stateMutability": "view",
      "type": "function"
    },
    {
      "inputs": [],
      "name": "renounceOwnership",
      "outputs": [],
      "stateMutability": "nonpayable",
      "type": "function"
    },
    {
      "inputs": [
        {
          "internalType": "address",
          "name": "newOwner",
          "type": "address"
        }
      ],
      "name": "transferOwnership",
      "outputs": [],
      "stateMutability": "nonpayable",
      "type": "function"
    },
    {
      "inputs": [],
      "name": "withdrawalFee",
      "outputs": [
        {
          "internalType": "uint256",
          "name": "",
          "type": "uint256"
        }
      ],
      "stateMutability": "view",
      "type": "function"
    },
    {
      "inputs": [],
      "name": "poolLength",
      "outputs": [
        {
          "internalType": "uint256",
          "name": "",
          "type": "uint256"
        }
      ],
      "stateMutability": "view",
      "type": "function"
    },
    {
      "inputs": [
        {
          "internalType": "uint256",
          "name": "_pid",
          "type": "uint256"
        },
        {
          "internalType": "address",
          "name": "_user",
          "type": "address"
        }
      ],
      "name": "getTotalBalance",
      "outputs": [
        {
          "internalType": "uint256",
          "name": "",
          "type": "uint256"
        }
      ],
      "stateMutability": "view",
      "type": "function"
    },
    {
      "inputs": [
        {
          "internalType": "uint256",
          "name": "_pid",
          "type": "uint256"
        },
        {
          "internalType": "uint256",
          "name": "_wantAmt",
          "type": "uint256"
        }
      ],
      "name": "deposit",
      "outputs": [],
      "stateMutability": "nonpayable",
      "type": "function"
    },
    {
      "inputs": [
        {
          "internalType": "uint256",
          "name": "_pid",
          "type": "uint256"
        },
        {
          "internalType": "uint256",
          "name": "_wantAmt",
          "type": "uint256"
        }
      ],
      "name": "withdraw",
      "outputs": [],
      "stateMutability": "nonpayable",
      "type": "function"
    },
    {
      "inputs": [
        {
          "internalType": "contract IERC20",
          "name": "_want",
          "type": "address"
        },
        {
          "internalType": "address",
          "name": "_strat",
          "type": "address"
        },
        {
          "internalType": "uint256",
          "name": "_minFee",
          "type": "uint256"
        }
      ],
      "name": "initialize",
      "outputs": [],
      "stateMutability": "nonpayable",
      "type": "function"
    }
  ],
  "bytecode": "0x60806040523480156200001157600080fd5b50604051620020aa380380620020aa833981810160405281019062000037919062000171565b620000576200004b6200006560201b60201c565b6200006d60201b60201c565b8060028190555050620001a3565b600033905090565b60008060009054906101000a900473ffffffffffffffffffffffffffffffffffffffff169050816000806101000a81548173ffffffffffffffffffffffffffffffffffffffff021916908373ffffffffffffffffffffffffffffffffffffffff1602179055508173ffffffffffffffffffffffffffffffffffffffff168173ffffffffffffffffffffffffffffffffffffffff167f8be0079c531659141344cd1fd0a4f28419497f9722a3daafe3b4186f6b6457e060405160405180910390a35050565b600080fd5b6000819050919050565b6200014b8162000136565b81146200015757600080fd5b50565b6000815190506200016b8162000140565b92915050565b6000602082840312156200018a576200018962000131565b5b60006200019a848285016200015a565b91505092915050565b611ef780620001b36000396000f3fe608060405234801561001057600080fd5b50600436106100b45760003560e01c80638bc7e8c4116100715780638bc7e8c4146101695780638da5cb5b14610187578063b145a5b8146101a5578063b5baea03146101c3578063e2bbb158146101f3578063f2fde38b1461020f576100b4565b8063081e3eda146100b95780631526fe27146100d75780631794bb3c14610109578063441a3e70146101255780634886c67514610141578063715018a61461015f575b600080fd5b6100c161022b565b6040516100ce919061128e565b60405180910390f35b6100f160048036038101906100ec91906112da565b610238565b604051610100939291906113a7565b60405180910390f35b610123600480360381019061011e9190611448565b6102b2565b005b61013f600480360381019061013a919061149b565b610513565b005b61014961081b565b604051610156919061128e565b60405180910390f35b610167610821565b005b610171610835565b60405161017e919061128e565b60405180910390f35b61018f61083b565b60405161019c91906114db565b60405180910390f35b6101ad610864565b6040516101ba9190611511565b60405180910390f35b6101dd60048036038101906101d8919061152c565b610877565b6040516101ea919061128e565b60405180910390f35b61020d6004803603810190610208919061149b565b610a30565b005b6102296004803603810190610224919061156c565b610d03565b005b6000600180549050905090565b6001818154811061024857600080fd5b90600052602060002090600302016000915090508060000160009054906101000a900473ffffffffffffffffffffffffffffffffffffffff16908060010154908060020160009054906101000a900473ffffffffffffffffffffffffffffffffffffffff16905083565b6102ba61083b565b73ffffffffffffffffffffffffffffffffffffffff163373ffffffffffffffffffffffffffffffffffffffff1614610327576040517f08c379a000000000000000000000000000000000000000000000000000000000815260040161031e9061161c565b60405180910390fd5b600360009054906101000a900460ff1615610377576040517f08c379a000000000000000000000000000000000000000000000000000000000815260040161036e906116ae565b60405180910390fd5b600073ffffffffffffffffffffffffffffffffffffffff168273ffffffffffffffffffffffffffffffffffffffff1614156103e7576040517f08c379a00000000000000000000000000000000000000000000000000000000081526004016103de90611740565b60405180910390fd5b600160405180606001604052808573ffffffffffffffffffffffffffffffffffffffff1681526020018381526020018473ffffffffffffffffffffffffffffffffffffffff16815250908060018154018082558091505060019003906000526020600020906003020160009091909190915060008201518160000160006101000a81548173ffffffffffffffffffffffffffffffffffffffff021916908373ffffffffffffffffffffffffffffffffffffffff1602179055506020820151816001015560408201518160020160006101000a81548173ffffffffffffffffffffffffffffffffffffffff021916908373ffffffffffffffffffffffffffffffffffffffff16021790555050506001600360006101000a81548160ff021916908315150217905550505050565b81600180549050811061055b576040517f08c379a0000000000000000000000000000000000000000000000000000000008152600401610552906117d2565b60405180910390fd5b600060018481548110610571576105706117f2565b5b906000526020600020906003020190506000808411156107a0578160020160009054906101000a900473ffffffffffffffffffffffffffffffffffffffff1673ffffffffffffffffffffffffffffffffffffffff166369328dec33868560000160009054906101000a900473ffffffffffffffffffffffffffffffffffffffff166040518463ffffffff1660e01b815260040161061093929190611821565b6020604051808303816000875af115801561062f573d6000803e3d6000fd5b505050506040513d601f19601f82011682018060405250810190610653919061186d565b905080935060006127106002548661066b91906118c9565b6106759190611952565b9050826001015481101561068b57826001015490505b808510156106ce576040517f08c379a00000000000000000000000000000000000000000000000000000000081526004016106c5906119f5565b60405180910390fd5b80856106da9190611a15565b945061074f8360020160009054906101000a900473ffffffffffffffffffffffffffffffffffffffff16828560000160009054906101000a900473ffffffffffffffffffffffffffffffffffffffff1673ffffffffffffffffffffffffffffffffffffffff16610d879092919063ffffffff16565b61079e33868560000160009054906101000a900473ffffffffffffffffffffffffffffffffffffffff1673ffffffffffffffffffffffffffffffffffffffff16610d879092919063ffffffff16565b505b3373ffffffffffffffffffffffffffffffffffffffff167f56c54ba9bd38d8fd62012e42c7ee564519b09763c426d331b3661b537ead19b2828460000160009054906101000a900473ffffffffffffffffffffffffffffffffffffffff1660405161080c929190611a49565b60405180910390a25050505050565b61271081565b610829610e0d565b6108336000610e8b565b565b60025481565b60008060009054906101000a900473ffffffffffffffffffffffffffffffffffffffff16905090565b600360009054906101000a900460ff1681565b60008260018054905081106108c1576040517f08c379a00000000000000000000000000000000000000000000000000000000081526004016108b8906117d2565b60405180910390fd5b6000600185815481106108d7576108d66117f2565b5b90600052602060002090600302016040518060600160405290816000820160009054906101000a900473ffffffffffffffffffffffffffffffffffffffff1673ffffffffffffffffffffffffffffffffffffffff1673ffffffffffffffffffffffffffffffffffffffff168152602001600182015481526020016002820160009054906101000a900473ffffffffffffffffffffffffffffffffffffffff1673ffffffffffffffffffffffffffffffffffffffff1673ffffffffffffffffffffffffffffffffffffffff16815250509050806040015173ffffffffffffffffffffffffffffffffffffffff166327e235e3856040518263ffffffff1660e01b81526004016109e591906114db565b602060405180830381865afa158015610a02573d6000803e3d6000fd5b505050506040513d601f19601f82011682018060405250810190610a26919061186d565b9250505092915050565b816001805490508110610a78576040517f08c379a0000000000000000000000000000000000000000000000000000000008152600401610a6f906117d2565b60405180910390fd5b600060018481548110610a8e57610a8d6117f2565b5b906000526020600020906003020190506000831115610c8957610af83330858460000160009054906101000a900473ffffffffffffffffffffffffffffffffffffffff1673ffffffffffffffffffffffffffffffffffffffff16610f4f909392919063ffffffff16565b8060000160009054906101000a900473ffffffffffffffffffffffffffffffffffffffff1673ffffffffffffffffffffffffffffffffffffffff1663095ea7b38260020160009054906101000a900473ffffffffffffffffffffffffffffffffffffffff16856040518363ffffffff1660e01b8152600401610b7b929190611a72565b6020604051808303816000875af1158015610b9a573d6000803e3d6000fd5b505050506040513d601f19601f82011682018060405250810190610bbe9190611ac7565b508060020160009054906101000a900473ffffffffffffffffffffffffffffffffffffffff1673ffffffffffffffffffffffffffffffffffffffff1663f45346dc33858460000160009054906101000a900473ffffffffffffffffffffffffffffffffffffffff166040518463ffffffff1660e01b8152600401610c4493929190611821565b6020604051808303816000875af1158015610c63573d6000803e3d6000fd5b505050506040513d601f19601f82011682018060405250810190610c87919061186d565b505b3373ffffffffffffffffffffffffffffffffffffffff167fe31c7b8d08ee7db0afa68782e1028ef92305caeea8626633ad44d413e30f6b2f848360000160009054906101000a900473ffffffffffffffffffffffffffffffffffffffff16604051610cf5929190611a49565b60405180910390a250505050565b610d0b610e0d565b600073ffffffffffffffffffffffffffffffffffffffff168173ffffffffffffffffffffffffffffffffffffffff161415610d7b576040517f08c379a0000000000000000000000000000000000000000000000000000000008152600401610d7290611b66565b60405180910390fd5b610d8481610e8b565b50565b610e088363a9059cbb60e01b8484604051602401610da6929190611a72565b604051602081830303815290604052907bffffffffffffffffffffffffffffffffffffffffffffffffffffffff19166020820180517bffffffffffffffffffffffffffffffffffffffffffffffffffffffff8381831617835250505050610fd8565b505050565b610e1561109f565b73ffffffffffffffffffffffffffffffffffffffff16610e3361083b565b73ffffffffffffffffffffffffffffffffffffffff1614610e89576040517f08c379a0000000000000000000000000000000000000000000000000000000008152600401610e8090611bd2565b60405180910390fd5b565b60008060009054906101000a900473ffffffffffffffffffffffffffffffffffffffff169050816000806101000a81548173ffffffffffffffffffffffffffffffffffffffff021916908373ffffffffffffffffffffffffffffffffffffffff1602179055508173ffffffffffffffffffffffffffffffffffffffff168173ffffffffffffffffffffffffffffffffffffffff167f8be0079c531659141344cd1fd0a4f28419497f9722a3daafe3b4186f6b6457e060405160405180910390a35050565b610fd2846323b872dd60e01b858585604051602401610f7093929190611bf2565b604051602081830303815290604052907bffffffffffffffffffffffffffffffffffffffffffffffffffffffff19166020820180517bffffffffffffffffffffffffffffffffffffffffffffffffffffffff8381831617835250505050610fd8565b50505050565b600061103a826040518060400160405280602081526020017f5361666545524332303a206c6f772d6c6576656c2063616c6c206661696c65648152508573ffffffffffffffffffffffffffffffffffffffff166110a79092919063ffffffff16565b905060008151111561109a578080602001905181019061105a9190611ac7565b611099576040517f08c379a000000000000000000000000000000000000000000000000000000000815260040161109090611c9b565b60405180910390fd5b5b505050565b600033905090565b60606110b684846000856110bf565b90509392505050565b606082471015611104576040517f08c379a00000000000000000000000000000000000000000000000000000000081526004016110fb90611d2d565b60405180910390fd5b6000808673ffffffffffffffffffffffffffffffffffffffff16858760405161112d9190611dc7565b60006040518083038185875af1925050503d806000811461116a576040519150601f19603f3d011682016040523d82523d6000602084013e61116f565b606091505b50915091506111808783838761118c565b92505050949350505050565b606083156111ef576000835114156111e7576111a785611202565b6111e6576040517f08c379a00000000000000000000000000000000000000000000000000000000081526004016111dd90611e2a565b60405180910390fd5b5b8290506111fa565b6111f98383611225565b5b949350505050565b6000808273ffffffffffffffffffffffffffffffffffffffff163b119050919050565b6000825111156112385781518083602001fd5b806040517f08c379a000000000000000000000000000000000000000000000000000000000815260040161126c9190611e9f565b60405180910390fd5b6000819050919050565b61128881611275565b82525050565b60006020820190506112a3600083018461127f565b92915050565b600080fd5b6112b781611275565b81146112c257600080fd5b50565b6000813590506112d4816112ae565b92915050565b6000602082840312156112f0576112ef6112a9565b5b60006112fe848285016112c5565b91505092915050565b600073ffffffffffffffffffffffffffffffffffffffff82169050919050565b6000819050919050565b600061134c61134761134284611307565b611327565b611307565b9050919050565b600061135e82611331565b9050919050565b600061137082611353565b9050919050565b61138081611365565b82525050565b600061139182611307565b9050919050565b6113a181611386565b82525050565b60006060820190506113bc6000830186611377565b6113c9602083018561127f565b6113d66040830184611398565b949350505050565b60006113e982611386565b9050919050565b6113f9816113de565b811461140457600080fd5b50565b600081359050611416816113f0565b92915050565b61142581611386565b811461143057600080fd5b50565b6000813590506114428161141c565b92915050565b600080600060608486031215611461576114606112a9565b5b600061146f86828701611407565b935050602061148086828701611433565b9250506040611491868287016112c5565b9150509250925092565b600080604083850312156114b2576114b16112a9565b5b60006114c0858286016112c5565b92505060206114d1858286016112c5565b9150509250929050565b60006020820190506114f06000830184611398565b92915050565b60008115159050919050565b61150b816114f6565b82525050565b60006020820190506115266000830184611502565b92915050565b60008060408385031215611543576115426112a9565b5b6000611551858286016112c5565b925050602061156285828601611433565b9150509250929050565b600060208284031215611582576115816112a9565b5b600061159084828501611433565b91505092915050565b600082825260208201905092915050565b7f4465466941494661726d56323a3a6f6e6c79476f7665726e616e63653a204e6f60008201527f7420676f76000000000000000000000000000000000000000000000000000000602082015250565b6000611606602583611599565b9150611611826115aa565b604082019050919050565b60006020820190508181036000830152611635816115f9565b9050919050565b7f4465466941494661726d56323a3a7365745374726174733a20416c726561647960008201527f20696e697469616c697a65640000000000000000000000000000000000000000602082015250565b6000611698602c83611599565b91506116a38261163c565b604082019050919050565b600060208201905081810360008301526116c78161168b565b9050919050565b7f4465466941494661726d56323a3a7365745374726174733a205374726174206360008201527f616e206e6f74206265207a65726f20616464726573732e000000000000000000602082015250565b600061172a603783611599565b9150611735826116ce565b604082019050919050565b600060208201905081810360008301526117598161171d565b9050919050565b7f4465466941494661726d56323a3a76616c69646174655069643a204e6f74206560008201527f7869737400000000000000000000000000000000000000000000000000000000602082015250565b60006117bc602483611599565b91506117c782611760565b604082019050919050565b600060208201905081810360008301526117eb816117af565b9050919050565b7f4e487b7100000000000000000000000000000000000000000000000000000000600052603260045260246000fd5b60006060820190506118366000830186611398565b611843602083018561127f565b6118506040830184611398565b949350505050565b600081519050611867816112ae565b92915050565b600060208284031215611883576118826112a9565b5b600061189184828501611858565b91505092915050565b7f4e487b7100000000000000000000000000000000000000000000000000000000600052601160045260246000fd5b60006118d482611275565b91506118df83611275565b9250817fffffffffffffffffffffffffffffffffffffffffffffffffffffffffffffffff04831182151516156119185761191761189a565b5b828202905092915050565b7f4e487b7100000000000000000000000000000000000000000000000000000000600052601260045260246000fd5b600061195d82611275565b915061196883611275565b92508261197857611977611923565b5b828204905092915050565b7f4465466941494661726d56323a3a77697468647261773a205f77616e74416d7460008201527f203c206665650000000000000000000000000000000000000000000000000000602082015250565b60006119df602683611599565b91506119ea82611983565b604082019050919050565b60006020820190508181036000830152611a0e816119d2565b9050919050565b6000611a2082611275565b9150611a2b83611275565b925082821015611a3e57611a3d61189a565b5b828203905092915050565b6000604082019050611a5e600083018561127f565b611a6b6020830184611398565b9392505050565b6000604082019050611a876000830185611398565b611a94602083018461127f565b9392505050565b611aa4816114f6565b8114611aaf57600080fd5b50565b600081519050611ac181611a9b565b92915050565b600060208284031215611add57611adc6112a9565b5b6000611aeb84828501611ab2565b91505092915050565b7f4f776e61626c653a206e6577206f776e657220697320746865207a65726f206160008201527f6464726573730000000000000000000000000000000000000000000000000000602082015250565b6000611b50602683611599565b9150611b5b82611af4565b604082019050919050565b60006020820190508181036000830152611b7f81611b43565b9050919050565b7f4f776e61626c653a2063616c6c6572206973206e6f7420746865206f776e6572600082015250565b6000611bbc602083611599565b9150611bc782611b86565b602082019050919050565b60006020820190508181036000830152611beb81611baf565b9050919050565b6000606082019050611c076000830186611398565b611c146020830185611398565b611c21604083018461127f565b949350505050565b7f5361666545524332303a204552433230206f7065726174696f6e20646964206e60008201527f6f74207375636365656400000000000000000000000000000000000000000000602082015250565b6000611c85602a83611599565b9150611c9082611c29565b604082019050919050565b60006020820190508181036000830152611cb481611c78565b9050919050565b7f416464726573733a20696e73756666696369656e742062616c616e636520666f60008201527f722063616c6c0000000000000000000000000000000000000000000000000000602082015250565b6000611d17602683611599565b9150611d2282611cbb565b604082019050919050565b60006020820190508181036000830152611d4681611d0a565b9050919050565b600081519050919050565b600081905092915050565b60005b83811015611d81578082015181840152602081019050611d66565b83811115611d90576000848401525b50505050565b6000611da182611d4d565b611dab8185611d58565b9350611dbb818560208601611d63565b80840191505092915050565b6000611dd38284611d96565b915081905092915050565b7f416464726573733a2063616c6c20746f206e6f6e2d636f6e7472616374000000600082015250565b6000611e14601d83611599565b9150611e1f82611dde565b602082019050919050565b60006020820190508181036000830152611e4381611e07565b9050919050565b600081519050919050565b6000601f19601f8301169050919050565b6000611e7182611e4a565b611e7b8185611599565b9350611e8b818560208601611d63565b611e9481611e55565b840191505092915050565b60006020820190508181036000830152611eb98184611e66565b90509291505056fea26469706673582212204b8f30a1f124c3dc30d1bc65eb17d6ba665c5778e0e13239bc4e83f57b37fa1264736f6c634300080b0033",
  "immutableReferences": {},
  "source": "// SPDX-License-Identifier: MIT\r\n\r\npragma solidity ^0.8.0;\r\n\r\nimport \"@openzeppelin/contracts/token/ERC20/utils/SafeERC20.sol\";\r\nimport \"@openzeppelin/contracts/access/Ownable.sol\";\r\n// import \"./interfaces/IDeFiAIMultiStrat.sol\";\r\n\r\ninterface IDeFiAIMultiStrat {\r\n    function deposit(address user, uint256 _wantAmt, address _wantAddress) external returns (uint256);\r\n    function withdraw(address user, uint256 _wantAmt, address _wantAddress) external returns (uint256);\r\n    function balances(address user) external view returns (uint256);\r\n}\r\n\r\ncontract DeFiAIFarmV2 is Ownable {\r\n    using SafeERC20 for IERC20;\r\n\r\n    /* ========== EVENTS ============= */\r\n\r\n    event Deposit(address indexed user, uint256 amount, address wantAddress);\r\n    event Withdraw(address indexed user, uint256 amount, address wantAddress);\r\n\r\n    /* ========== STRUCTS ============= */\r\n\r\n    struct UserInfo {\r\n        string upline;\r\n    }\r\n\r\n    struct PoolInfo {\r\n        IERC20 want;\r\n        uint256 minFee;\r\n        address strat;\r\n    }\r\n\r\n    //FOR TESTING-------------------------------------------\r\n\r\n    //--------------------------------------------------------\r\n\r\n    /* ========== CONSTANTS ============= */\r\n\r\n    // Denominator for fee calculations.\r\n    uint256 public constant FEE_DENOM = 10000;\r\n\r\n    /* ========== STATE VARIABLES ========== */\r\n\r\n    // Info of each pool.\r\n    PoolInfo[] public  poolInfo;\r\n  \r\n    // Fee paid for withdrawals\r\n    uint256 public  withdrawalFee;\r\n\r\n    // Init state\r\n    bool public isInit;\r\n\r\n    /* ========== MODIFIERS ========== */\r\n\r\n    modifier validatePid(uint256 _pid) {\r\n        require(\r\n            _pid < poolInfo.length,\r\n            \"DeFiAIFarmV2::validatePid: Not exist\"\r\n        );\r\n        _;\r\n    }\r\n\r\n    modifier onlyGovernance() {\r\n        require(\r\n            (msg.sender == owner()),\r\n            \"DeFiAIFarmV2::onlyGovernance: Not gov\"\r\n        );\r\n        _;\r\n    }\r\n\r\n    /* ========== CONSTRUCTOR ========== */\r\n\r\n    constructor(\r\n        uint256 _withdrawalFee\r\n    ) {\r\n        withdrawalFee = _withdrawalFee;\r\n    }\r\n\r\n    /* ========== VIEWS ========== */\r\n\r\n    function poolLength() external view  returns (uint256) {\r\n        return poolInfo.length;\r\n    }\r\n\r\n    function getTotalBalance(uint256 _pid, address _user) \r\n    external \r\n    view \r\n    validatePid(_pid) \r\n    returns (uint256) \r\n    {\r\n        PoolInfo memory pool = poolInfo[_pid];\r\n        return IDeFiAIMultiStrat(pool.strat).balances(_user);\r\n    }\r\n\r\n    /* ========== MUTATIVE FUNCTIONS ========== */\r\n\r\n    function deposit(uint256 _pid, uint256 _wantAmt)\r\n        external\r\n        validatePid(_pid)\r\n    {\r\n        PoolInfo storage pool = poolInfo[_pid];\r\n        if (_wantAmt > 0) {\r\n            // require(pool.want.transferFrom(address(msg.sender), address(this), _wantAmt));\r\n            pool.want.safeTransferFrom(\r\n                address(msg.sender),\r\n                address(this),\r\n                _wantAmt\r\n            );\r\n\r\n            // pool.want.safeIncreaseAllowance(pool.strat, _wantAmt);\r\n            pool.want.approve(pool.strat, _wantAmt);\r\n            IDeFiAIMultiStrat(pool.strat).deposit(msg.sender, _wantAmt, address(pool.want));\r\n        }\r\n        emit Deposit(msg.sender, _wantAmt, address(pool.want));\r\n    }\r\n\r\n    function withdraw(uint256 _pid, uint256 _wantAmt)\r\n        public\r\n        validatePid(_pid)\r\n    {\r\n        PoolInfo storage pool = poolInfo[_pid];\r\n        uint256 realAmt;\r\n        if (_wantAmt > 0) {\r\n            realAmt = IDeFiAIMultiStrat(pool.strat).withdraw(msg.sender, _wantAmt, address(pool.want));\r\n\r\n            _wantAmt = realAmt;\r\n            uint256 fee = _wantAmt * withdrawalFee / FEE_DENOM;\r\n            if (fee < pool.minFee) {\r\n                fee = pool.minFee;\r\n            }\r\n            require(_wantAmt >= fee, \"DeFiAIFarmV2::withdraw: _wantAmt < fee\");\r\n            _wantAmt -= fee;\r\n            pool.want.safeTransfer(pool.strat, fee);\r\n            pool.want.safeTransfer(address(msg.sender), _wantAmt);\r\n        }\r\n        emit Withdraw(msg.sender, realAmt, address(pool.want));\r\n    }\r\n\r\n    /* ========== RESTRICTED FUNCTIONS ========== */\r\n    \r\n    function initialize(\r\n        IERC20 _want, \r\n        address _strat, \r\n        uint256 _minFee\r\n    ) external onlyGovernance {\r\n        require(!isInit, \"DeFiAIFarmV2::setStrats: Already initialized\");\r\n        require(_strat != address(0), \"DeFiAIFarmV2::setStrats: Strat can not be zero address.\");\r\n        poolInfo.push(\r\n            PoolInfo({\r\n                want: _want,\r\n                minFee: _minFee,\r\n                strat: _strat\r\n            })\r\n        );\r\n        isInit = true;\r\n    }    \r\n}",
  "sourcePath": "C:\\\\eth_sandbox\\uniswapV2tests\\contracts\\DeFiAi.sol",
  "compiler": {
    "name": "solc",
    "version": "0.8.11+commit.d7f03943.Emscripten.clang"
  },
  "schemaVersion": "3.4.5",
  "updatedAt": "2022-11-15T14:47:29.411Z",
  "devdoc": {
    "kind": "dev",
    "methods": {
      "owner()": {
        "details": "Returns the address of the current owner."
      },
      "renounceOwnership()": {
        "details": "Leaves the contract without owner. It will not be possible to call `onlyOwner` functions anymore. Can only be called by the current owner. NOTE: Renouncing ownership will leave the contract without an owner, thereby removing any functionality that is only available to the owner."
      },
      "transferOwnership(address)": {
        "details": "Transfers ownership of the contract to a new account (`newOwner`). Can only be called by the current owner."
      }
    },
    "version": 1
  },
  "userdoc": {
    "kind": "user",
    "methods": {},
    "version": 1
  }
}